:2000000000802020896F0000F3150000A56B00000000000000000000000000000000000010
:20002000000000000000000000000000116B000000000000000000005160000089670000A3
:20004000F3150000F3150000F3150000F3150000F3150000F3150000F3150000F315000060
:2000600000000000F3150000F31500000000000000000000F3150000F3150000F315000058
:20008000F3150000F3150000F3150000F3150000F3150000F3150000000000000000000030
:2000A000F3150000F31500000000000000000000F315000000000000F3150000F315000018
:2000C000F0B59FB006920E460024E14304910AA91A9140211B911C9403901E901D9406E070
:2000E0002B4600F093FC1D9C002C00D52AE23178761C25290BD0002900D113E21C9B581CCC
:200100001B9A904252D918469042ECD158E0002731780A46233A0D2A14D802207A441279FD
:2001200052009744090F0F0F0F0F0F0F0B0F0D0F0F060743761CEBE70820FAE70420F8E71B
:200140000120F6E709940A463A3A00250920C043824202D22C4632460CE00024721C0A23A2
:200160005C436418303C71780E463A3EDB439E421646F3D82E2907D1537819463A3981428F
:2001800000D35CE0561C00E016463078FB2102460A40682A1FD1707802460A40682A1CD1D1
:2001A000B0780140F61C6829EFD017E01A9AD1541C901D99491C1D911B9A904200D092E75F
:2001C0001E981A9904F04CF91C99884200D0A7E100201C9087E7761C00E0B61C0146583950
:2001E00020294DD87944097949008F4411101010101010101010101B60101010101010109A
:20020000101010108210108E1056101011006AE7069A1068011D11600168009401971AA888
:2002200010225DE706990B68181D08601C99481C1B9A90422CD81A681A9B5A54B8E7961CBF
:2002400000250A214D43ED18303D327813463A3B834200D299E74D43AD18303D72781346B8
:200260003A3B834200D281E04D43AD18303DB3781A463A3AF61CC9438A42E2D8761E84E7AD
:20028000252800D02FE71C99481C1B9A90427CD90846904200D026E792E7069A1068011D8A
:2002A00011600168009401971AA80A2218E7069A1068011D11600168C81705914140081A23
:2002C0000A2855DB0323642800D2BBE0C1087D294FD37D21C9000893079005F0A1FF089B3B
:2002E000DB1C9B49079A8A42EDD89B1EAB4242D942E0069A1068011D1160016800200823B3
:20030000009301901AA81022EBE6069A1068011D1160006800288D4C00D00446099D0EE036
:200320001E981A9904F09CF81C99884200D0F7E000201C901D9D641C002D00D5D3E621784C
:20034000002900D1CFE61C9B581C1B9A904203D918469042EFD1E3E71A9AD1541C901D996B
:200360004D1C1D951B9A9042E5D1D9E7761C0CE70123AB4200D82B46002C04D005980028C1
:2003800007D4002006E0002109E01A9A252353540EE701200421394089080143611A0224A5
:2003A0003C40089314D0002D12D10998002800D599E6059800283DD4780776D507911C9928
:2003C000481C1B9A90425ED9084690424FD066E0F807EAD10029E8D0079411E01E981A99E6
:2003E00004F03EF81C99884200D099E000201C901D980990099800282146089B00D572E6F1
:200400004C1E8C4222D28B4220D21C99481C1B9A904203D908469042ECD1DFE71A9A2023DB
:2004200053541C901D99491C09911D911B9A9042E0D1D3E707911C99481C1B9A904207D9FC
:2004400008460FE05B1EAB4295D995E7079CACE71A9A2D235354089B1C901D99491C09912A
:200460001D911B9A059949420591904217D11E981A9903F0F5FF1C99884251D100201C90E3
:200480001D98089B0CE01A9A2B235354089B1C901D99491C09911D911B9A9042E7D00998DE
:2004A00007990990002800D51DE6002C05D1009101971AA80A22059912E601203840284350
:2004C000F5D1002911D1F2E71E981A9903F0C8FF1C99884224D100201C901D980990089B1E
:2004E00009980028214600D5FDE54C1E8C42DED28B42DCD21C99481C1B9A904203D90846E8
:200500009042EDD1E0E71A9A30235354089B1C901D99491C09911D911B9A9042E0D1D3E732
:20052000049C0FE0002C09D01C9A002A08D00AA9039803F095FF1C981D9C02E0002401E046
:200540000020241820461FB0F0BDC046717500000F27000080B592B0119000200D900B90CB
:20056000119800282AD0FFE711980821C943884220D8FFE711980830119011A8007840074A
:20058000002815D0FFE71199072001400820401A0C9011980C99C943884205D8FFE70C99AC
:2005A00011984018119002E000201190FFE700E0FFE702E000201190FFE700E0FFE706F005
:2005C00077FC82480068002803D1FFE703F098FF00E0FFE711A8C0780006002800D5E5E08B
:2005E0001198002800D1DFE0119879490968884200D9D9E077480F90006810901099002033
:20060000754A91420A900FD3FFE710997248734A82180120002308939142099001D9089867
:20062000099009980A90FFE70A98C007002803D1FFE772B6FFE7FEE7FFE710984168119AE0
:2006400000209142079006D2FFE710980068411E88410790FFE70798C007002824D0FFE735
:2006600010980F90109800681090109900205A4A914206900FD3FFE710995748574A821862
:200680000120002304939142059001D90498059005980690FFE70698C007002803D1FFE7AC
:2006A00072B6FFE7FEE7C8E7109848490968884278D0FFE70F98006808300D900D9900204C
:2006C000454A914203900FD3FFE70D994248434A82180120002301939142029001D9019856
:2006E000029002980390FFE70398C007002803D1FFE772B6FFE7FEE7109800680F990860FE
:20070000109840681199884203D2FFE772B6FFE7FEE7109840681199401A11281ED3FFE703
:200720001098119940180E900EA800784007002803D0FFE772B6FFE7FEE71098406811992E
:20074000401A0E9948601198109948600F9800680E9908600E980F99086000E0FFE71098B4
:2007600042681B480168891A016000681C490968884205D2FFE7164800681949086000E0CA
:20078000FFE7109840680B90109948680122D2071043486010990020086012490868401CE0
:2007A000086000E0FFE700E0FFE700E0FFE700F045FB0DA800784007002803D0FFE772B6D2
:2007C000FFE7FEE70D9812B080BDC0466C1E2020901E20206C1C202000002020FF0B0000DA
:2007E000981E2020A41E2020F0B591B005460020C343FF2D22D00C4676490978A9421DD81A
:2008000075490978A94219D3002C00D5E0E0039301200C9080060A906F09F8006F49081846
:2008200026016F4921406F4BC9188B0C089207970B9506D1890B6C4A515803E0184611B0A2
:20084000F0BD0021069140680490E0B2059037460A9807400C9EF0040D90254634062C401E
:2008600005F0AEFEE903099036D41F200B990840864060000321090529405D4A89184A4288
:200880004A4111050143089801433943069A114380220A4305998900544B5A5001282C4625
:2008A00002D1544804990E500A9605F089FE52490A680B9DAB00D118D25813460D9F3B40BF
:2008C0003C42079F17D1002B0C9E02D00D9B9A430A609521490115E00194059B029770063D
:2008E00004902A090321480628400A9CA0422C460FD000210EE0002B0C9E02D10D9B1A43C2
:200900000A603E49049A0A9B535006F0D9F809982BE0C9060A911F46B1040D9B1A40F3060E
:20092000049DA8421D4600D00A9D3007284080180D9A5040089A1043029A1043069A10430D
:2009400080310143BA002948815001462B4080581843885001980028079F09980B9D04D065
:200960008A181168049B1943116006F0A9F8A000400F20D0BE4005F023FE21490A78164222
:2009800002D006F09DF816E032430A7006F098F80EAE304606F081F80E971748C0680F9023
:2009A00018490120324605F02AFB002803980FD01548022101602846214603F0A9FC05F03E
:2009C000FFFD0D490968AA008C5006F079F8002011B0F0BD2B7200009D7500004073000077
:2009E0000000FF070000FDFF50730000048042400000E0FFD0120000207500009012000034
:200A0000C91E2020D934000000E100E0F0B587B01E46914205900391069202D203460124CB
:200A200018E003240846114605F0FAFB069A90420ED3114605F0F4FB069A904209D31146D5
:200A400005F0EEFB069AE41C9042ECD2A41E00E0641E059B0D980C99B44200D8344601270A
:200A600005463D400029019502943CD0002D3AD10D462021800703D40C46002E03D103E0EC
:200A80003024002E00D00C46294606E0002098602946D8680028069A25D4002923D002981F
:200AA000884220D20D465A689968481C904201D9084606E01A6854549860D968491CD9601F
:200AC0005A682946691E9042E3D10D461869196803F0C6FC059B99688842D7D00020C04399
:200AE000D860069A2946D868049000286BD4039C009101E0761E5743022E01D3761E06E0B7
:200B00002046394605F08CFB069A904217D35743012E01D9761E06E02046394605F080FBA6
:200B2000069A90420BD35743012EE3D82046394605F076FB069A90420598DCD200E005985C
:200B40008468039D03952846394605F069FB0646621C059B5868824205D922460499824296
:200B60000CD0144615E03048805D196808559A60D868411CD96058688242F2D118691968FE
:200B800003F06EFC05998C68A04211D100248C60C9680491002906990ED47E43039DAD1BF9
:200BA000384605F03DFB06998F420746CAD203E00020C0430490C86001980028059B009975
:200BC00001D0002906D107B0F0BD1446049100292946F8D44D1E8D42F5D202988842F2D264
:200BE000621C5868824204D9224604998242ECD109E01868202101559A60D868411CD960C0
:200C000058688242E1D11869196803F029FC059B9968884203D100249C60D968D6E7002007
:200C2000C043D86007B0F0BD3075000010B588B00020059076480068002800D0DFE0764922
:200C40000868401C049004980860049800281AD1FFE7FFE7714800680068002803D0FFE74B
:200C600072B6FFE7FEE76D4A106803906C4908681060039808606B490868401C086005F04A
:200C80009BFDFFE700E0FFE7049867490968884200D2AAE0FFE7614800680068002805D1D0
:200CA000FFE761490020C04308609DE05B480068C068C06807900798406806900498069992
:200CC000884204D2FFE70698574908608CE0FFE7FFE70798406902900799C868896888602D
:200CE00007998868C9684860029840680799091D884205D1FFE70798C06802994860FFE70D
:200D000007990020486102990868401E0860FFE70798806A002821D0FFE7FFE70798806ABC
:200D200001900799086AC96988600799C869096A48600198406807991831884205D1FFE75A
:200D40000798006A01994860FFE707990020886201990868401E0860FFE700E0FFE7FFE756
:200D6000FFE70798C06A31490968884205D9FFE70798C06A2D490860FFE7FFE7FFE7079853
:200D8000C16A14221046484329490818406800900098079B986000988068079BD86007981C
:200DA000001D009B9B6858600798001D009B9860079BDC6A10466043081858610798C06AEE
:200DC00042438858401C8850FFE7FFE70798C06A18490968C96A884203D9FFE7012005909E
:200DE00000E0FFE7FFE756E7FFE713480068002803D0FFE70120059000E0FFE704E00549D2
:200E00000868401C0860FFE7059808B010BDC046841E2020AC1E2020B41E2020881C2020AE
:200E20008C1C2020A01E20209C1E20208C1E2020D8162020681E2020C01E202010B588B0D9
:200E4000002000900790069005F078FF0098059070480068002803D1FFE772B6FFE7FEE727
:200E60006C480168491E01600068002800D0CAE069480068002800D1C4E0FFE767480068D0
:200E8000002800D188E06548C068C0680790FFE70798806A04900799086AC969886007998E
:200EA000C869096A48600498406807991831884205D1FFE70798006A04994860FFE707995F
:200EC0000020886204990868401E0860FFE7FFE70798406903900799C86889688860079945
:200EE0008868C9684860039840680799091D884205D1FFE70798C06803994860FFE7079909
:200F00000020486103990868401E0860FFE7FFE7FFE70798C06A45490968884205D9FFE72E
:200F20000798C06A41490860FFE7FFE7FFE70798C16A1422104648433D4908184068029083
:200F40000298079B986002988068079BD8600798001D029B9B6858600798001D029B98609C
:200F6000079BDC6A10466043081858610798C06A42438858401C8850FFE7FFE70798C06AC0
:200F800029490968C96A884204D9FFE725490120086000E0FFE771E70798002803D0FFE719
:200FA00005F00AFCFFE71E48006801900198002817D0FFE7FFE7FFF739FE002804D0FFE76E
:200FC00018490120086000E0FFE70198401E0190FFE701980028EED1FFE7114900200860AB
:200FE00000E0FFE70F480068002809D0FFE701200690FFE70C48006805F0ACFEFFE700E0C7
:20100000FFE7FFE700E0FFE705F0A4FC069808B010BDC046841E20207C1E2020F81B202071
:20102000AC1E2020C01E2020681E20208C1E2020D8162020F0B58BB0704A1278002482429E
:201040000DD90691C0006E490F187D680E5805F0B7FAE021715C002904D005F031FD204630
:201060000BB0F0BD324605973146E031069E002E049200D1654E2F4601220C4603920A7087
:2010800005F01EFDF1680029069601D0084601E038460C305B4E002901D0491C01E0394600
:2010A000143109780078254620736173787B397B574C09193A69FFF797FB787D397D0919BC
:2010C000BA69FFF791FB06990878049C207048686060087A0295A86038684E4D411942595B
:2010E000324042514848086207AE304605F0D5FC05980790B8680890204614307968464AF9
:20110000334602F09BFF20463030039905F068F821462078002807D108468030002105F000
:201120005FF804993D4848603846203004907D20C00006900024CC600C618C603868411996
:201140004259304B1A4042512F4A0A62344D44513A7F0AA90A707A7F4A7005F08BFC3E68D6
:2011600070190190745102998868022805D0012806D104241920000104E00A24069801E013
:201180006420039C234D88600AA84078411C7A8C101805F045F8214605F042F8401EC0B247
:2011A00001990861304605F079F8386805F0A4FA39681C4808184919049D2A7803690724BC
:2011C000A34322409A180261FA8B03692402A34322409A1802616A78002A03D002680423CE
:2011E000134303600A68069B9F3313430B60016801220A43026005980BB0F0BD9F7500003C
:20120000887500000000FFFFFFFF0000407500000000010128100000F5150000ED6E000081
:201220001412000028120000F0B589B01746089107900024E1437348019103F04DFC002FE3
:2012400063D001200290781E032104F0E9FF481C0328049400D004900090029800020690C5
:20126000032F63D2009803284FD000200CE091005918674A8958039A5200089DA952A41C36
:20128000801C0499884240D0A100079A515889680B685D4A9F185D4D5A59069E32435A516D
:2012A0005C2205928D5CAE4039680E4205D139680E4202D139680E42F6D0A9005918544A48
:2012C00089586500089E71530146029D2943049DA9421AD0611C03918900079B59588968B8
:2012E0000B68494D5D19494A9E58069F3E439E50059A8A5C974029680F42B8D129680F4229
:20130000B5D129680F42F6D0B1E73F495818595841250D4001D00021CD43019A8169826141
:20132000384805F0BEFA284609B0F0BD0498381A039000240AE090001818354940587900CE
:20134000089A5052E41C039884428BD0A1000798415889680B682C481F182C481A58069E1B
:2013600032431A505C2005900D5CAE4039680E4205D139680E4202D139680E42F6D0A9003B
:2013800059182348095863000898C152631C99000798415889680F681B483D181B4ABE580F
:2013A00006980643BE50059A8E5C0146B1402868014205D12868014202D128680142F6D08F
:2013C000B0003818124940585900089B5852A71CB80007990858806803680B495D180B4A88
:2013E0009958069E314399500599425C31469140286801429FD1286801429CD12868014221
:20140000F6D098E7081B202030100000041100008062550080B58CB00A900991002008903B
:201420000A99059104900598002803D1FFE772B6FFE7FEE70598006C002803D0FFE772B65B
:20144000FFE7FEE705F084F8014600200029019005D1FFE70998411E88410190FFE701989A
:20146000C007002803D0FFE772B6FFE7FEE7FFE705F064FC0598806B03900398002826D0C2
:20148000FFE70398401E0599886305980068002805D1FFE705F060FB0599886000E0FFE75F
:2014A0000598006900280CD0FFE70598103000F0E7FC002803D0FFE705F04CFC00E0FFE7A8
:2014C00000E0FFE705F046FA01200B908EE00998002805D1FFE705F03DFA00200B9085E016
:2014E0000898002806D1FFE706A805F08BFB0120089000E0FFE7FFE7FFE705F02BFA05F0E4
:20150000D7FC05F01BFC059844214056401C002805D1FFE70599442200208854FFE7059891
:2015200045214056401C002805D1FFE70599452200208854FFE705F00DFA06A809A902F03A
:2015400037FE00282FD1FFE7059805F019FA002822D0FFE70598006800280AD1FFE705F0C0
:20156000EDFB0598806801F0D7F9049005F0F2F900E0FFE705982430099905F06FF8059877
:2015800002F0BAFDFFF75AFC002803D1FFE705F0E1FB00E0FFE705E0059802F0ADFDFFF7C9
:2015A0004DFCFFE721E0059802F0A6FDFFF746FC059805F0E5F9002815D0FFE7049800286A
:2015C0000ED0FFE705F0BAFB059805F002FA029005988068029900F0D3FF05F0BBF9FFE70C
:2015E00000200B9002E0FFE7FFE741E70B980CB080BDFEE7F0B585B00668049045682B68BD
:201600006D495A186D495C58B06847690A3705D1116804230B431360264699E02F46029606
:20162000D0360396664E34420DD025460623DB435468E6062AD422072E4601972DD462070D
:2016400065D49A1D64E02646591828242642019725D003984268002A4CD00446408A002871
:20166000029F7BD0216892B2184604F055F86168091A6160216809182160618A081A60824B
:20168000019800684F492022425043E04361116804230B4313602E465AE05A1C38E0142441
:2016A000264260D00C610398C468002C029F31D00398458A002D25D0916A09072AD00121DD
:2016C000039811E081684B1C83600A70C1684C1EC460418A491E0D46418201990B6821465E
:2016E0003A4A9A58120761D0374A9A580029E9D10021F5E70C61C1680029029F0AD000217C
:20170000039801753846019902F05AF802E09A1C4261029FB1051FD5B9684A69083203982D
:2017200016D1C268002A13D14268002A10D101980268264BD45824070AD1D21812680F2399
:201740001B0213400122D202934201D100224A61B1B2049802F074FF05B0F0BD38460199D0
:2017600001F0ACFCD6E7F207029F0AD1B207D1D50A220A6103994A684260C9680029BED1CF
:20178000C8E73D46F43501220A61039CE2680021002A0A4607D038460091019904F0CCF9A3
:2017A0000099E268B868C2602970B3E7002CB1D02904A7D0AEE7C046141200003810000077
:2017C00080C40000481000001C1200003C12000080B58EB00C900B910A9209930020089056
:2017E0000C9804900498002803D1FFE772B6FFE7FEE70B9900200029039006D1FFE7049867
:20180000006C411E88410390FFE70398C007002803D0FFE772B6FFE7FEE709990020022998
:20182000029007D1FFE70498C06B401E411E88410290FFE70298C007002803D0FFE772B629
:20184000FFE7FEE704F084FE014600200029019005D1FFE70A98411E88410190FFE7019890
:20186000C007002803D0FFE772B6FFE7FEE7FFE705F064FA0498806B0499C96B884204D39B
:20188000FFE70998022825D1FFE704980B99099A02F0DAF907900498406A00280CD0FFE74C
:2018A0000498243000F0ECFA002803D0FFE705F051FA00E0FFE708E00798002803D0FFE713
:2018C00005F048FA00E0FFE7FFE705F043F801200D9063E00A98002805D1FFE705F03AF847
:2018E00000200D905AE00898002806D1FFE705A805F088F90120089000E0FFE7FFE7FFE7FE
:2019000005F028F805F0D4FA05F018FA049844214056401C002805D1FFE7049944220020EE
:201920008854FFE7049845214056401C002805D1FFE70499452200208854FFE705F00AF830
:2019400005A80AA902F034FC00281ED1FFE7049804F062FF002811D0FFE7049810300A99A9
:2019600004F07CFE049802F0C7FBFFF767FA002803D1FFE705F0EEF9FFE705E0049802F03B
:20198000BBFBFFF75BFAFFE707E0049802F0B4FBFFF754FA00200D9000E069E70D980EB0A8
:2019A00080BD80B58CB00A9009910892002007900A9804900498002803D1FFE772B6FFE732
:2019C000FEE7099900200029029006D1FFE70498006C411E88410290FFE70298C0070028B7
:2019E00003D0FFE772B6FFE7FEE704F0B1FD014600200029019005D1FFE70898411E8841F4
:201A00000190FFE70198C007002803D0FFE772B6FFE7FEE7FFE705F091F90498806B03909C
:201A2000039800281FD0FFE70498099904F032FB0398401E049988630498006900280CD025
:201A4000FFE70498103000F01BFA002803D0FFE705F080F900E0FFE700E0FFE704F07AFF77
:201A600001200B906CE00898002805D1FFE704F071FF00200B9063E00798002806D1FFE7F4
:201A800005A805F0BFF80120079000E0FFE7FFE7FFE704F05FFF05F00BFA05F04FF904987E
:201AA00044214056401C002805D1FFE70499442200208854FFE7049845214056401C0028EA
:201AC00005D1FFE70499452200208854FFE704F041FF05A808A902F06BFB00281FD1FFE77C
:201AE000049804F04DFF002812D0FFE704982430089904F0B3FD049802F0FEFAFFF79EF9D2
:201B0000002803D1FFE705F025F900E0FFE705E0049802F0F1FAFFF791F9FFE70FE00498BB
:201B200002F0EAFAFFF78AF9049804F029FF002803D0FFE700200B9002E0FFE7FFE76AE703
:201B40000B980CB080BD704780B588B0079007985E490968884204D9FFE75C480068079047
:201B6000FFE772B6BFF34F8FBFF36F8F03F04AFA002802D1FFE762B6A6E055490620086035
:201B80005448006803900398002804D1FFE7524800680390FFE703984F490A680799491E09
:201BA0005143401806904D480068400100280AD5FFE7012040064949086047480168069881
:201BC000401A0690FFE7069845490968884206D9FFE7434801680698401A0690FFE70698FD
:201BE000404908603B490020086039490868012210430860079802900298002806D0FFE769
:201C0000BFF34F8F30BFBFF36F8FFFE762B6BFF34F8FBFF36F8F72B6BFF34F8FBFF36F8FEF
:201C20002B48062101600068C003002821D5FFE729480068069A27490968891A4018401EC7
:201C40000190019826490968884206D9FFE7019821490968884205D9FFE71F480068401EBC
:201C60000190FFE701981F4908600798401E05901AE0184800680390079A1749009108689B
:201C80005043039A801A04900498096804F0C8FA0146009805910599491C0068484304991B
:201CA000401A10490860FFE70A490020086008490720086008480068401E0A4908600598FA
:201CC00003F0E0F862B6FFE708B080BD941E202010E000E018E000E0781E202004ED00E005
:201CE000741E202014E000E0F0B58BB00D4604464668876804F064FC3178002904D004F036
:201D0000DFFE00200BB0F0BD049706900121317028797070534D28880028089105D1524868
:201D2000012104F05DFA0899288809040791401C28800594A7683D4648353846283002902C
:201D4000388E09A90880F86A0A90386804F028FA3E68112109027118287D01903B7FBC8C2D
:201D60006888FA6C00923A6D1C4303900443A3B213430098034301988200B0182322D20117
:201D800083507B6B3A6C786C48243E5D002B1BD0BB6B0193FB6B029C247802946D781043BB
:201DA00030434A68314C2240324C04401443079804434C6001980343029803432B43886857
:201DC0002B4A10402C4A10E0029B1C786B78104330434A68254D2A40284D054015434D60B1
:201DE00023438868224A104007221A4002438A600868079D28430860089B1803039A824219
:201E0000069804D0002A04D1FA8C4A6101E0FA8C8A613A6D002A0AD07A6DBB6D13434A680C
:201E200077242406A2432340D218089B4A600A681A430A6004F044FE049C20796179294370
:201E4000A268FEF7D1FC207B617B29432269FEF7CBFC207D617D2943A269FEF7C5FC059847
:201E60000BB0F0BDC41E2020081B2020FEFFECFFF8FFE0E00100120007001F1F010013006A
:201E800010B588B007900798C068C06806900698002803D1FFE772B6FFE7FEE7FFE7069832
:201EA000806A04900699086AC96988600699C869096A48600498406806991831884205D1C2
:201EC000FFE70698006A04994860FFE706990020886204990868401E0860FFE74648006891
:201EE00000285AD1FFE7FFE70698406903900699C8688968886006998868C968486003983E
:201F000040680699091D884205D1FFE70698C06803994860FFE7069900204861039908686A
:201F2000401E0860FFE7FFE7FFE70698C06A34490968884205D9FFE70698C06A304908603C
:201F4000FFE7FFE7FFE70698C16A1422104648432C490818406802900298069B9860029853
:201F60008068069BD8600698001D029B9B6858600698001D029B9860069BDC6A104660435D
:201F8000081858610698C06A42438858401C8850FFE7FFE704F010FC1AE0FFE7174948684B
:201FA00001900198069AD06101988068069A106206981830019A9268506006981830019AE7
:201FC0009060069881620868401C0860FFE7FFE70698C06A0C490968C96A884205D9FFE741
:201FE000012005900949086002E000200590FFE7059808B010BDC046841E2020F81B202097
:202000008C1E2020D8162020681E2020C01E2020F0B583B00124204604F062FA002864D0B5
:20202000054604F0CDFA4E4E3168002905D004F047FD284604F020FF02E0356004F040FD06
:2020400030680025E94302F047FD46480078002848D101944448077844480078029087421B
:202060003CD20298C01B401E0321009004F0D8F8481C032800D0054603282CD0BC0003E097
:20208000BF1C0834AD1E26D0394800680159FEB201223046FEF7A8FB35484068015900299C
:2020A00002D0304604F0FCFD781C012D12D03049096809194968C6B201223046FEF794FBF5
:2020C0002B484068001941680029D9D0304604F0E7FDD5E707460098022808D2019821495B
:2020E00008701F4E306804F0DCFB03B0F0BDBE001F4C04E0FF1C0C360298B842EED02068F4
:202100008159FDB201222846FEF76EFB60688159002902D0284604F0C3FD781C21688919C9
:202120004968C5B201222846FEF75EFB606880194168002902D0284604F0B2FDB81C216825
:2021400089198968C5B201222846FEF74DFB6068801981680029CDD0284604F0A1FDC9E7E7
:20216000741C2020C71E20202B7200009D75000020750000F0B585B0154618224243554895
:202180008618F26A022A15D0012A09D00020002A7DD1B76A746AA74270D9E243BB1873E01C
:2021A000B36A746AA3423FD9E0431B18306AAB4240D240E0304624300190746A3046283011
:2021C00000903046203003901C360020029608E0049838183146F119ED1B019B1C60029EF7
:2021E00055D0049000980368A34204D9E0431F180398006804E003980068E2439A18171817
:20220000001B874200D30746AF4200D32F46306800190E463A4604F0A3FE3C19039800680F
:202220008442D5D10024D3E7306AE2439A181318AB4200D32B4637462437051BF06900191D
:20224000AB4208D21A461D4604F08AFE28462919396005B0F0BD1C3602962A4604911E467A
:2022600004F07EFE741B0298006804994919224604F076FE30463C6005B0F0BD0490336AE9
:20228000E243B818C31804982A46AB4201D205B0F0BD37462437F069326A3346161B0019B0
:2022A000B54205D22A4604F05BFE601938600EE01C3302933246049104F052FEAC1B0298FE
:2022C000006804998919224604F04AFE3C60284605B0F0BDA017202080B588B0002007902C
:2022E00006900590FFE75248006805A90022FFF758FB002800D199E00598002800D594E032
:20230000079804900498002800D18CE004984069002805D0FFE70498001D03F0E1FD00E0F7
:20232000FFE703A803F0F6FF02900598401E0190082876D80198810001A040588746C04662
:202340006523000065230000BD230000CB230000FD2300006523000065230000BD2300008F
:20236000CB23000004992822885C0123184388540498069B81695918029A02F041FD0028BD
:202380001AD0FFE704982821405C4007002808D5FFE70498069982698918029A04F0F4F877
:2023A00006E004992822885CFE2318408854FFE70498016A884700E0FFE733E0049928229B
:2023C000885CFE23184088542CE004992822885C01231843885406980499886104988069E9
:2023E000002803D1FFE772B6FFE7FEE70498029B816959181A4602F003FD13E0049828214A
:20240000405C8007002804D4FFE7049801F05CF906E004992822885CFE2318408854FFE7E5
:2024200000E0FFE700E0FFE7FFE75CE708B080BDB81E202080B58EB00C900B910A920993F9
:202440000020079005900B98002803D1FFE74948039002E00B980390FFE703980690342004
:20246000FEF778F807900798002803D1FFE70C200D907BE006980069411E88410799087470
:202480000A980799486109980799886107990020C860079988600799C86107990862069945
:2024A0000968079A516007998862079908630799C86206980069002813D1FFE701200021BF
:2024C000032202F0A4F90799886007988068002806D1FFE7079801F0F7F80C200D9045E0E7
:2024E000FFE704F035F8411E481E814104A801700078C007002803D0FFE704F0D9FCFFE762
:20250000069801898A08079B0068019300901A481A4903F009FD08900898012805D1FFE7F8
:202520000799086804F0B4F811E007988068002805D0FFE70798806804F0C4F8FFE70798D4
:2025400001F0C2F8002007900C200590FFE707980C99086004A80078C007002803D0FFE7FA
:20256000FEF76CFCFFE705980D90FFE70D980EB080BDC0464C1E2020636C00006171000007
:2025800010B588B00790069107980590012002900798002800D18CE00598006D002803D11F
:2025A000FFE772B6FFE7FEE70598C06C0699884203D2FFE70698039003E00598C06C0390E5
:2025C000FFE70598C06A0399884270D0FFE70598006D012869D1FFE7059837490968884217
:2025E00003D1FFE772B6FFE7FEE70598C06A049003980599C8620598C07E0006002806D48D
:20260000FFE703990A20401A0599886100E0FFE705984069049914224A43284989188842E5
:2026200041D1FFE70598001D03F05AFC002801D1FFE700E0FFE7FFE7FFE70598C06A2049FD
:202640000968884205D9FFE70598C06A1C490860FFE7FFE7FFE70598C16A14221046484356
:2026600016490818406801900198059B986001988068059BD8600598001D019B9B68586007
:202680000598001D019B9860059BDC6A10466043081858610598C06A42438858401C8850D4
:2026A000FFE7FFE700E0FFE700E0FFE700E0FFE700E0FFE708B010BD681E2020D8162020BD
:2026C0008C1E2020F0B583B000920291019007684468029D6968002902D1E968002968D049
:2026E00003F06EFF3978012902D1F968002954D1FD603D610121696104F0E2F93E4630367D
:2027000000253046294602F0E7F9401C09D1387801280198DBD03046009902F0DDF9401C57
:202720004DD03878002804D138468030002102F0D3F900F0B6FB606804F022FB0198029914
:2027400002F0D0FD014660680C4604F023FB002C03D0FFF7F8F9254644E03878002841D1E8
:202760003D4680352846009902F0B6F9401C37D103F026FF0446F86800282ED0019804F0A0
:2027800014F9204604F09CF90220C743B91C284602F0A2F90298476122E0F96849690A31AF
:2027A00012D10221C943083969616D6904F088F91BE00220C043083868616D6915E002209B
:2027C000C5430298456110E03969CD613D6101216961002504F074F907E0204604F070F937
:2027E00002984569304604F05CF8284603B0F0BD10B582B0019004F0A1FA41490868401C98
:2028000008604048006800280DD1FFE701983D4908603B480068012803D1FFE702F030FC01
:2028200000E0FFE714E03848006800280ED1FFE734480068C06A0199C96A884204D8FFE7A2
:2028400001983049086000E0FFE700E0FFE7FFE72E480168491C0160006801994864FFE753
:20286000FFE70198C06A2A490968884205D9FFE70198C06A26490860FFE7FFE7FFE7019858
:20288000C16A14221046484322490818406800900098019B986000988068019BD86001981A
:2028A000001D009B9B6858600198001D009B9860019BDC6A10466043081858610198C06AE5
:2028C00042438858401C8850FFE7FFE704F042F80D48006800280FD0FFE7FFE7094800681C
:2028E000C06A0199C96A884203D2FFE704F032FA00E0FFE7FFE700E0FFE702B010BDC04645
:202900007C1E2020681E2020B01E2020881E20208C1E2020D816202010B584B003900398E4
:20292000029000200190039800287ED0FFE70298C06A40490968C96A884268D2FFE70298E8
:20294000C07E0006002808D4FFE73A480068C16A0A20401A0299886100E0FFE7029948691A
:20296000C96A14224A4334498918884246D1FFE70298001D03F0B4FA002801D1FFE700E064
:20298000FFE72C480068C06A0299C862FFE7FFE70298C06A29490968884205D9FFE70298EB
:2029A000C06A26490860FFE7FFE7FFE70298C16A142210464843204908184068009000982F
:2029C000029B986000988068029BD8600298001D009B9B6858600298001D009B9860029B19
:2029E000DC6A10466043081858610298C06A42438858401C8850FFE7FFE705E00D480068F4
:202A0000C06A0299C862FFE7012001900CE00298C06C08490968C96A884203D2FFE70120E2
:202A2000019000E0FFE7FFE700E0FFE7019804B010BDC046681E2020D81620208C1E202095
:202A400080B586B0059004F079F90598002804D1FFE73F480068019002E005980190FFE71A
:202A6000019804900498002803D1FFE772B6FFE7FEE70498001D03F033FA002801D1FFE7FF
:202A800000E0FFE70498806A002805D0FFE70498183003F025FA00E0FFE70498011D2D481C
:202AA00003F091FC00200390FFE70398002814DCFFE70498039940186421405C012807D1B2
:202AC000FFE7049803994118642200208854FFE7FFE70398401C0390E7E703F03BFF1E4846
:202AE0000068002807D0FFE704F028F903F064FE03F030FF00E0FFE7049815490968884202
:202B000022D1FFE71448006800280BD0FFE714480068002803D0FFE772B6FFE7FEE704F0A3
:202B200019F910E00B480068029002980B490968884204D1FFE706490020086002E000F0B9
:202B400037FAFFE7FFE700E0FFE706B080BDC046681E20200C1C2020B01E20207C1E2020A3
:202B6000841E202080B586B005900020039004F0E5F80598002804D1FFE73A4800680190F4
:202B800002E005980190FFE7019804900498002803D1FFE772B6FFE7FEE70498001D03F0F5
:202BA0009FF9002801D1FFE700E0FFE70498806A002805D0FFE70498183003F091F900E02D
:202BC000FFE729490868401C0860049825490968401A41424841029024480068002813D017
:202BE000FFE7029800280FD0FFE70498011D214803F0E9FB20490868401C0860049803F042
:202C000071FF0120039009E019490868401E0860049803F067FF03F0CFFDFFE703F09AFEEA
:202C20000398012804D0FFE7049802F0FDFFFFE70E480068002813D0FFE704980949096898
:202C400088420BD1FFE70D480068002803D0FFE772B6FFE7FEE704F07DF800E0FFE7FFE742
:202C600006B080BD681E2020881E2020B01E20207C1E2020201C2020801E2020841E202091
:202C800083B00290019100920298001F029002990120000608600298001F02900198029957
:202CA00008600298001F029002992D4808600298001F029002992B4808600298001F0290DD
:202CC0000299294808600298001F02900299274808600298001F029002992548086002986E
:202CE000001F02900098029908600298001F02900299204808600298001F029002991E4886
:202D000008600298001F029002991C4808600298001F029002991A4808600298001F02909E
:202D20000299184808600298001F02900299164808600298001F0290029914480860029840
:202D4000001F02900299124808600298001F029002990220C0430860029803B07047C046E8
:202D6000E967000012121212030303030202020201010101111111111010101009090909FB
:202D8000080808080707070706060606050505050404040480B58AB00990089109980590E4
:202DA0000598002803D1FFE772B6FFE7FEE70598006C002803D0FFE772B6FFE7FEE7059827
:202DC000016800200029019006D1FFE705988068411E88410190FFE70198C007002803D074
:202DE000FFE772B6FFE7FEE704F0BEF806900598806B049004980599C96B884248D2FFE766
:202E000005984521415C03A801700499491C059A916300214056401C00281AD1FFE70598B8
:202E2000406A002813D0FFE705982430FFF728F800280AD0FFE70898002804D0FFE70899E5
:202E40000120086000E0FFE700E0FFE700E0FFE71BE0FFE704F068F80290002103A840566E
:202E6000029988420FD2FFE7002103A840567F2803D1FFE772B6FFE7FEE70398401C0599DB
:202E800045228854FFE7FFE7FFE70120079002E000200790FFE7069804F070F807980AB0B3
:202EA00080BD704786B005903D480490FFE7049800680599884205D2FFE7FFE70498006841
:202EC0000490F4E70498364988421FD0FFE704990020344A914202900FD3FFE7049931484B
:202EE000314A82180120002300939142019001D90098019001980290FFE70298C0070028E5
:202F000003D1FFE772B6FFE7FEE7FFE70498039003980499496840180599884209D1FFE786
:202F20000598426804994868801848600498059000E0FFE705980390039805994968401854
:202F40000499096888421AD1FFE7049800681749096888420DD0FFE704980068426805991A
:202F60004868801848600498006800680599086004E00E48006805990860FFE704E00498E1
:202F8000006805990860FFE704980599884204D0FFE705980499086000E0FFE706B070474A
:202FA0006C1C202000002020FF0B00006C1E202080B586B03B480068002804D0FFE73A497A
:202FC000012008606CE0384900200860FFE737490868006B059036480490086800680968E2
:202FE000096B884218D9FFE7059800683049884212D1FFE7059840682D4988420CD1FFE763
:20300000059880682A49884206D1FFE70598C0682749884209D0FFE72448016834310391A5
:203020000068039903F0B4FFFFE7FFE7FFE7214800680290FFE70298142141431E4840589A
:2030400000280BD1FFE70298002803D1FFE772B6FFE7FEE70298401E0290ECE7FFE702983A
:20306000142141431448401801900199486840684860019948680831884204D1FFE7019916
:20308000C8684860FFE701984068C06807490860FFE7029807490860FFE704480068FFE799
:2030A00006B080BD841E2020C01E2020681E2020A5A5A5A58C1E2020D8162020F0B583B0D3
:2030C0000D4602900646D0360868374942183749411801915368DB070ED053689B060BD44E
:2030E0005368DB0708D053689B0605D45368DB0702D053689B06EDD513680127BB43136085
:203100007368FF2B00D3FF2373821B0414682849214019431160F168002902D17168090A45
:203120003DD0136804218B431360317D002900D13775082401990C607268002A0CD03168A2
:2031400092B202F0E9FA7168091A7160316809183160718A081A70822968164A8818164B3D
:20316000CD1820262E62CD58144E2E43CE50029B9B681B7E5B008D58114E2E40F3188B5052
:203180008B58BB438B50416802220A4342604168A143416041683943416003B0F0BD1168EA
:2031A00004230B43C0E7C0461412000048100000FFFF00F01012000028100000AAC60000B7
:2031C00001F8FFFF10B584B003900398029000200190039800286FD0FFE70298384909681A
:2031E000884203D0FFE772B6FFE7FEE70298006D002803D1FFE772B6FFE7FEE70299086D6D
:20320000401E08650299C86AC96C884252D0FFE70298006D00284BD1FFE70298001D02F035
:203220005FFE002801D1FFE700E0FFE70299C86CC8620299CA6A0A20801A8861FFE7FFE74A
:203240000298C06A1F490968884205D9FFE70298C06A1C490860FFE7FFE7FFE70298C16A3B
:2032600014221046484318490818406800900098029B986000988068029BD8600298001D45
:20328000009B9B6858600298001D009B9860029BDC6A10466043081858610298C06A424390
:2032A0008858401C8850FFE7FFE70120019000E0FFE700E0FFE700E0FFE7019804B010BD10
:2032C000681E20208C1E2020D816202080B58CB00B900A9109920B9806900698002803D1FB
:2032E000FFE772B6FFE7FEE70A9900200029029006D1FFE70698006C411E88410290FFE710
:203300000298C007002803D0FFE772B6FFE7FEE703F02AFE07900698806B059005980028E3
:203320004ED0FFE706984421405C04A90191087006980A9902F0AEFE01980599491E069A16
:20334000916300214056401C00281AD1FFE706980069002813D0FFE706981030FEF790FD15
:2033600000280AD0FFE70998002804D0FFE709990120086000E0FFE700E0FFE700E0FFE765
:203380001BE0FFE703F0D0FD0390002104A84056039988420FD2FFE7002104A840567F285F
:2033A00003D1FFE772B6FFE7FEE70498401C069944228854FFE7FFE7FFE70120089002E03A
:2033C00000200890FFE7079803F0D8FD08980CB080BD10B586B00B9C0A9C099C089C059029
:2033E0000491039202930A98006B03998900A52203F06EFD0A98016B039880004018001F17
:203400000190019807218843019001A800784007002803D0FFE772B6FFE7FEE704980028FE
:2034200020D0FFE700200090FFE700980F2814D8FFE70498009A805C0A99891834228854F7
:2034400004980099405C002801D1FFE705E0FFE7FFE70098401C0090E7E70A994322002090
:20346000885400E0FFE708980A2803D3FFE772B6FFE7FEE708980A2803D3FFE709200890DA
:2034800000E0FFE708980A99C86208980A99C8640A98001D03F023FD0A98183003F01FFDBF
:2034A0000A98006108990A20401A0A9988610A98406201980599029AFFF7E2FB0A99086063
:2034C0000998002804D0FFE70A980999086000E0FFE706B010BD7047F0B585B036480068FD
:2034E000072867D80121049181408620014261D000200290C2433148014610390C6801682F
:2035000001920260002C22D02D48007803902D48077802E0AE40B44319D0204602F0E2F941
:203520001F2545400126BD42304600D8029803998D42049900D301460029EBD1224840689B
:20354000A90041580029E5D0E8B28847E2E71F48014610390C68016801990160002C29D025
:203560001748057817480778039704E01F2148408640B4431ED0204602F0B4F901263F2114
:203580004140B942324600D80022A942049B00D31346002BEAD10C4A52688B00D258002AB2
:2035A000E4D0C9B22F4605460846904728463D46039FDBE705B0F0BD3011404048100A40DD
:2035C0002B7200009D7500002075000048300A40F0B581B000290ED002290FD1364E3378CE
:2035E000012B19D114783548047000254570C5718570858112E0084601B0F0BDFD250E4619
:203600002E402D4C23780020012E42D1012B2DD1FF23137023783CE0284804780020822C86
:203620001DD0812C16D0802C32D1012B1BD0032B12D11378224C0025074628460D462146A0
:2036400014461A4603F0EEFA3846294622781D4B1A7001E0012B06D00423337019E05A1E3E
:20366000FD231A42F8D10323337012E00020134E3678822E18D00425812E06D0802E07D14F
:20368000032B02D10F4B1B7813702B46237000E0C043042903D0042B01D001B0F0BD064925
:2036A00001220A7001B0F0BD5A1E2A4201D00423ECE70323EAE7C0469A1C2020541C2020BD
:2036C00000700000C61E202080B586B00590059804900598002868D0FFE7049808380490D2
:2036E0000498039003990020314A914202900FD3FFE703992E482F4A82180120002300933B
:203700009142019001D90098019001980290FFE70298C007002803D1FFE772B6FFE7FEE7FB
:203720000398C079C009002803D1FFE772B6FFE7FEE703980068002803D0FFE772B6FFE725
:20374000FEE70398C079C00900282CD0FFE703980068002825D1FFE7039948680122D2078E
:203760009043486003984068082808D3FFE70498083003994968083903F0C4FBFFE703F0AD
:2037800097FB039842680C490868801808600398FFF788FB09490868401C0860FDF74EFBB6
:2037A00000E0FFE700E0FFE7FFE706B080BDC04600002020FF0B0000901E2020A81E202060
:2037C000F0B583B00346DC331A7E002A01D003B0F0BD01221A760C682F4961182F4D6419B5
:2037E00002948D68ED0705D08D68ED0702D08D68ED07F6D12A4C072637024E6896434E60F1
:203800001E68350A02D0FF26DE8010E0B5B2DE80072D0CD83502ED1900928A6A0192FE3439
:20382000019A1440009A3D4025438D6202E08C6A3C438C624C681B4D2540340524092C19BA
:203840004C601C68240A654265414C680426B443AD0064194C601C7A002C00D11A72029D54
:203860002B68114C1C432C608068007E40000B680B4C234003430B6008681043086048680E
:20388000022303434B60486808239843486048681043486003B0F0BD10120000281000004F
:2038A00001F8FFFFFFFF00F095C60000F0B581B0ED21090407684668BB793068324A8218D8
:2038C000002B52D035462035304C116213680B431360327F69460A70727F4A7003F0CAF866
:2038E0003068B9882A4A8358671C1F40294B0B40F918815002F0F0FC306802F015FF306809
:203900000921490240182978C26E07239A4319405118C166F18BC26E1B029A4319405118B1
:20392000C1666978002903D0816D04220A438265A978002904D00168012212029143016048
:20394000816D08220A438265816D21408165816E022291438166816E04220A438266816DE0
:2039600001220A43826501B0F0BD064BC01813688B43136003680124A3430360116201B0B0
:20398000F0BDC0465812000028100000FFFBFFFF50120000FF030000F0B585B0076803909A
:2039A000406802900068324942184658ED210904116130494458600706D50220B8713B6820
:2039C000002103980A4698470125204628402904314040181CD0019602980068932149018F
:2039E00040188168490703D4816804220A438260006804AA10700226BE713B68039831467F
:203A00009847029800681C494258B2434250019E0220044068053040201803D130021DD42E
:203A200005B0F0BD3446029800681349425804239A434250B8790321B9713B68032800D1FE
:203A4000054604AE03982946324698470298006831780A4A815026463002E1D50120B8719A
:203A60003B68042100220398984705B0F0BDC046381000005C1200006812000064120000D4
:203A800080B588B0079006913048006804903048006803902F48006802902F480068001D37
:203AA00002F01EFA002801D1FFE700E0FFE70798401C002820D1FFE7069800281CD0FFE7C4
:203AC000FFE7274948680190019A234803689A60019A92680368DA600268121D019B9B6872
:203AE0005A600268121D019B9A60006841610868401C0860FFE726E004980799401805908A
:203B0000059815490968486005980499884207D2FFE7029810490968091D01F0FBFC11E06B
:203B200003980D490968091D01F0F4FC05980B490968884204D2FFE705980849086000E0FE
:203B4000FFE7FFE7FFE708B080BDC046B41E2020881C20208C1C2020681E20209C1E20201A
:203B60000C1C202080B586B00590049101200390059802900298002803D1FFE772B6FFE7DB
:203B8000FEE70298002852D0FFE70298C06B00284DD0FFE702980190C16B0020C04302F01A
:203BA0003FFB0199096C884241D3FFE703F0C6F802990868CB6B0A6C5A43801888600299D8
:203BC0000020886302990868486002990868CA6B531E0A6C5A438018C86002994422FF2083
:203BE00088540299452288540498002813D1FFE70298006900280CD0FFE702981030FEF7C1
:203C00003FF9002803D0FFE703F0A4F800E0FFE700E0FFE708E00298103002F085FE02989F
:203C2000243002F081FEFFE702F094FE02E000200390FFE70398002803D1FFE772B6FFE74F
:203C4000FEE7039806B080BD80B586B0059004910392002002900598806B01900598006CF3
:203C6000002810D1FFE705980068002809D1FFE705988068FFF7A6FA029005990020886015
:203C800000E0FFE743E00398002817D1FFE7059A50680499126C03F063F905990A6C486825
:203CA00080184860059948688968884204D3FFE705990868486000E0FFE727E0059AD068A4
:203CC0000499126C03F04CF905990A6CC868801AC8600599C8680968884206D2FFE7059926
:203CE00088680A6C801AC86000E0FFE7039802280AD1FFE70198002804D0FFE70198401EDE
:203D0000019000E0FFE700E0FFE7FFE7FFE70198401C05998863029806B080BD10B590B0AA
:203D200001200F9000200D900C900B900A9009900890FFE708980E2811D8FFE7089A274868
:203D4000815C0AA881540899405C002801D1FFE705E0FFE7FFE70898401C0890EAE7089A2A
:203D60000AA9002088540E90FFE70E98002832DCFFE71B480990002004900790069007A8C2
:203D800006A905AA02F03AFE049B0998059A0699079C0294019100930AA902F00DF80146CE
:203DA0000E9882000F4881500E9989004058002803D0FFE701200F9002E000200F90FFE7C3
:203DC0000F98012801D0FFE705E0FFE7FFE70E98401C0E90C9E70F9810B010BD987500001A
:203DE000D5570000941C2020F0B589B0284D284603F082F801262E72002420462946FDF7C5
:203E000019F92449086000282CD00096224FA5213970122179700197022502951F490391B3
:203E2000049401A96D260E7603F01EF8002823D01848006800281BD0A6213970312179707F
:203E400001970295154903910021049101A90E7603F00AF800280FD01149002002F0E2FE15
:203E6000009C12E011490024204602F0DBFE0CE00C49002002F0D6FE0B49204602F0D2FE62
:203E8000044D286801F002FD2C60204609B0F0BD441C20207C1C2020C818202048182020C1
:203EA0000472000098720000387100001F730000F0B583B002F032F9002841D0FFF794FF90
:203EC00000283FD0254C274D274F254E03E00020394602F0A7FE012001F0DEFF002021464E
:203EE00002F0A0FE02A801F0EFFE002806D002A802880020294602F095FE03E000203146EA
:203F000002F090FE01F040FE0028E0D001F0C0FD002804D00020174902F084FEDBE701A811
:203F200001F02AFC002806D0019A00201049134602F078FECFE700200C4902F073FECAE758
:203F4000044900E004490024204602F06BFE204603B0F0BDE57000008E7000007472000003
:203F6000E17400000C750000DC7200000F710000DC71000050720000F0B585B002462A48FA
:203F80000378002093424CD9002900D127490B68002B46D08B887F2B43D807460191D000E7
:203FA00023490C1866680D5802F00AFB7421695C002904D002F084FD384605B0F0BD29462E
:203FC0007431012200920A7002F07AFD707B317B184FC9193269FCF707FC707D317DC919B6
:203FE000B269FCF701FC0198016829608088A8800020A8712046FFF759FC02AF384602F0F0
:204000004CFD0294B06803902846083071680A4A3B4600F013F824352846009902F0E0F89D
:20402000204605B0F0BDC0469E7500005C7500008075000000000B019939000080B588B08E
:204040000790069105920493079800900798002848D0FFE70498002805D1FFE701A8049053
:2040600002F01BFDFFE704980079FF2804D1FFE7049902204860FFE706981C4909688842CE
:2040800008D0FFE704984068032803D1FFE70020079026E0009806998A00154988500598E8
:2040A00000994860049800680099886006980099086006980F4900F0F5FB002106A8405660
:2040C0000499097900F018FE0498007AC007002806D0FFE7002106A8405602F0F9FBFFE7C9
:2040E000FFE7FFE7079808B080BDC046601E20208C1D2020A964000080B584B0039002F0B8
:204100001DFE03984521405C02A90870FFE7002102A84056012817DBFFE70398406A00280F
:204120000CD0FFE703982430FDF7AAFE002803D0FFE702F0FFFE00E0FFE700E004E002983E
:20414000401E02A90870E2E703994522FF20885402F000FC02F0F2FD03984421405C01A902
:204160000870FFE7002101A84056012817DBFFE703980069002810D0FFE703981030FDF7BF
:204180007FFE002803D0FFE702F0D4FE00E0FFE70198401E01A9087000E000E0E2E70399F9
:2041A0004422FF20885402F0D5FB04B080BD704780B586B0059004910598002803D1FFE720
:2041C00072B6FFE7FEE70498002803D1FFE772B6FFE7FEE702F0B2FD2048006802900298DE
:2041E00005994968401A019004980068401C002803D1FFE7002003902BE01948006805991E
:20420000096888420CD0FFE7029805994968884206D3FFE70120039004990020086017E05F
:2042200001980499096888420BD2FFE7019A04990868801A0860059802F0E4FC002003907E
:2042400005E004990020086001200390FFE7FFE7FFE702F07FFB039806B080BDB41E2020E2
:20426000A01E2020F0B583B002F0AAF9044625480178002940D101210170234800780106EC
:204280003AD00294C4B2601E032101F0C9FF481C002703283E4600D006460190032C14D3B0
:2042A000A41B0027194D286841692846884728460C30E9684969884728461830A969496945
:2042C0008847FF1C2435BC42EDD101980328029C12D00C2078430D4945180C3528460C380E
:2042E000016849698847012E06D028684169284688471835B61EF1D1204602F0E1FB03B08E
:20430000F0BDC046C81E20206371000050750000F0B581B0FF2845D00446800838220240AB
:204320002148801845681F2626408800400F04D0102E16D39D21490114E002F041F91C49C5
:204340000968A2008B580724E406A3438B500121B140184AAB588B43AB50174902220A6062
:204360001EE0124969187200102E00D3203A90400A6802430A600127B740812040012D184F
:20438000A86A3843A86202F01BF909490968A2008B580724E4061C438C50A9683943A96052
:2043A00002F08EFB01B0F0BD4073000090130000207500002810000080E200E0F0B58B424D
:2043C00000D1824204D90B0002000021002040E0002B00D1002A0CD10B00020000210020AC
:2043E000002B00D1002A01D0C943C04300F059FA2FE01C0015000B0002000CB40021260020
:204400002F00FF19764102D2491C4029F9D100201E001700FF19764102D2401C4028F9D1AC
:204420000E1A21002800320002F00CFC0C0005000CBC00200021A34200D1AA4201D3521BE2
:20444000A341404149416D08E7073D436408761EF1D5059F002F01D03A607B60F0BD704747
:20446000F0B581B00C46224D2978532933D0A82106462846174602F045FD30463A46032157
:20448000296169611B4BAB611B49E9610121890229620021A9626962E9622B66174B6B666A
:2044A0001023AB662967E966696753232B7045236B704726AE70EE702B7152236B71202699
:2044C000AE71EB7154232B726B72A972E97229736973A973E973EFF31085012181F3108865
:2044E0002146FDF747FE85F3108801B0F0BDC046A017202068750000000C2020341C2020F8
:2045000084B00320800200902048029002A80078400700280ED0FFE70298C01D0290029840
:20452000072188430290029A18490098891A40180090FFE70299164801600021416002983A
:20454000009A8018019001980838019001980722D24310400190019A0E4802600268516008
:2045600002681160029903910199039A891A516000680399086003984068074908600398A4
:2045800040680649086004B07047C046000020206C1C20206C1E2020981E2020901E202095
:2045A00010B588B004460A98079406910592049303A90870002002900498002803D1FFE75E
:2045C00072B6FFE7FEE7079800282ED0FFE7049800282AD0FFE70598002804D0FFE706987C
:2045E000002822D0FFE70598002804D1FFE7069800281AD1FFE7502001900198502803D0BF
:20460000FFE772B6FFE7FEE7019804980290029946220120885407980699059A03AB1B78DC
:20462000029C009401F0C8FC07E00298002803D1FFE772B6FFE7FEE7FFE7029808B010BD38
:20464000F0B581B00446066840680068224A831885588D4385501962B16848690A3018D1CB
:204660000920C7437368002520462A469847B0684761F068316988421ED0F068C069F06017
:20468000F06847617368F168002220469847F068EEE7F0683269904213D0F068C069F060D9
:2046A000736848694242424120469847F168204600F018FE01B0F0BDB560F560356101B04E
:2046C000F0BD0020F060306173684869424242412046984701B0F0BD28100000002A49D07B
:2046E00084468B071CD1830722D1102A08D370B4103A78C978C0103AFBD270BC103238D06B
:20470000042A2CD3082A05D30C2A01D308C908C008C908C008C908C092072AD0920F22E057
:204720000B780370491C401C521E22D08B07F7D1C30714D18307D8D0121F12D308C90380BB
:204740001B0C4380001D121FF8D20AE008C903701B0A43701B0A83701B0AC370001D121F93
:20476000F4D2121D05D00B780370491C401C521EF9D160467047F0B58BB0139C129C119C37
:20478000109C0A900991089207931198002803D1FFE772B6FFE7FEE71298002803D1FFE7FB
:2047A00072B6FFE7FEE7682005900598682803D0FFE772B6FFE7FEE705981298002820D0B1
:2047C000FFE7119800281CD0FFE7129806900698682102F097FB119806990863069965228C
:2047E000022088540A980999089A079B109C139D069E00270397029601950094FEF7E9FDD5
:2048000002E000200690FFE706980BB0F0BD10B588B00790069105A8027000200490079877
:20482000002833D0FFE707990020C04301F0F8FC069988422AD3FFE7079906984843502139
:20484000C943884222D8FFE7079906984843039003985030FBF77EFE04900498002813D082
:20486000FFE704980290029850300290049946220020885407980699029A05AB1B78049CBA
:20488000009401F099FB00E0FFE707E00498002803D1FFE772B6FFE7FEE7FFE7049808B0A7
:2048A00010BD7047F0B5214B1C68214A944238D01C680025661963595719535173687B60E8
:2048C000B368BB60F368FB6033693B6173697B61B369BB61F369FB61336A3B62736A7B6218
:2048E000B36ABB62F36AFB62336B3B63736B7B63B36BBB63F36BFB63336C3B64736C7B64D8
:20490000B36CBB64F36CFB64336D3B65736D7B65B36DBB65F36DFB656035C02DCAD1034B30
:204920001A60800080180164F0BDC04608ED00E0001F2020F0B587B002F04AFA00F05AFC41
:20494000FDF766FBFEF7C7FDFFF78CFC1949002002F068F901AC204602F0B0F9012500958D
:204960006946204601F060FE06462046294601F06AFF074637436902204602F05BFA3843FE
:2049800000D0FEE70C4A06A801A90023FDF752FD002800D0FEE7094A06A801A90023FDF7AF
:2049A00049FD002800D0FEE700F020FE002007B0F0BDC04660730000B13E0000ED4B000042
:2049C00080B584B00390029102F072FA684601F0A1FC0190009800282ED1FFE702980028B6
:2049E0000CD1FFE703980199884207D8FFE7FCF725FA0398019901F03FF91CE00298002802
:204A000007D0FFE70F4800680068414248410290FFE70D4800680399019A891A029A00F00B
:204A2000AFFDFCF70BFA002803D1FFE702F092F900E0FFE7FFE702E0FCF700FAFFE704B05E
:204A400080BDC046901C2020B81E202080B586B005900598049002F02BFAFFE70498C06A1D
:204A6000002835D0FFE70498C06A0390039800680499C86203980069029002984068002800
:204A800005D0FFE70299086849680860FFE702980068002805D0FFE7029948680968486008
:204AA000FFE70398806801900198006800280BD0FFE70398C068002806D0FFE70198016869
:204AC0000398C0688847FFE70298FEF7FDFDC5E7FCF7B4F906B080BD80B58AB008900791F7
:204AE00001F03AFE002807D0FFE7089800221146FEF7ECFB069023E002F03DFA04900498C1
:204B00007D21C900884212D0FFE70798049A00230193194602F00EF8019B039102900298F5
:204B200003997D22D20002F05DF9059002E007980590FFE708980599FCF76CFC0690FFE77A
:204B40000698012804D1FFE709A90020087003E009A9FF200870FFE7002109A840560AB055
:204B600080BD000080B541690B310A291AD8C0467944097949008F44050B071719090D13E7
:204B80001D151B000F4916E0104914E0124912E00D4910E0027E1149002002F043F880BD36
:204BA0000F4908E0104906E0094904E0094902E0034900E00B49002002F034F880BDC0460B
:204BC000F87400007E740000F47300002C74000061700000B4710000FE720000BA700000E0
:204BE000BA720000D87300004874000084B001242046214602F0AEF919490025284602F0DC
:204C000011F801AE304602F0D9F8164801905020B08028463146FFF7AFF900281AD0064633
:204C20007D20C50010490027384601F0FBFF2046394600F003FC0D480470304601F001FA2A
:204C4000284601F069F8284601F066F8284601F063F8F5E70649002001F0E4FFFEE7C04613
:204C6000C9740000D1350000987400009A1C20209E730000F0B581B000910021CC43466899
:204C800087687078002803D017482146FFF724FF396816480818164BCD580122120215432F
:204CA000CD505C23FB5C9A4005682A4205D105682A4202D105682A42F6D09A0089180D4A9B
:204CC0008F580568816984617078002802D0064801F0E7FD4120054000D12C4600980780A4
:204CE000204601B0F0BDC046081B202030100000041100008062550070B582B0024601A8B3
:204D00000270009100214056002816D4FFE7002401A908570322D3431840174A8058095788
:204D20008C07E50EFF24AC40A043009CA401E4B2AC402043194088501AE001A908780F244D
:204D4000204008380322D34318400A4A8058002549578D07EE0EFF25B540A843009DAD0150
:204D6000EDB2B54028432140083919408850FFE702B070BD1CED00E000E400E0F0B58BB00F
:204D8000119C109C0A9009910892079308988000FBF7E0FB05900598002815D0FFE76820B8
:204DA000FBF7D8FB06900698002808D0FFE70698682102F0A7F805980699086303E0059835
:204DC000FEF782FCFFE702E000200690FFE70698002812D0FFE706986521002747540A98E6
:204DE0000999089A079B109C119D069E0397029601950094FEF7EDFAFFE706980BB0F0BDAB
:204E000080B586B00590049103920293002001900498059948600598006104980399884240
:204E200013D8FFE703980299401A05998969884203D3FFE70120019006E011480068059904
:204E4000091D00F067FBFFE714E003980299884208D2FFE704980299884203D3FFE7012062
:204E6000019006E0054800680599091D00F052FBFFE7FFE7019806B080BDC046841C2020C7
:204E8000901C202080B582B001901B480068019940180090009819490968884203D9FFE7EA
:204EA00072B6FFE7FEE700981449096888421BD1FFE713480068002803D1FFE772B6FFE74A
:204EC000FEE70198002803D1FFE772B6FFE7FEE701F034FF0B490868401C086001F03AFDAB
:204EE0000198401E019000E0FFE7019A024908688018086002B080BDB41E20209C1E202013
:204F0000841E2020AC1E202080B582B01848006801900198C06A1749884203D0FFE772B617
:204F2000FFE7FEE70198806B1349884203D0FFE772B6FFE7FEE711490868FF2213041843F3
:204F4000086008681206104308600D4900200090086000F0C7FD00980A49086001F0A0FFA1
:204F6000FEF726F801F040FC009802B080BDC04608ED00E0116B00005160000020ED00E075
:204F80001CED00E0701E202080B586B0049003910498002808D1FFE700F050FD014616208A
:204FA0000860002005902AE004990398484302900498002813D0FFE7039800900298049986
:204FC00001F02EF901460098884208D0FFE700F035FD01468B200860002005900FE0029898
:204FE00000F010FF01900198002805D0FFE70198029901F087FFFFE701980590FFE7059863
:2050000006B080BD82B0012001906946087017480068002804D0FFE769460020087021E0A1
:2050200013480068002804D0FFE769460020087017E010480068002804D0FFE7694600201C
:2050400008700DE00C4800680C490968491E884204D1FFE769460220087000E0FFE7FFE788
:20506000FFE7FFE76846007802B07047F81B2020C01E2020AC1E20200C1C20207C1E202018
:2050800080B584B000200390FFE7039809280CD8FFE70398142141431748401801F044FC3C
:2050A000FFE70398401C0390EFE70C48019001F03BFC0B48029001F037FC0A4801F034FC21
:2050C000094801F031FC094801F02EFC01990298074A11600749086004B080BDD01B20202B
:2050E000E41B2020F81B2020201C20200C1C2020881C20208C1C2020D816202080B588B0D3
:205100000020079000F0D0F917480068002820D0FFE7002003900690059006A805A904AA72
:2051200001F080FC039B049A0598069902910190092000900D480E4900F03EFE01460D4839
:2051400001600068002803D0FFE701200790FFE700E0FFE70798002803D1FFE772B6FFE7B2
:20516000FEE7079808B080BDB81E2020816C000090750000BC1E2020F8B5451C00780023EB
:20518000082B32D02F78C2070CD16A780F241440E41C122C0BD102242E57F4B2002E08D4AF
:2051A000EE1C0EE06D1C4A1C0F7011461AE0AE1C08E02E1DED7800957F252C40009DED01A6
:2051C0002C1912343D0112095219094DAA420ED0D243002C05D08D5C4F1C0D70641E394678
:2051E000F7E7354640085B1CCAE72846C5E7F8BDFF0F000010B5194CA821204601F082FE3F
:205200000320206160611649A1611648E0610120800220620020A0626062E06221661249FC
:2052200061661021A1662067E066606753212170452161704722A270E270217152216171FB
:205240002022A271E171542121726172A072E07220736073A073E07310BDC046A0172020D2
:2052600068750000000C2020341C202082B00020009017480068002803D0FFE7012000903A
:20528000FFE714480068C06A002803D0FFE70020019019E010480068022803D3FFE70020E9
:2052A000019010E00098002803D0FFE70020019008E00A4800680190094801680198401A63
:2052C0000190FFE7FFE7FFE7019802B07047C0468C1E2020681E2020D81620209C1E2020AB
:2052E000B41E2020F0B583B00F460821CA43056844682E46D036AF603868D021685078686E
:205300007060B868B060F868F06000207082019030750292501C7861206800F0BFFF2068FE
:2053200001F0EAF920680B494058400607D47068002808D028462146FDF7C0FE07E0029824
:20534000786103B0F0BD28462146FEF739FA019803B0F0BD1812000080B584B00390029165
:2053600001920398002803D1FFE772B6FFE7FEE7FFE7039840680090009813490A68D061DA
:20538000009880680A68106208681830009A9268506008681830009A906003980968886275
:2053A00003990868401C0860FFE70198002804D0FFE70020C0430290FFE702980199FEF7F8
:2053C0005FFB04B080BDC046681E202080B584B0039001F0A7FC0290039802994862012093
:2053E00001A900F025FAFFE70298806A002806D0FFE70298806A012101F080FAF4E7029820
:20540000FFF724FB0298007CC00700280CD1FFE7029880680023009319461A46FCF7D8F9F4
:205420000098FDF70DFB06E00298FEF74DF90020FDF798FBFFE704B080BD0000F0B581B0C9
:20544000FF2829D00C460125EF04810838220A4012498918496800911F2101408D400646BC
:2054600001F0AEF80E490A68B300D118D25813463B40002C05D0002B01D13A430A600949FB
:2054800005E0002B01D0BA430A6095214901009A51180D6001F014FB01B0F0BD4073000043
:2054A000207500009012000080B584B001F046FC11480068002819D1FFE71048029001F085
:2054C00033FA0F48039001F02FFA029903980D4A11600D490860002000900C4A0C4B0A2058
:2054E0000C21FFF75DF80449086000E0FFE701F031FA04B080BDC046B81E2020A81B20208D
:20550000BC1B2020841C2020901C202048192020581B202084B00390029102980068009068
:205520000098401C002804D1FFE703980069019010E0039808300190FFE70198406800681C
:205540000099884205D8FFE7FFE7019840680190F3E7FFE7019840680299486002984168E6
:20556000886001980299886002980199486003980299086103990868401C086004B0704771
:2055800080B584B00390029101920398009001F0D5FB009844214056401C002805D1FFE72A
:2055A0000099442200208854FFE7009845214056401C002805D1FFE700994522002088543A
:2055C000FFE701F0C7F90098806B002807D1FFE7009824300299019AFFF7BEFE00E0FFE731
:2055E0000098FEF789FD04B080BD000080B582B0FEF794FB01900198012804D1FFE7FFF7B8
:205600007DFD019000E0FFE7019801280DD1FFE772B60C4A0020C14311600B4A0121116038
:205620000A490860FFF770FC08E00198401C002803D1FFE772B6FFE7FEE7FFE70448006801
:2056400002B080BD9C1E2020B01E2020B41E2020A07500008446830706D0002A29D001706E
:205660000130013A8307F8D1042A1CD30906090E0B0219430B041943082A10D30B00102AFA
:2056800009D370B40F24161B22400C000D003AC0103EFCD870BC082A01D30AC0083A042AA3
:2056A00001D302C0043A002A03D0013A8154013AFCD260467047000085B004900391002026
:2056C0000290039800281FD4FFE7039801281BDCFFE70498002804D1FFE70E48006800902E
:2056E00002E004980090FFE7009801900198002803D1FFE772B6FFE7FEE701980399890061
:205700004018806D029002E000200290FFE7029805B07047681E2020F0B581B0002A22D07A
:2057200091235B01C3180F200402901E0090561E0020DF6927421BD00F5C1F60864210D049
:20574000DF69274211D00F187D781D60009D854207D0DD6925420AD0BD781D60C01C82420A
:20576000E7D1104604E0002002E0401C00E0801C80B201B0F0BD000070B588B004461248CC
:20578000006800281CD0114906220A700091012501950F4E02960321039169466D220A76D9
:2057A00001F062FB002808D030787178B2780004090208188018206003E06846FFF7D2F947
:2057C0000025284608B070BD7C1C2020C81820204818202080B582B00190FFE700F0FCF9F6
:2057E000FFF744FD0090009802281BD3FFE701F05FFB0D4800680D490968884203D2FFE7F8
:2058000072B6FFE7FEE7FFF731FD00900098022804D3FFE70098FCF797F900E0FFE7FBF78F
:205820000DFB00E0FFE7D9E79C1E2020B41E202080B584B00290019101F074FA00900298B8
:20584000002807D0FFE70298012803D0FFE71620039017E00098C069019908600298009931
:20586000C861029800280AD1FFE70098006A002805D0FFE70020C043FFF7A8FDFFE70020D3
:205880000390FFE7039804B080BD0000B0B530C8286811494258114B1340435010494258ED
:2058A00001239A434250687D00F0E2FD687B00F0DFFD2046143001F085F92046303001F022
:2058C000EBFA2078002803D12046803001F0E4FAE02000212154B0BD281000000000FFFF31
:2058E00028120000010C4A424A41110110224A40D040FF221202024053425341DA000823C7
:205900005340D8405118F0220240534253419A0004235340D84089180C2202405342534150
:205920005A00022389185A40D0401A1A40080123DB430343581C10400818704785B0049035
:2059400003910292039800281FD4FFE7039801281BDCFFE70498002804D1FFE70C480068A7
:20596000009002E004980090FFE7009801900198002803D1FFE772B6FFE7FEE702980199D8
:20598000039A920089188865FFE705B07047C046681E2020B0B5FF281DD0044600F010FE6B
:2059A0000D490968A2008B580725ED06AB438B50A10838220A400949891849681F2222401F
:2059C00001239340064A8C589C438C50054902220A6001F075F8B0BD2075000040730000F2
:2059E0002810000080E200E080B51148011F0A680323DB4313400B604168012291434160CA
:205A0000416812029143416001680F2291430160016830229143016000F00EFD05480168E4
:205A200004229143016004480021016080BDC04604010B4010ED00E008030B4080B582B010
:205A400000F086FD012803D1FFE71048019019E001F042F901900198002812D1FFE70420A3
:205A6000FAF778FD00900098002806D0FFE7009801F03FF90098019002E004480190FFE725
:205A8000FFE7FFE7019802B080BDC046801C202010B588B00F480068002818D00E49022289
:205AA0000A700091012101910C4C0294039169466D220A7601F0D8F9002805D0227808493D
:205AC000002001F0AFF802E06846FFF74BF8002008B010BD7C1C2020C81820204818202008
:205AE000B174000080B50C487D210902016001680A4800F095FB0A4908600A495E200860BF
:205B0000094904200860094A00201060084A094810600720086080BD781E2020FFFFFF0012
:205B2000941E2020741E202010E000E018E000E014E000E0FF7C000070B5D8304268002AA9
:205B40001DD04289002A1AD00C680D4AA3581B0715D001250B4B0DE00468651C056026705B
:205B60004468651E45604489641E44810C68A658360704D0E658002DEED10025F7E770BD60
:205B80003C1200001C12000010B58AB00F480068002812D001A930220A7009224A700291D3
:205BA000022103910A4904910021059102A96D220A7601F059F90AB010BD06490024204632
:205BC00001F030F820460AB010BDC0467C1C2020481820208073000080B582B0FFE70F48AA
:205BE0000068002818D0FFE701F0A8F80C48C068C06801900198001D00F072F909490868AE
:205C0000401E086005490868401E086000F0A2FE019800F009F8E2E702B080BD801E20208A
:205C2000201C20207C1E202080B582B0019001986521405C002808D1FFE70198006BFDF77C
:205C400043FD0198FDF740FD14E001986521405C012804D1FFE70198FDF736FD09E0019865
:205C60006521405C022803D0FFE772B6FFE7FEE7FFE7FFE702B080BD80B584B003900291E2
:205C800010480068C068C06801900198001D00F027F901982821405C4007002806D5FFE7EF
:205CA00001980399029A00F06FFC06E001992822885CFE2318408854FFE70198016A8847FC
:205CC00004B080BD841C2020B0B582B005460F48006800280DD001A900220A8001F030F9DD
:205CE0004442444100280AD00949002000F09AFF09E008490024204600F094FF03E0002D45
:205D000001D001982880204602B0B0BD781C2020637400001074000080B584B00290029828
:205D20000F49884209D3FFE7FFF788FE0146162008600020C04303900EE002980949401836
:205D40007D21C90000F06CFA01900198401C00F00BF800200390FFE7039804B080BDC046E2
:205D600040420F00E703000080B582B00190002000900198002812D0FFE701F099F80D48A0
:205D80000068012803D0FFE772B6FFE7FEE701980021FDF775FEFBF751F8009000E0FFE714
:205DA0000098002803D1FFE700F0D4FF00E0FFE702B080BD841E2020F0B58BB0129C119CD4
:205DC000109C0A90099108920793002006900A980999089A079B109C119D129E06AF039718
:205DE000029601950094FEF7C6FC05900598002804D0FFE70598FCF7FBFC00E0FFE706982B
:205E00000BB0F0BD80B584B002900298002808D1FFE7FFF713FE01461620086000200390FF
:205E200012E00298FAF796FB01900198002808D1FFE7FFF703FE01460C20086000200390BE
:205E400002E001980390FFE7039804B080BD0000B0B50A480A4941600A4A51600A4B596004
:205E60000A4C61600A4D69600A4901601160196021602960102001F068F8B0BD00080A4003
:205E8000030000B100280A4000280F4000080F40000800400100002680B586B005900F4848
:205EA000029005980299884205D2FFE7059803900020019006E00298039005980299401A0B
:205EC0000190FFE703997D20C000484304900498401CFFF749FF019806B080BD3789410070
:205EE00082B00190019800690090019988684968886001994868896848600098406801996D
:205F0000884205D1FFE7019880680099486000E0FFE701990020086100990868401E086081
:205F20000098006802B07047B0B588B00D9C0C9C079006910592049307980699059A049B32
:205F40000C9C0D9D01950094FEF718FF03900398002806D0FFE70398FCF74AFC0120029020
:205F600003E00020C0430290FFE7029808B0B0BD80B584B003900398002804D1FFE70D4815
:205F80000068009002E003980090FFE7009802900298002803D1FFE772B6FFE7FEE700F08D
:205FA000CDFE0298406D019000F0D4FC019804B080BDC046681E202010B584B0069C0390FA
:205FC00002910192684603700298002803D1FFE70698006003E0019806990860FFE70398FC
:205FE0000699C86302980699086406980121FDF7B9FD009806994C22885404B010BD80B591
:2060000086B00590049103920C20FFF7FBFE02900298002812D0FFE702980599049A039BE0
:20602000FEF70CF801900198002806D1FFE7029800F02AFF00200290FFE7FFE7029806B0D7
:2060400080BD80B5016801228A71FDF72FFC80BDEFF309800E4A1168243808607346F8C07A
:2060600044464D4656465F46F0C072B6FCF7A0FF62B6074A116808681430F0C8A046A94635
:20608000B246BB4680F309882438F8C81847C046681E202080B582B0019000910198006C2E
:2060A000002817D0FFE701990A6CC8688018C8600199C8688968884204D3FFE7019908689F
:2060C000C86000E0FFE70098019AD168126C00F047FFFFE702B080BD80B582B0FFE70D483B
:2060E0000068006800280BD0FFE70A480068C0680068019001980021C943FFF7BDFDEEE7C1
:20610000044A106800900449086810600098086002B080BD841C2020901C2020B0B50C4D83
:20612000284600F099FE00242046294600F018F808490860411E05468D41002801D10749F6
:2061400000E00549204600F06DFD2846B0BDC046641C2020781C2020337000008C7100003C
:2061600080B50B4A13780022012B0ED1094B1B7883420AD9002900D107490C224243074BFF
:2061800098189A58926990470246104680BDC046C81E2020637100007875000050750000FE
:2061A000F0B511221302C2180C780B4D46590B4F374003262640BC19A9263606A41944510B
:2061C0004C68C55807263606B54334402C19C45048781061F0BDC04608080000FCFFFF00D2
:2061E00080B584B00390029100220192039B0320009001201146FEF7D3F90190019800287F
:206200000BD0FFE70298002807D0FFE70198002319461A46FBF7DCFAFFE7019804B080BD8B
:206220001CB50A0017D000230124E407A04200D20400944201D95200FBE790425B4190428D
:2062400000D3801A914201D25208F6E719000200080011001CBD01000020FEF700F91CBDFF
:2062600010B580682822825C006A042A04D0022A05D10224074A04E00024FF2201E0042432
:20628000054AE0404143500808181146FFF7C8FFA04010BDFF030000FF0F000070B50D4D43
:2062A00041190F2212020123DC02465980231E43465148681040A04207D048681040A04268
:2062C00003D048681040A042F3D108689843086070BDC0463812000070B50D4D41190F220B
:2062E00012020123DC02465980231E43465148681040A04207D048681040A04203D0486830
:206300001040A042F3D108689843086070BDC0466C12000080B582B0019000F081FD00902D
:2063200000980A490968884206D2FFE7FFF7D4FE01990120086003E0019900200860FFE7A3
:20634000009802490860009802B080BD641E202070B50A480A4C84420CD00A4D0A4EB54294
:2063600008D02A686968501C12789200A25890470835F4E700BF00BF70BDC046D475000077
:20638000C8750000E4750000FC750000FCB4020C0B0CFF242402FF34204021400C00444351
:2063A00015005D4306005E430F005743320C3B0CA818C01832043B040025A1186841C918DE
:2063C0006841FCBC704783B0029001910298406800900098019948600098806801998860A0
:2063E000019800998968486001980099886002980199086102990868401C086003B07047E2
:20640000B0B5446800F0DCF8217800290BD008490A88521E0A80110405D10649054608465A
:2064200000F03AFD28460021217000F049FBB0BDC41E2020081B2020B0B50B4801225104BF
:206440000A4B1C689502AC431C605C68120594435C6002680A4205D002680A4202D0026876
:206460000A42F6D1B0BDC04604020B4000010B4070B5FF2814D00446FFF78CFA094D28681D
:20648000A6008159204600F065FD68688159002902D0801900210160A868A100002242509F
:2064A00070BDC0462075000080B584B0EFF30580039003981038029002988100074840583A
:2064C00001900198002807D0FFE7019841688068884700F03FFCFFE704B080BD8C1D2020C9
:2064E00080B582B001900021009101200322FEF78EF90090009800280BD0FFE7019800285E
:2065000007D0FFE70098002319461A46FBF760F9FFE7009802B080BD82B001900B4800680E
:206520000068414248410199086001980068002806D1FFE705480068C0680068009002E048
:2065400000200090FFE7009802B07047841C202081B00B480068002803D1FFE70120009045
:206560000BE008480068002803D1FFE70220009002E000200090FFE7FFE7009801B0704786
:20658000B01E2020841E202080B584B0039002910192FFE70398029B81695918019AFEF7E0
:2065A0002FFC002809D0FFE7039881690298401802900398016A8847ECE704B080BD000027
:2065C00080B582B00A4800680006002805D1FFE700F0B4FB0020009006E0EFF31080019078
:2065E0000198009072B6FFE7009802B080BDC04604ED00E081B001466846017000214056B8
:2066000000280DD4FFE7684601781F2001400120884004490860BFF34F8FBFF36F8FFFE720
:2066200001B0704780E100E084B0029001910198006800900098092804D8FFE7009800287D
:2066400003D1FFE71620039005E000980299086000200390FFE7039804B0704780B582B031
:20666000019000910198002803D1FFE772B6FFE7FEE70198054909681831FEF74BFF009812
:206680000121FDF7FDF902B080BDC046681E202080B584B0039002910398002804D1FFE726
:2066A00007480068019002E003980190FFE700F045FB02980199486500F04CF904B080BD67
:2066C000681E202080B582B00190019800900098002803D1FFE772B6FFE7FEE70098462167
:2066E000405C002804D1FFE70098FCF7EDFF00E0FFE702B080BD000010B50A4BC118C458E0
:206700000122D2031443C4504868000705D04868000702D048680007F6D1086890430860D8
:2067200010BDC0463812000010B50A4BC118C4580122D2031443C4504868000705D048688E
:20674000000702D048680007F6D108689043086010BDC0466C12000081B00A4800680006F5
:20676000002804D1FFE769460020087003E0694601200870FFE7684600780121084001B09D
:206780007047C04604ED00E080B582B000F0ECFB0190FAF74BFA002805D0FFE7012000075B
:2067A0000449086000E0FFE7019800F0E7FB02B080BDC04604ED00E00948006800680028E4
:2067C00005D1FFE707490020C043086006E004480068C068006803490860FFE77047C046A1
:2067E000881C20209C1E202081B00020009009480068401C002803D0FFE772B6FFE7FEE7F1
:2068000072B6FFE70098002801D1FFE7FAE701B07047C046701E202080B582B0019000F0ED
:206820008DFA0198806B0199C96B884203D1FFE70120009002E000200090FFE700F08AF860
:20684000009802B080BD83B0019000910098002807D0FFE70098012803D0FFE7162002909D
:2068600005E000980199086100200290FFE7029803B0704780B584B00390039880690290EA
:206880000298801E017801A801700078642803D1FFE700F075F902E072B6FFE7FEE704B088
:2068A00080BD80B582B00190FFF756FF002807D1FFE70198002319461A46FAF789FF04E09A
:2068C00001986946FCF766FAFFE702B080BD000081B001466846017000214056002809D4F5
:2068E000FFE7684601781F2001400120884002490860FFE701B0704700E100E080B584B0F7
:206900000390029103980068019003980069019988620298002805D0FFE70398416880688C
:206920008847FFE704B080BD81B000900099084608304860009A0020C1439160009A114689
