:20000000008020209190000097260000F58B000000000000000000000000000000000000C2
:20002000000000000000000000000000418B00000000000000000000018000006987000083
:200040009726000097260000972600009726000097260000972600009726000097260000B8
:200060000000000097260000972600000000000000000000972600009726000097260000CF
:200080009726000097260000972600009726000097260000972600000000000000000000F2
:2000A00097260000972600000000000000000000972600000000000097260000972600008F
:2000C00098B0DB4E304608F071FF0124347200252846314601F00EFFD64F3860002824D025
:2000E000D549284608F0C6FDD449284608F0C2FD08F0E2FED2490860D24810901194D249A2
:200100001291139510A96D250D760470386808F001FF00280ED0CD4801210170CC49CD4AE0
:2001200000206D2308F0A6FD07E0CB49002008F0A1FDFEE710A806F01DFCC44E3078002835
:2001400000D14BE1C5490020099008F093FD31780029284600D1084610A90876C04808F0BD
:2001600079FE3078002800D10546BD4E3570BD4807F08CFDB34AAF4F38684026B24D009552
:200180000196B74F029710A91746334603F0E8FD0028089600D029E100252846B24908F09C
:2001A00069FD14232846A84DB049224608F062FDAF4807F06BFD9F48006800950196A849C5
:2001C000029110A93A46334603F0CAFD002800D00CE100252846A44908F04CFD641C1423C3
:2001E0002846994DA149224608F044FDA04807F04DFD90480068009501969949029110A95D
:200200003A46334603F0ACFD002800D0EEE000252846954908F02EFD641C142328468A4DF3
:200220009249224608F026FD914807F02FFD81480068009501968A49029110A93A463346EF
:2002400003F08EFD002800D0D0E000252846864908F010FD641C142328467B4D83492246F0
:2002600008F008FD824807F011FD72480068009501967B49029110A93A46334603F070FDFB
:20028000002800D0B2E000252846774908F0F2FC641C142328466C4D7449224608F0EAFCBA
:2002A000734807F0F3FC63480068009501966C49029110A93A46334603F052FD002800D02A
:2002C00094E000252846684908F0D4FC641C142328465D4D6549224608F0CCFC644807F056
:2002E000D5FC54480068009501965D49029110A93A46334603F034FD002877D100252846EB
:20030000594908F0B7FC641C142328464E4D5749224608F0AFFC564807F0B8FC45480068E7
:20032000009501964E49029110A93A46334603F017FD00285AD1002528464B4908F09AFCA6
:20034000641C14232846F94DFD49224608F092FCF84807F09BFCF348006800950196F64922
:20036000029110A93A46334603F0FAFC00283DD100252846F14908F07DFC641C14232846B6
:20038000EA4DEF49224608F075FCEA4807F07EFCE448006800950196E749029110A93A46BE
:2003A000334603F0DDFC002820D100252846E34908F060FC621C14232846E14908F05AFC31
:2003C000DC4807F063FCA41C152C3A4600D0D2E6DC49002008F04EFCD44D10E0D4490020C5
:2003E00008F048FC386807F033FAFEE7D24842788378C0780090D449002008F03BFCCA4CFF
:20040000089F04E015460020E04908F033FC099EF243012130460A9104F0CAFC0FA8067090
:200420000EA806700D960C96C34E2A462CE0C046D41D2020201E2020CD980000B49500005B
:2004400084202020D01C2020901C2020261E202013930000789900007698000020950000A2
:20046000E41D2020A0860100FF910000AA92000050C300000020B14908F0FCFBAB4A0A9895
:20048000401C0A900428BDD00BA909980870A54D2868009201970296039110A922463B4666
:2004A00006F0BDF8002800D18BE00BAD2A780020A84908F0DFFB2A78092A00D0A3E0994CE3
:2004C00020680FAF7D21CA00984E0096089D0195994E0296A149079203AB86C310A9924E25
:2004E00032462B4605F07CFC3A78002800D1AFE000209C4908F0BEFB20680EA902228B4B7D
:20050000009301950292039110A932462B4607F0CBFA00282F4605D00EA80278002092498F
:2005200008F0A8FB20680DA9804D00950197824D0295039110A926467B4C22463B4606F023
:20054000F5FE002800D1A2E030680CA9774A009201970295039110A922463B4605F044FDF2
:20056000002800D1AAE00D9A00273846814908F081FB0C9A3846804908F07CFB0D982E46F9
:20058000297A08F0C3FBC1170546079A3B4608F0FBFA7A4A3B4608F071FC034671680129DA
:2005A00000DAA1E02846079308F01AFA0746706800970190002073492A46079B08F05AFB44
:2005C00098E0354600203022614908F053FB10AE304606F0CFF9534800685449009101970B
:2005E0000295314622463B4603F0BAFB00282E4600D13FE77278B378F07800900020524901
:2006000008F038FB3AE70020534908F033FB45480068464D0095089F0197474E029610A96A
:20062000414C22463B4603F09BFB002808D07278B378F07800900020434908F01BFB03E011
:2006400000203E4908F016FB404807F01FFB15E703200090002042490A9B08F00BFB2068CC
:20066000324900910195344C029410A932462B4603F076FB002826462F4618D07278B378B6
:20068000F07800900020304908F0F4FA13E0002006220823354908F0EDFA10AD284606F0FF
:2006A00069F9306821490091234E019713E00020224908F0DFFA1D4A1B4CE0E600202C49C4
:2006C00008F0D8FA10AD284606F054F93068174900910197184E0296294622463B4603F078
:2006E0003FFB002886D1C5E6002025492A4608F0C1FA2F46384608F03FFB0D980C99014332
:200700000A4D00D07CE6002003231F490A9A08F0B1FA044F38680095089F0197029610A943
:200720007FE7C046201E2020D01C2020901C2020D497000050C30000E41D2020FF91000068
:20074000AA920000009100004393000010270000FB9500008E980000A0930000B80B000013
:20076000C39100009095000060960000E0920000D895000023970000E4960000FFFF7F007A
:200780008591000039920000459100007E970000F0B595B0002800D112E204460292039342
:2007A000084608F0DFF92269636903F061FF276866680025059004912A462B4606F052FF9D
:2007C0001490FE4B13973846129631462A4602F086FC02461498002800D16BE20B46059ED3
:2007E0003046049F394606F01FFF002800D161E2A268E3683046394604F030FE04460D4608
:200800001398129932463B4602F064FC02460B462046294603F02CFF06460D460024E94BB4
:20082000224606F015FF00281296019500D0E1E10120C00711904540E34F002014900C241A
:200840000E9513970694149C2046394622463B4604F004FE05460E46204639462A463346D0
:2008600004F0FCFD10900F9120463946D74AD84B04F0F4FDD74AD84B02F031FC07460D91EF
:2008800000240C9528460B9631462246D34B04F0E5FD06460D4610980F992246D04B04F04B
:2008A000DDFD32462B4602F01AFCCE4ACE4B04F0D5FD3A460D9B02F012FC2246C14B04F0E6
:2008C000CDFD04460D46119881432046C74AC84B06F0AAFE002800D0BCE10026149F384630
:2008E00014970D95139D29463246F54B02F0F7FBBC4ABD4B04F0B2FD089007913846294622
:20090000F54AF84B04F0AAFD3246099434460A96EC4B02F0E4FB06460F460C980B99EA4A66
:20092000F74B04F09BFD32463B4602F0D8FB06460F4608980799109A0F9B04F08FFD3246FE
:200940003B4602F0CCFB2246DC4B04F087FD129A0E9B02F0C4FB099A0D9B03F089FE024643
:200960000B461498294602F0B5FB05460C4602460B4604F073FD06460F46284621463246E1
:200980003B4604F06BFD10900F911495284613942146CD4AD24B04F061FDCF4AD14B02F068
:2009A0009EFB0D900C910B963046099739460A9E3246CD4B04F052FD05460C4610980F99C6
:2009C0003246CA4B04F04AFD2A46234602F087FBC74AC84B04F042FD0D9A0C9B02F07FFBF1
:2009E0003246B64B04F03AFD04460D46119881432046C14AC14B06F017FE002800D029E1BF
:200A00000022149E3046139F39460D941446AC4B02F065FBB64AB74B04F020FD08900791D4
:200A200030463946AC4AAF4B04F018FD22460A9525460C94A34B02F052FB04460F460B9847
:200A40000999A14AAE4B04F009FD22463B4602F046FB04460E4608980799109A0F9B04F0D4
:200A6000FDFC2246334602F03AFB2A46934B04F0F5FC129A0E9B02F032FB0D9A0A9B03F08F
:200A8000F7FD02460B461498139902F023FB04460F4602460B4604F0E1FC05460E46204653
:200AA00039462A46334604F0D9FC13901091149420463946844A8A4B04F0D0FC864A894B2D
:200AC00002F00DFB0F900D910B9528460A9631460C9D2A46844B04F0C1FC06460C461398D8
:200AE00010992A46814B04F0B9FC3246234602F0F6FA7F4A7F4B04F0B1FC0F9A0D9B02F02E
:200B0000EEFA2A466D4B04F0A9FC05460E46119881432846784A794B06F086FD002800D0BB
:200B200096E000220F92149C20463946644B02F0D6FA6F4A6F4B04F091FC099008912046EA
:200B40003946654A674B04F089FC0F9A5D4B02F0C6FA0D9504463D460C960E460B980A998E
:200B6000594A674B04F07AFC2246334602F0B7FA06460F4609980899139A109B04F06EFC99
:200B800032463B4602F0ABFA0F9A4C4B04F066FC129E32460E9B02F0A2FA0D9A0C9B03F08F
:200BA00067FD02460B461498294602F093FA14900F460698C41E4FD043E6C0460000F0BF28
:200BC000002577E000005940000034C088CE19EEAF60B3BE1C64ED4A2602703F00C072C0AF
:200BE00000001040FA5FD7A9A36592BD11EA2D819997713D324B30462946224603F038FDFC
:200C0000304B224602F06BFA2F4D304B2A4604F025FC2F4A2F4B02F062FA07460E462246D4
:200C2000234606F001FD01460028204600D13846002900D13446214602F0DEFB264A274BAB
:200C400002F04DFA264B2A4603F012FD14900F46129E01E0129E139F00222A4B14983946CA
:200C600004F0FCFB06F072FF029A002A039D08D02549884200DB08462449884200DC084622
:200C800010801A9C002D059F0AD00022204B3046019904F0E3FB06F059FFC117884328607B
:200CA0000125002C06D03846049906F04FFFC11788432060284615B0F0BDC046000059400B
:200CC000000059C00000F03F88CE19EEAF60C33ED828C9DF4C04F03E1C64ED4A260270BF2B
:200CE000AF60B3BE2602703F00C072C000001040FA5FD7A9A36592BD11EA2D819997713DA4
:200D0000AF60A3BE00002440FF7F00000080FFFF00408F40F0B59FB006920E460024E143CC
:200D200004910AA91A9140211B911C9403901E901D9406E02B4600F0C9FD1D9C002C00D54A
:200D40002AE23178761C25290BD0002900D113E21C9B581C1B9A904252D918469042ECD16A
:200D600058E0002731780A46233A0D2A14D802207A44127952009744090F0F0F0F0F0F0F91
:200D80000B0F0D0F0F060743761CEBE70820FAE70420F8E70120F6E709940A463A3A0025CA
:200DA0000920C043824202D22C4632460CE00024721C0A235C436418303C71780E463A3E7E
:200DC000DB439E421646F3D82E2907D1537819463A39814200D35CE0561C00E016463078FA
:200DE000FB2102460A40682A1FD1707802460A40682A1CD1B0780140F61C6829EFD017E008
:200E00001A9AD1541C901D99491C1D911B9A904200D092E71E981A9905F0E0F91C998842FE
:200E200000D0A7E100201C9087E7761C00E0B61C0146583920294DD87944097949008F443B
:200E400011101010101010101010101B6010101010101010101010108210108E1056101000
:200E600011006AE7069A1068011D11600168009401971AA810225DE706990B68181D0860ED
:200E80001C99481C1B9A90422CD81A681A9B5A54B8E7961C00250A214D43ED18303D32787C
:200EA00013463A3B834200D299E74D43AD18303D727813463A3B834200D281E04D43AD1886
:200EC000303DB3781A463A3AF61CC9438A42E2D8761E84E7252800D02FE71C99481C1B9A02
:200EE00090427CD90846904200D026E792E7069A1068011D11600168009401971AA80A222B
:200F000018E7069A1068011D11600168C81705914140081A0A2855DB0323642800D2BBE029
:200F2000C1087D294FD37D21C9000893079007F02DF9089BDB1C9B49079A8A42EDD89B1E01
:200F4000AB4242D942E0069A1068011D1160016800200823009301901AA81022EBE6069A83
:200F60001068011D1160006800288D4C00D00446099D0EE01E981A9905F030F91C9988424D
:200F800000D0F7E000201C901D9D641C002D00D5D3E62178002900D1CFE61C9B581C1B9AC1
:200FA000904203D918469042EFD1E3E71A9AD1541C901D994D1C1D951B9A9042E5D1D9E776
:200FC000761C0CE70123AB4200D82B46002C04D00598002807D4002006E0002109E01A9ACE
:200FE000252353540EE701200421394089080143611A02243C40089314D0002D12D109982C
:20100000002800D599E6059800283DD4780776D507911C99481C1B9A90425ED90846904225
:201020004FD066E0F807EAD10029E8D0079411E01E981A9905F0D2F81C99884200D099E034
:2010400000201C901D980990099800282146089B00D572E64C1E8C4222D28B4220D21C99D6
:20106000481C1B9A904203D908469042ECD1DFE71A9A202353541C901D99491C09911D9159
:201080001B9A9042E0D1D3E707911C99481C1B9A904207D908460FE05B1EAB4295D995E7B9
:2010A000079CACE71A9A2D235354089B1C901D99491C09911D911B9A059949420591904257
:2010C00017D11E981A9905F089F81C99884251D100201C901D98089B0CE01A9A2B235354EF
:2010E000089B1C901D99491C09911D911B9A9042E7D0099807990990002800D51DE6002CFA
:2011000005D1009101971AA80A22059912E6012038402843F5D1002911D1F2E71E981A9935
:2011200005F05CF81C99884224D100201C901D980990089B09980028214600D5FDE54C1EE4
:201140008C42DED28B42DCD21C99481C1B9A904203D908469042EDD1E0E71A9A30235354C7
:20116000089B1C901D99491C09911D911B9A9042E0D1D3E7049C0FE0002C09D01C9A002A57
:2011800008D00AA9039805F029F81C981D9C02E0002401E00020241820461FB0F0BDC0467B
:2011A000889900000F27000080B592B0119000200D900B90119800282AD0FFE711980821E5
:2011C000C943884220D8FFE711980830119011A800784007002815D0FFE71199072001405C
:2011E0000820401A0C9011980C99C943884205D8FFE70C9911984018119002E00020119000
:20120000FFE700E0FFE702E000201190FFE700E0FFE707F0A5FE82480068002803D1FFE725
:2012200005F02CF800E0FFE711A8C0780006002800D5E5E01198002800D1DFE0119879494A
:201240000968884200D9D9E077480F900068109010990020754A91420A900FD3FFE71099F5
:201260007248734A82180120002308939142099001D90898099009980A90FFE70A98C00775
:20128000002803D1FFE772B6FFE7FEE7FFE710984168119A00209142079006D2FFE71098A7
:2012A0000068411E88410790FFE70798C007002824D0FFE710980F90109800681090109919
:2012C00000205A4A914206900FD3FFE710995748574A82180120002304939142059001D979
:2012E0000498059005980690FFE70698C007002803D1FFE772B6FFE7FEE7C8E71098484982
:201300000968884278D0FFE70F98006808300D900D990020454A914203900FD3FFE70D9957
:201320004248434A82180120002301939142029001D90198029002980390FFE70398C00745
:20134000002803D1FFE772B6FFE7FEE7109800680F990860109840681199884203D2FFE719
:2013600072B6FFE7FEE7109840681199401A11281ED3FFE71098119940180E900EA80078A0
:201380004007002803D0FFE772B6FFE7FEE7109840681199401A0E99486011981099486095
:2013A0000F9800680E9908600E980F99086000E0FFE7109842681B480168891A0160006809
:2013C0001C490968884205D2FFE7164800681949086000E0FFE7109840680B901099486816
:2013E0000122D2071043486010990020086012490868401C086000E0FFE700E0FFE700E0CA
:20140000FFE700F07BFC0DA800784007002803D0FFE772B6FFE7FEE70D9812B080BDC0468D
:20142000A0202020C4202020F01D202000002020FF0B0000CC202020D8202020F0B583B0B5
:20144000874D2A78012A08D1047886490C7000234B70CB718B708B8101E082490C780023D7
:20146000D9437F2C0FDC042C5AD8C0467C4424796400A74402492F402300012A4DD0032A54
:201480004DD1552146E0802C0DD0812C28D0822C46D1032A47D0012A3DD178480370764831
:2014A000037003263AE0012A37D0032A33D16F490978012900D08DE06D492AE00021032A65
:2014C00078D0022A61D0012A2AD1664803214170022623E0012A20D0032A20D1714918E0A8
:2014E000012A1AD0032A16D160490978012900D0B1E064490DE0032A31D0012A0BD15F4898
:2015000000210170032609E0012A06D0032A06D1554909780170042600E003262E700021A0
:20152000084603B0F0BD5149097803260129F5D14F490978D12910D14E490A78002A0CD0B6
:201540004D4A012414704D4A147809788C4204D211784B1C13704A4A535C0370DEE7434989
:20156000097803260129D9D1424B1A780021002A09D0424A14781B789C4204D211784B1C5B
:2015800013703F4A515C0170C8E7364AD47953789C42C5D20078661CD6711419E070D0795E
:2015A0009842BDD1D07851792F4B1818906091700326B3E72B4A938994780426A342ADD228
:2015C000007894685F1C9781E054908992789042A4D0A5E700782649087008782949002466
:2015E0000C7024490C700426D12897D12348047021480470244800682449086024480068C2
:20160000244A106008682449086010682349086007F0D8FC00280BD0029402AA214601F0F3
:2016200013FA0298002803D0012000071C49086007F0C2FC002800D170E7019401AA214667
:2016400001F002FA0198002800D167E7012000071349086062E700780A4908705BE7C046FD
:20166000271E2020C41D2020901C2020FE20202001212020FF202020FC20202000212020FC
:2016800000142020022120207C202020882020207420202080202020942020209020202037
:2016A00004ED00E0FD202020F0B591B005460020C343FF2D22D00C4676490978A9421DD815
:2016C00075490978A94219D3002C00D5E0E0039301200C9080060A906F09F8006F49081878
:2016E00026016F4921406F4BC9188B0C089207970B9506D1890B6C4A515803E0184611B0D4
:20170000F0BD0021069140680490E0B2059037460A9807400C9EF0040D90254634062C404F
:2017200006F024FFE903099036D41F200B990840864060000321090529405D4A89184A4241
:201740004A4111050143089801433943069A114380220A4305998900544B5A5001282C4656
:2017600002D1544804990E500A9606F0FFFE52490A680B9DAB00D118D25813460D9F3B4079
:201780003C42079F17D1002B0C9E02D00D9B9A430A609521490115E00194059B029770066E
:2017A00004902A090321480628400A9CA0422C460FD000210EE0002B0C9E02D10D9B1A43F3
:2017C0000A603E49049A0A9B535007F093F909982BE0C9060A911F46B1040D9B1A40F30684
:2017E000049DA8421D4600D00A9D3007284080180D9A5040089A1043029A1043069A10433F
:2018000080310143BA002948815001462B4080581843885001980028079F09980B9D04D096
:201820008A181168049B1943116007F063F9A000400F20D0BE4006F099FE21490A78164220
:2018400002D007F057F916E032430A7007F052F90EAE304607F03BF90E971748C0680F9020
:2018600018490120324606F0A8FB002803980FD01548022101602846214604F05FFB06F039
:2018800075FE0D490968AA008C5007F033F9002011B0F0BD6B9500008196000084960000A6
:2018A0000000FF070000FDFF94960000048042400000E0FFD0120000E0980000901200001B
:2018C00005212020AD4F000000E100E0F0B587B01E46914205900391069202D203460124CF
:2018E00018E003240846114606F050FC069A90420ED3114606F04AFC069A904209D3114657
:2019000006F044FC069AE41C9042ECD2A41E00E0641E059B0D980C99B44200D834460127E3
:2019200005463D400029019502943CD0002D3AD10D462021800703D40C46002E03D103E01D
:201940003024002E00D00C46294606E0002098602946D8680028069A25D4002923D0029850
:20196000884220D20D465A689968481C904201D9084606E01A6854549860D968491CD96050
:201980005A682946691E9042E3D10D461869196804F024FC059B99688842D7D00020C0436B
:2019A000D860069A2946D868049000286BD4039C009101E0761E5743022E01D3761E06E0E8
:2019C0002046394606F0E2FB069A904217D35743012E01D9761E06E02046394606F0D6FB2A
:2019E000069A90420BD35743012EE3D82046394606F0CCFB069A90420598DCD200E0059837
:201A00008468039D03952846394606F0BFFB0646621C059B5868824205D922460499824270
:201A20000CD0144615E03048805D196808559A60D868411CD96058688242F2D1186919682F
:201A400004F0CCFB05998C68A04211D100248C60C9680491002906990ED47E43039DAD1BCC
:201A6000384606F093FB06998F420746CAD203E00020C0430490C86001980028059B00994F
:201A800001D0002906D107B0F0BD1446049100292946F8D44D1E8D42F5D202988842F2D295
:201AA000621C5868824204D9224604998242ECD109E01868202101559A60D868411CD960F1
:201AC00058688242E1D11869196804F087FB059B9968884203D100249C60D968D6E70020DB
:201AE000C043D86007B0F0BDF098000010B588B00020059076480068002800D0DFE0764971
:201B00000868401C049004980860049800281AD1FFE7FFE7714800680068002803D0FFE77C
:201B200072B6FFE7FEE76D4A106803906C4908681060039808606B490868401C086006F07A
:201B40002BFEFFE700E0FFE7049867490968884200D2AAE0FFE7614800680068002805D170
:201B6000FFE761490020C04308609DE05B480068C068C068079007984068069004980699C3
:201B8000884204D2FFE70698574908608CE0FFE7FFE70798406902900799C868896888605E
:201BA00007998868C9684860029840680799091D884205D1FFE70798C06802994860FFE73E
:201BC00007990020486102990868401E0860FFE70798806A002821D0FFE7FFE70798806AEE
:201BE00001900799086AC96988600799C869096A48600198406807991831884205D1FFE78C
:201C00000798006A01994860FFE707990020886201990868401E0860FFE700E0FFE7FFE787
:201C2000FFE70798C06A31490968884205D9FFE70798C06A2D490860FFE7FFE7FFE7079884
:201C4000C16A14221046484329490818406800900098079B986000988068079BD86007984D
:201C6000001D009B9B6858600798001D009B9860079BDC6A10466043081858610798C06A1F
:201C800042438858401C8850FFE7FFE70798C06A18490968C96A884203D9FFE701200590CF
:201CA00000E0FFE7FFE756E7FFE713480068002803D0FFE70120059000E0FFE704E0054903
:201CC0000868401C0860FFE7059808B010BDC046B8202020E0202020E82020200C1E2020B8
:201CE000101E2020D4202020D0202020C0202020C01820209C202020F420202010B588B08D
:201D0000002000900790069007F05AF80098059070480068002803D1FFE772B6FFE7FEE77B
:201D20006C480168491E01600068002800D0CAE069480068002800D1C4E0FFE76748006801
:201D4000002800D188E06548C068C0680790FFE70798806A04900799086AC96988600799BF
:201D6000C869096A48600498406807991831884205D1FFE70798006A04994860FFE7079990
:201D80000020886204990868401E0860FFE7FFE70798406903900799C86889688860079976
:201DA0008868C9684860039840680799091D884205D1FFE70798C06803994860FFE707993A
:201DC0000020486103990868401E0860FFE7FFE7FFE70798C06A45490968884205D9FFE760
:201DE0000798C06A41490860FFE7FFE7FFE70798C16A1422104648433D49081840680290B5
:201E00000298079B986002988068079BD8600798001D029B9B6858600798001D029B9860CD
:201E2000079BDC6A10466043081858610798C06A42438858401C8850FFE7FFE70798C06AF1
:201E400029490968C96A884204D9FFE725490120086000E0FFE771E70798002803D0FFE74A
:201E600006F09AFCFFE71E48006801900198002817D0FFE7FFE7FFF739FE002804D0FFE70E
:201E800018490120086000E0FFE70198401E0190FFE701980028EED1FFE7114900200860DC
:201EA00000E0FFE70F480068002809D0FFE701200690FFE70C48006806F08EFFFFE700E014
:201EC000FFE7FFE700E0FFE706F04AFD069808B010BDC046B8202020B0202020781D20200D
:201EE000E0202020F42020209C202020C0202020C0182020F0B58BB0704A1278002482420E
:201F00000DD90691C0006E490F187D680E5806F02DFBE021715C002904D006F0EBFD20462E
:201F20000BB0F0BD324605973146E031069E002E049200D1654E2F4601220C4603920A70B8
:201F400006F0D8FDF1680029069601D0084601E038460C305B4E002901D0491C01E0394676
:201F6000143109780078254620736173787B397B574C09193A69FFF797FB787D397D0919ED
:201F8000BA69FFF791FB06990878049C207048686060087A0295A86038684E4D411942598C
:201FA000324042514848086207AE304606F08FFD05980790B8680890204614307968464A6E
:201FC000334603F043FD20463030039906F0BEF821462078002807D108468030002106F033
:201FE000B5F804993D4848603846203004907D20C00006900024CC600C618C603868411972
:202000004259304B1A4042512F4A0A62344D44513A7F0AA90A707A7F4A7006F045FD3E684B
:2020200070190190745102998868022805D0012806D104241920000104E00A24069801E044
:202040006420039C234D88600AA84078411C7A8C101806F09BF8214606F098F8401EC0B2CA
:2020600001990861304606F0EFF8386806F034FB39681C4808184919049D2A7803690724E4
:20208000A34322409A180261FA8B03692402A34322409A1802616A78002A03D002680423FF
:2020A000134303600A68069B9F3313430B60016801220A43026005980BB0F0BD8396000068
:2020C000709900000000FFFFFFFF000000990000000001012810000099260000458F000095
:2020E0001412000028120000F0B589B01746089107900024E1437348019104F0F5FB002F6D
:2021000063D001200290781E032106F03FF8481C0328049400D004900090029800020690A5
:20212000032F63D2009803284FD000200CE091005918674A8958039A5200089DA952A41C67
:20214000801C0499884240D0A100079A515889680B685D4A9F185D4D5A59069E32435A519E
:202160005C2205928D5CAE4039680E4205D139680E4202D139680E42F6D0A9005918544A79
:2021800089586500089E71530146029D2943049DA9421AD0611C03918900079B59588968E9
:2021A0000B68494D5D19494A9E58069F3E439E50059A8A5C974029680F42B8D129680F425A
:2021C000B5D129680F42F6D0B1E73F495818595841250D4001D00021CD43019A8169826173
:2021E000384806F04EFB284609B0F0BD0498381A039000240AE0900018183549405879006E
:20220000089A5052E41C039884428BD0A1000798415889680B682C481F182C481A58069E4C
:2022200032431A505C2005900D5CAE4039680E4205D139680E4202D139680E42F6D0A9006C
:2022400059182348095863000898C152631C99000798415889680F681B483D181B4ABE5840
:2022600006980643BE50059A8E5C0146B1402868014205D12868014202D128680142F6D0C0
:20228000B0003818124940585900089B5852A71CB80007990858806803680B495D180B4AB9
:2022A0009958069E314399500599425C31469140286801429FD1286801429CD12868014252
:2022C000F6D098E7F01B202030100000041100008062550086B06C4F04A80021018003910F
:2022E00001910091694D0AE00020F0236F49324606F0C0FC654D6E4804706E480470644C50
:20230000284605F0C3FC502005A905F01BF9002801D1012001E00598401C2070C2B2002655
:2023200030465C4906F0A6FC04A805F093FD002805D004A802880020574906F09BFC03A88E
:2023400003F0E2F9002804D0039A0020534906F091FC03980090049869468880504902E0DE
:20236000F61C062E68D06846825D4A405108D20700D079404A08C90700D07A405108D2072F
:2023800000D079404A08C90700D07A405108D20700D079404A08C90700D07A405308D1076E
:2023A00000D07B405908DA0700D07940801942784A405108D20700D079404A08C90700D03D
:2023C0007A405108D20700D079404A08C90700D07A405108D20700D079404A08C90700D02F
:2023E0007A405308D10700D07B405908DA0700D0794082784A405008D10700D07840410815
:20240000C00700D079404808C90700D078404108C00700D079404808C90700D0784041083A
:20242000C00700D079404808C90700D078404108C00795D0794093E768468171090AC17117
:2024400001980099174A1160506020780824022800D250E7C5002E46083EF12E00D343E736
:202460001148314603F008FC002807D00D4808300D49324606F0F8FD2C463BE70948083033
:20248000314606F0A5FD35E701A0000020A10700FD2020201F99000010990000A4980000AE
:2024A000FFFF000000142020F01520207293000002212020FF20202080B58CB00A90099119
:2024C000002008900A99059104900598002803D1FFE772B6FFE7FEE70598006C002803D001
:2024E000FFE772B6FFE7FEE706F008F8014600200029019005D1FFE70998411E88410190D6
:20250000FFE70198C007002803D0FFE772B6FFE7FEE7FFE706F054FC0598806B03900398BF
:20252000002826D0FFE70398401E0599886305980068002805D1FFE706F038FB059988607D
:2025400000E0FFE70598006900280CD0FFE70598103000F089FE002803D0FFE706F03CFC62
:2025600000E0FFE700E0FFE706F0FAF901200B908EE00998002805D1FFE706F0F1F9002037
:202580000B9085E00898002806D1FFE706A806F061FB0120089000E0FFE7FFE7FFE706F075
:2025A000DFF906F0DDFC06F00BFC059844214056401C002805D1FFE705994422002088549F
:2025C000FFE7059845214056401C002805D1FFE70599452200208854FFE706F0C1F906A8F7
:2025E00009A903F0A3FB00282FD1FFE7059806F0CDF9002822D0FFE70598006800280AD129
:20260000FFE706F0DDFB0598806801F06BFD049006F0A6F900E0FFE705982430099906F0B0
:202620000DF8059803F0CCFAFFF768FB002803D1FFE706F0D1FB00E0FFE705E0059803F007
:20264000BFFAFFF75BFBFFE721E0059803F0B8FAFFF754FB059806F099F9002815D0FFE7EF
:20266000049800280ED0FFE706F0AAFB059806F0CBF9029005988068029901F0CFFA06F07E
:202680006FF9FFE700200B9002E0FFE7FFE741E70B980CB080BDFEE7F0B585B006680490FE
:2026A00045682B686D495A186D495C58B06847690A3705D1116804230B431360264699E023
:2026C0002F460296D0360396664E34420DD025460623DB435468E6062AD422072E460197BA
:2026E0002DD4620765D49A1D64E02646591828242642019725D003984268002A4CD0044649
:20270000408A0028029F7BD0216892B2184605F013F86168091A6160216809182160618AED
:20272000081A6082019800684F492022425043E04361116804230B4313602E465AE05A1CDC
:2027400038E01424264260D00C610398C468002C029F31D00398458A002D25D0916A0907F8
:202760002AD00121039811E081684B1C83600A70C1684C1EC460418A491E0D46418201996B
:202780000B6821463A4A9A58120761D0374A9A580029E9D10021F5E70C61C1680029029FEC
:2027A0000AD00021039801753846019902F0F6FC02E09A1C4261029FB1051FD5B9684A69B7
:2027C0000832039816D1C268002A13D14268002A10D101980268264BD45824070AD1D218C0
:2027E00012680F231B0213400122D202934201D100224A61B1B2049803F0E0FD05B0F0BD21
:202800003846019902F0C6F8D6E7F207029F0AD1B207D1D50A220A6103994A684260C968A7
:202820000029BED1C8E73D46F43501220A61039CE2680021002A0A4607D0384600910199F3
:2028400005F05CF90099E268B868C2602970B3E7002CB1D02904A7D0AEE7C04614120000C4
:202860003810000080C40000481000001C1200003C12000080B58EB00C900B910A92099315
:20288000002008900C9804900498002803D1FFE772B6FFE7FEE70B9900200029039006D180
:2028A000FFE70498006C411E88410390FFE70398C007002803D0FFE772B6FFE7FEE70999B1
:2028C00000200229029007D1FFE70498C06B401E411E88410290FFE70298C007002803D03C
:2028E000FFE772B6FFE7FEE705F008FE014600200029019005D1FFE70A98411E88410190CC
:20290000FFE70198C007002803D0FFE772B6FFE7FEE7FFE706F054FA0498806B0499C96B1B
:20292000884204D3FFE70998022825D1FFE704980B99099A02F058FF07900498406A002838
:202940000CD0FFE70498243000F08EFC002803D0FFE706F041FA00E0FFE708E007980028C4
:2029600003D0FFE706F038FA00E0FFE7FFE705F0F7FF01200D9063E00A98002805D1FFE758
:2029800005F0EEFF00200D905AE00898002806D1FFE705A806F05EF90120089000E0FFE760
:2029A000FFE7FFE705F0DCFF06F0DAFA06F008FA049844214056401C002805D1FFE7049945
:2029C000442200208854FFE7049845214056401C002805D1FFE70499452200208854FFE7F1
:2029E00005F0BEFF05A80AA903F0A0F900281ED1FFE7049805F000FF002811D0FFE7049821
:202A000010300A9905F01AFE049803F0D9F8FFF775F9002803D1FFE706F0DEF9FFE705E088
:202A2000049803F0CDF8FFF769F9FFE707E0049803F0C6F8FFF762F900200D9000E069E792
:202A40000D980EB080BD704710B58AB00990089107920998002803D1FFE772B6FFE7FEE7DF
:202A60000898002803D0FFE772B6FFE7FEE70998069006F0FDFA049006980899401864230C
:202A8000C15C05A801700699089A8A180221D1540699089A92008A18116E491C1166007888
:202AA000012800D097E00698806A002803D0FFE772B6FFE7FEE74A48006800285AD1FFE717
:202AC000FFE70698406903900699C8688968886006998868C9684860039840680699091D1E
:202AE000884205D1FFE70698C06803994860FFE706990020486103990868401E0860FFE740
:202B0000FFE7FFE70698C06A37490968884205D9FFE70698C06A34490860FFE7FFE7FFE743
:202B20000698C16A14221046484330490818406802900298069B986002988068069BD86054
:202B40000698001D029B9B6858600698001D029B9860069BDC6A10466043081858610698BB
:202B6000C06A42438858401C8850FFE7FFE705F013FE1AE0FFE71B49486801900198069A02
:202B8000D06101988068069A106206981830019A9268506006981830019A90600698816254
:202BA0000868401C0860FFE7FFE70698C06A10490968C96A88420CD9FFE70798002804D020
:202BC000FFE7079901200860FFE70A490120086000E0FFE7FFE7049806F054FA0AB010BD11
:202BE000B8202020781D2020C0202020C01820209C202020F420202080B58CB00A900991BB
:202C00000892002007900A9804900498002803D1FFE772B6FFE7FEE709990020002902903F
:202C200006D1FFE70498006C411E88410290FFE70298C007002803D0FFE772B6FFE7FEE7FA
:202C400005F05CFC014600200029019005D1FFE70898411E88410190FFE70198C007002883
:202C600003D0FFE772B6FFE7FEE7FFE706F0A8F80498806B0390039800281FD0FFE70498DE
:202C8000099905F0DFF90398401E049988630498006900280CD0FFE70498103000F0E4FAAB
:202CA000002803D0FFE706F097F800E0FFE700E0FFE705F055FE01200B906CE0089800280A
:202CC00005D1FFE705F04CFE00200B9063E00798002806D1FFE705A805F0BCFF0120079062
:202CE00000E0FFE7FFE7FFE705F03AFE06F038F906F066F8049844214056401C002805D1A9
:202D0000FFE70499442200208854FFE7049845214056401C002805D1FFE7049945220020EC
:202D20008854FFE705F01CFE05A808A902F0FEFF00281FD1FFE7049805F028FE002812D0B6
:202D4000FFE704982430089905F078FC049802F037FFFEF7D3FF002803D1FFE706F03CF8FC
:202D600000E0FFE705E0049802F02AFFFEF7C6FFFFE70FE0049802F023FFFEF7BFFF049863
:202D800005F004FE002803D0FFE700200B9002E0FFE7FFE76AE70B980CB080BD80B588B098
:202DA000079007985E490968884204D9FFE75C4800680790FFE772B6BFF34F8FBFF36F8F47
:202DC00004F028F8002802D1FFE762B6A6E05549062008605448006803900398002804D105
:202DE000FFE7524800680390FFE703984F490A680799491E5143401806904D480068400106
:202E000000280AD5FFE70120400649490860474801680698401A0690FFE70698454909685B
:202E2000884206D9FFE7434801680698401A0690FFE70698404908603B490020086039497E
:202E40000868012210430860079802900298002806D0FFE7BFF34F8F30BFBFF36F8FFFE760
:202E600062B6BFF34F8FBFF36F8F72B6BFF34F8FBFF36F8F2B48062101600068C003002844
:202E800021D5FFE729480068069A27490968891A4018401E0190019826490968884206D9F0
:202EA000FFE7019821490968884205D9FFE71F480068401E0190FFE701981F49086007987E
:202EC000401E05901AE0184800680390079A1749009108685043039A801A0490049809683D
:202EE00005F054F90146009805910599491C006848430499401A10490860FFE70A49002014
:202F0000086008490720086008480068401E0A490860059803F0BEFE62B6FFE708B080BD59
:202F2000C820202010E000E018E000E0AC20202004ED00E0A820202014E000E0F0B58BB028
:202F40000D4604464668876805F010FB3178002904D005F0CFFD00200BB0F0BD0497069017
:202F60000121317028797070534D28880028089105D15248012105F0E9F808992888090436
:202F80000791401C28800594A7683D464835384628300290388E09A90880F86A0A903868E9
:202FA00005F0B4F83E68112109027118287D01903B7FBC8C6888FA6C00923A6D1C4303904B
:202FC0000443A3B213430098034301988200B0182322D20183507B6B3A6C786C48243E5DDC
:202FE000002B1BD0BB6B0193FB6B029C247802946D78104330434A68314C2240324C0440CD
:203000001443079804434C6001980343029803432B4388682B4A10402C4A10E0029B1C784E
:203020006B78104330434A68254D2A40284D054015434D6023438868224A104007221A4005
:2030400002438A600868079D28430860089B1803039A8242069804D0002A04D1FA8C4A6199
:2030600001E0FA8C8A613A6D002A0AD07A6DBB6D13434A6877242406A2432340D218089BA2
:203080004A600A681A430A6005F034FD049C207961792943A268FEF707FB207B617B2943C4
:2030A0002269FEF701FB207D617D2943A269FEF7FBFA05980BB0F0BDF8202020F01B202010
:2030C000FEFFECFFF8FFE0E00100120007001F1F01001300FCB40124E407634002E0FCB4F0
:2030E0000124E40708B41D03ED08D60D354356025F007F0D06D12C00344300D0AEE001B0C8
:20310000FCBC7047A408254307242402FF34A74205D10020190D090501B0FCBC7047002B4A
:2031200003D50024A61BAC4125000B03DB08C20D134342024800400D07D11C00144300D0B6
:203140008CE00EBC1000F0BC704701246407234307242402FF34A04205D10020090D090550
:2031600001B0FCBC7047002903D50024A21A9C412300C11B08D51C002B00250014003200E3
:2031800026000024611A3800362925D502B4393949420C00203C03D22F008F40374301E090
:2031A0003700A740002F01D040210E4302BC20290BD500290ED04C42203420B4A5402C008A
:2031C00020BC0D41CE40361904E000292E000D4120390E4192196B411C0014433ED000243B
:2031E000002B04D5012400218A1A99410B00401E52005B41FBD50121890215000D400CD0F5
:20320000521800277B4101D3401C0BE00721C90115000D4001D189008A43072109028A43CA
:2032200052005B41801C19DD07210902FF31884209D30EBC0020C90F0902FF31C900C91D59
:203240000905F0BC7047190B00050143E40721431805120B104301B0FCBC70470021002053
:2032600001B0FCBC7047704710B588B007900798C068C06806900698002803D1FFE772B6B6
:20328000FFE7FEE7FFE70698806A04900699086AC96988600699C869096A48600498406807
:2032A00006991831884205D1FFE70698006A04994860FFE706990020886204990868401E59
:2032C0000860FFE74648006800285AD1FFE7FFE70698406903900699C8688968886006996A
:2032E0008868C9684860039840680699091D884205D1FFE70698C06803994860FFE70699E8
:203300000020486103990868401E0860FFE7FFE7FFE70698C06A34490968884205D9FFE71C
:203320000698C06A30490860FFE7FFE7FFE70698C16A1422104648432C4908184068029083
:203340000298069B986002988068069BD8600698001D029B9B6858600698001D029B98607C
:20336000069BDC6A10466043081858610698C06A42438858401C8850FFE7FFE705F00CFA6C
:203380001AE0FFE71749486801900198069AD06101988068069A106206981830019A926834
:2033A000506006981830019A9060069881620868401C0860FFE7FFE70698C06A0C490968DD
:2033C000C96A884205D9FFE7012005900949086002E000200590FFE7059808B010BDC04617
:2033E000B8202020781D2020C0202020C01820209C202020F4202020F0B585B00D460446E1
:203400005448014081420CD12046294622462B4602F024F822462B46FFF761FE04460D46A8
:2034200093E04D4B002D75DD012004900105280D06D10020002D05D11538E50A6405F9E793
:203440002E460DE000220D4202D16D00521CFAE7801A401C2026B71A2646FE402E4394400F
:203460003E4A8218481E304008430092D10703D0E10F400040186400E10F4000461800252D
:203480000498410501956400002911D04A19B71A304600DB3846B24200DC5518B24202DC34
:2034A000019A521801924000E20F86184908EAE75F1C00221346002F23D0D019AE4216DD9F
:2034C000039300230028049A00D41A46C11902910029049900DA1946761B844200D2761E10
:2034E000039B0A40AD18241ADB19029A03E002D18442E5D23546E00F71000E1864007F0832
:20350000D9E7344313D0581C019A12D001201840C31810E028461840204316D0002D83D5C8
:2035200004F06EFA212101600E4D00240DE0019A01E0521C002350105908D2075418009974
:20354000490809050818064945182046294605B0F0BDC0460000F07FFFFFFF7F01FCFFFF1D
:203560000000E03F0000F87FF0B583B00124204604F08CFF002864D0054604F0F7FF4E4EA6
:203580003168002905D005F0B5FA284605F0CAFC02E0356005F0AEFA30680025E94303F0D7
:2035A000A3F946480078002848D101944448077844480078029087423CD20298C01B401E48
:2035C0000321009004F0E2FD481C032800D0054603282CD0BC0003E0BF1C0834AD1E26D01C
:2035E000394800680159FEB201223046FEF75CF8354840680159002902D0304605F078FB9E
:20360000781C012D12D03049096809194968C6B201223046FEF748F82B4840680019416826
:203620000029D9D0304605F063FBD5E707460098022808D20198214908701F4E306805F0D5
:2036400020F903B0F0BDBE001F4C04E0FF1C0C360298B842EED020688159FDB20122284693
:20366000FEF722F860688159002902D0284605F03FFB781C216889194968C5B20122284689
:20368000FEF712F8606880194168002902D0284605F02EFBB81C216889198968C5B2012210
:2036A0002846FEF701F86068801981680029CDD0284605F01DFBC9E7001E202003212020B1
:2036C0006B95000081960000E0980000F0B585B015461822424355488618F26A022A15D0BF
:2036E000012A09D00020002A7DD1B76A746AA74270D9E243BB1873E0B36A746AA3423FD9BA
:20370000E0431B18306AAB4240D240E0304624300190746A304628300090304620300390AA
:203720001C360020029608E0049838183146F119ED1B019B1C60029E55D0049000980368AE
:20374000A34204D9E0431F180398006804E003980068E2439A181718001B874200D3074659
:20376000AF4200D32F46306800190E463A4605F07BFC3C19039800688442D5D10024D3E77D
:20378000306AE2439A181318AB4200D32B4637462437051BF0690019AB4208D21A461D4668
:2037A00005F062FC28462919396005B0F0BD1C3602962A4604911E4605F056FC741B029848
:2037C000006804994919224605F04EFC30463C6005B0F0BD0490336AE243B818C3180498CA
:2037E0002A46AB4201D205B0F0BD37462437F069326A3346161B0019B54205D22A4605F074
:2038000033FC601938600EE01C3302933246049105F02AFCAC1B02980068049989192246FE
:2038200005F022FC3C60284605B0F0BD8819202080B588B00020079006900590FFE7524859
:20384000006805A90022FFF7D7F9002800D199E00598002800D594E00798049004980028F3
:2038600000D18CE004984069002805D0FFE70498001D04F013FB00E0FFE703A804F020FDA6
:2038800002900598401E0190082876D80198810001A040588746C046BD380000BD3800007C
:2038A000153900002339000055390000BD380000BD38000015390000233900000499282255
:2038C000885C0123184388540498069B81695918029A03F09DF900281AD0FFE7049828210F
:2038E000405C4007002808D5FFE70498069982698918029A04F01EFE06E004992822885CD6
:20390000FE2318408854FFE70498016A884700E0FFE733E004992822885CFE23184088549D
:203920002CE004992822885C01231843885406980499886104988069002803D1FFE772B6A2
:20394000FFE7FEE70498029B816959181A4603F05FF913E004982821405C8007002804D462
:20396000FFE7049801F09EFB06E004992822885CFE2318408854FFE700E0FFE700E0FFE7C3
:20398000FFE75CE708B080BDEC20202080B58EB00C900B910A9209930020079005900B98EB
:2039A000002803D1FFE74948039002E00B980390FFE7039806903420FDF7F6FB0790079863
:2039C000002803D1FFE70C200D907BE006980069411E8841079908740A980799486109980A
:2039E0000799886107990020C860079988600799C8610799086206990968079A51600799F9
:203A00008862079908630799C86206980069002813D1FFE701200021032202F0B6FD079942
:203A2000886007988068002806D1FFE7079801F039FB0C200D9045E0FFE704F05FFD411EEB
:203A4000481E814104A801700078C007002803D0FFE705F085FAFFE7069801898A08079B4B
:203A60000068019300901A481A4904F03BFA08900898012805D1FFE70799086804F0F8FDB6
:203A800011E007988068002805D0FFE70798806804F008FEFFE7079801F004FB002007901E
:203AA0000C200590FFE707980C99086004A80078C007002803D0FFE7FEF720F9FFE7059856
:203AC0000D90FFE70D980EB080BDC04658202020B38C0000A5940000F0B585B00E46024617
:203AE0000B464748474C49004D0D28180746143721461431A94214D9A54220D21046424A99
:203B00001946424B05460C46FFF7E9FA00273A463B4603F0A7FD002843D0002E4AD43B467C
:203B200050E0214633318D4221D9601C874263D110461946FFF7D3FA02460B465CE034487F
:203B4000F8403040104357D010462F4A19462F4B04460D46FFF7C3FA00220492134603F047
:203B600081FD002820D0002E2ED4284630E00021C943C14011423FD002911046224A1946BD
:203B8000224B03900491FFF7AAFA00220192134603F068FD00280AD0002E1ED4049B039A32
:203BA00028E023462A4627E02B46224624E0049B039A21E00120C00786432A462E43234608
:203BC0001AD0154B3A4617E01148401CF8403018104B3B410340049A0EE0142F049B039ACA
:203BE00001D1731C06E0601B3430012181408A1801984341029882431046194605B0F0BD87
:203C0000EDFBFFFFFF0300009C7500883CE4377EFFFF0F000000F0FF0000F0BF10B588B0A6
:203C20000790069107980590012002900798002800D18CE00598006D002803D1FFE772B657
:203C4000FFE7FEE70598C06C0699884203D2FFE70698039003E00598C06C0390FFE70598B9
:203C6000C06A0399884270D0FFE70598006D012869D1FFE7059837490968884203D1FFE729
:203C800072B6FFE7FEE70598C06A049003980599C8620598C07E0006002806D4FFE703990E
:203CA0000A20401A0599886100E0FFE705984069049914224A4328498918884241D1FFE7B9
:203CC0000598001D04F0EAF8002801D1FFE700E0FFE7FFE7FFE70598C06A20490968884277
:203CE00005D9FFE70598C06A1C490860FFE7FFE7FFE70598C16A142210464843164908185C
:203D0000406801900198059B986001988068059BD8600598001D019B9B6858600598001D15
:203D2000019B9860059BDC6A10466043081858610598C06A42438858401C8850FFE7FFE70B
:203D400000E0FFE700E0FFE700E0FFE700E0FFE708B010BD9C202020C0182020C020202092
:203D6000F0B58DB0149F002F00D18CE00E46397831760CA900240C70002800D184E0002EB6
:203D800000D181E01546002A7ED00993022B7BD37978A52208922A706970022135600A91EF
:203DA00071600024F4600B90314605F0B3F80B99002869D0B878A62207922A70687035606B
:203DC0000A9870600024F4600846314605F0A2F80B99002858D013980690F878A7220592A0
:203DE0002A70687035600A9870600024F4600846314605F08FF80699002945D012990029E0
:203E000042D0002840D008982870012035607060B1600890F0600B980A91314605F07AF885
:203E2000002831D00A990878049007982870356008987060B160F0600B98314605F06AF894
:203E4000002821D00A99087808900CA80091069901910599029103900B9831462A46099B26
:203E600003F022FE00280FD07878049981420BD1B8780899814207D10CA80078F978401A99
:203E80004442444100E0002420460DB0F0BDF0B583B000920291019007684468029D69682A
:203EA000002902D1E968002968D004F05FFB3978012902D1F968002954D1FD603D6101218C
:203EC000696104F017FE3E46303600253046294602F00AFD401C09D1387801280198DBD0CF
:203EE0003046009902F000FD401C4DD03878002804D138468030002102F0F6FCFFF7B3F9C9
:203F0000606804F07FFF0198029903F0F3F8014660680C4604F080FF002C03D0FEF793FDFD
:203F2000254644E03878002841D13D4680352846009902F0D9FC401C37D104F017FB04464E
:203F4000F86800282ED0019804F035FD204604F0D1FD0220C743B91C284602F0C5FC029838
:203F6000476122E0F96849690A3112D10221C943083969616D6904F0BDFD1BE00220C04388
:203F8000083868616D6915E00220C5430298456110E03969CD613D6101216961002504F080
:203FA000A9FD07E0204604F0A5FD02984569304604F067FC284603B0F0BD704710B582B0E7
:203FC000019004F0FDFE41490868401C08604048006800280DD1FFE701983D4908603B48BD
:203FE0000068012803D1FFE702F052FF00E0FFE714E03848006800280ED1FFE734480068C0
:20400000C06A0199C96A884204D8FFE701983049086000E0FFE700E0FFE7FFE72E48016852
:20402000491C0160006801994864FFE7FFE70198C06A2A490968884205D9FFE70198C06A48
:2040400026490860FFE7FFE7FFE70198C16A14221046484322490818406800900098019B05
:20406000986000988068019BD8600198001D009B9B6858600198001D009B9860019BDC6ABD
:2040800010466043081858610198C06A42438858401C8850FFE7FFE704F062FC0D48006817
:2040A00000280FD0FFE7FFE709480068C06A0199C96A884203D2FFE704F08EFE00E0FFE7B2
:2040C000FFE700E0FFE702B010BDC046B02020209C202020E4202020BC202020C020202023
:2040E000C018202010B584B003900398029000200190039800287ED0FFE70298C06A4049FA
:204100000968C96A884268D2FFE70298C07E0006002808D4FFE73A480068C16A0A20401AB0
:204120000299886100E0FFE702994869C96A14224A4334498918884246D1FFE70298001D57
:2041400003F0ACFE002801D1FFE700E0FFE72C480068C06A0299C862FFE7FFE70298C06AC1
:2041600029490968884205D9FFE70298C06A26490860FFE7FFE7FFE70298C16A1422104630
:20418000484320490818406800900098029B986000988068029BD8600298001D009B9B68FC
:2041A00058600298001D009B9860029BDC6A10466043081858610298C06A42438858401CC3
:2041C0008850FFE7FFE705E00D480068C06A0299C862FFE7012001900CE00298C06C08490F
:2041E0000968C96A884203D2FFE70120019000E0FFE7FFE700E0FFE7019804B010BDC04652
:204200009C202020C0182020C020202080B586B0059004F0D5FD0598002804D1FFE73F489D
:204220000068019002E005980190FFE7019804900498002803D1FFE772B6FFE7FEE7049855
:20424000001D03F02BFE002801D1FFE700E0FFE70498806A002805D0FFE70498183003F03F
:204260001DFE00E0FFE70498011D2D4804F081F800200390FFE70398002814DCFFE70498F3
:20428000039940186421405C012807D1FFE7049803994118642200208854FFE7FFE70398A8
:2042A000401C0390E7E704F05BFB1E480068002807D0FFE704F084FD04F06EFA04F050FB34
:2042C00000E0FFE7049815490968884222D1FFE71448006800280BD0FFE714480068002871
:2042E00003D0FFE772B6FFE7FEE704F075FD10E00B480068029002980B490968884204D171
:20430000FFE706490020086002E000F0BDFAFFE7FFE700E0FFE706B080BDC0469C202020D0
:204320008C1D2020E4202020B0202020B820202080B586B005900020039004F041FD0598A6
:20434000002804D1FFE73A480068019002E005980190FFE7019804900498002803D1FFE75E
:2043600072B6FFE7FEE70498001D03F097FD002801D1FFE700E0FFE70498806A002805D0E1
:20438000FFE70498183003F089FD00E0FFE729490868401C0860049825490968401A414216
:2043A0004841029024480068002813D0FFE7029800280FD0FFE70498011D214803F0D9FFA8
:2043C00020490868401C0860049804F0A5FB0120039009E019490868401E0860049804F04B
:2043E0009BFB04F0D9F9FFE704F0BAFA0398012804D0FFE7049803F0F9FBFFE70E4800682E
:20440000002813D0FFE704980949096888420BD1FFE70D480068002803D0FFE772B6FFE714
:20442000FEE704F0D9FC00E0FFE7FFE706B080BD9C202020BC202020E4202020B0202020C3
:20444000A01D2020B4202020B820202083B00290019100920298001F02900299012000063D
:2044600008600298001F02900198029908600298001F029002992D4808600298001F0290DF
:2044800002992B4808600298001F02900299294808600298001F0290029927480860029890
:2044A000001F02900299254808600298001F02900098029908600298001F029002992048A7
:2044C00008600298001F029002991E4808600298001F029002991C4808600298001F0290C3
:2044E00002991A4808600298001F02900299184808600298001F0290029916480860029863
:20450000001F02900299144808600298001F02900299124808600298001F029002990220DB
:20452000C0430860029803B07047C046C98700001212121203030303020202020101010156
:2045400011111111101010100909090908080808070707070606060605050505040404043B
:2045600080B58AB009900891099805900598002803D1FFE772B6FFE7FEE70598006C0028C1
:2045800003D0FFE772B6FFE7FEE70598016800200029019006D1FFE705988068411E884125
:2045A0000190FFE70198C007002803D0FFE772B6FFE7FEE704F05CFD06900598806B049051
:2045C00004980599C96B884248D2FFE705984521415C03A801700499491C059A9163002131
:2045E0004056401C00281AD1FFE70598406A002813D0FFE705982430FEF736FE00280AD07C
:20460000FFE70898002804D0FFE708990120086000E0FFE700E0FFE700E0FFE71BE0FFE7D5
:2046200004F0E8FC0290002103A84056029988420FD2FFE7002103A840567F2803D1FFE7BF
:2046400072B6FFE7FEE70398401C059945228854FFE7FFE7FFE70120079002E0002007908C
:20466000FFE7069804F00EFD07980AB080BD7047FCB40C005C40E40FE40710B41D032D0B18
:2046800056006D415F007F0D73D001246405254307242402FF34A74261D00B031B0B4200DE
:2046A0005B414800400D64D001246405234307242402FF34A04252D0C01B0021002736249C
:2046C000AB4200D1B24204D37F414941921BAB4101E07F414941641E06D0002B01D1002AC4
:2046E00002D052005B41EBE7202C07D2162C0AD33900A7402026361BF1400BE0203C39007C
:20470000A140002706E0A1402026361B3D00F5402943A74001246405214202D17F004941A1
:20472000401E00247F1C61410124A405214202D0401CA14301E06408A14303242402FF34C6
:20474000001916DD2419A04209D8CC074908000501437808204310BC2143FCBC704702BCA0
:204760000020C90F0902FF21C900C91D0905FCBC70470021002001B0FCBC704786B00590BE
:204780003D480490FFE7049800680599884205D2FFE7FFE7049800680490F4E7049836497D
:2047A00088421FD0FFE704990020344A914202900FD3FFE704993148314A82180120002383
:2047C00000939142019001D90098019001980290FFE70298C007002803D1FFE772B6FFE77D
:2047E000FEE7FFE70498039003980499496840180599884209D1FFE70598426804994868C2
:20480000801848600498059000E0FFE70598039003980599496840180499096888421AD12C
:20482000FFE7049800681749096888420DD0FFE70498006842680599486880184860049858
:20484000006800680599086004E00E48006805990860FFE704E00498006805990860FFE720
:2048600004980599884204D0FFE705980499086000E0FFE706B07047F01D20200000202018
:20488000FF0B0000A020202080B586B03B480068002804D0FFE73A49012008606CE03849FD
:2048A00000200860FFE737490868006B059036480490086800680968096B884218D9FFE72A
:2048C000059800683049884212D1FFE7059840682D4988420CD1FFE7059880682A498842BD
:2048E00006D1FFE70598C0682749884209D0FFE724480168343103910068039904F0CCFBB0
:20490000FFE7FFE7FFE7214800680290FFE70298142141431E48405800280BD1FFE70298C7
:20492000002803D1FFE772B6FFE7FEE70298401E0290ECE7FFE70298142141431448401858
:2049400001900199486840684860019948680831884204D1FFE70199C8684860FFE7019833
:204960004068C06807490860FFE7029807490860FFE704480068FFE706B080BDB8202020EC
:20498000F42020209C202020A5A5A5A5C0202020C0182020F0B583B00D4602900646D036EC
:2049A0000868374942183749411801915368DB070ED053689B060BD45368DB0708D053685C
:2049C0009B0605D45368DB0702D053689B06EDD513680127BB4313607368FF2B00D3FF23C2
:2049E00073821B0414682849214019431160F168002902D17168090A3DD0136804218B43CC
:204A00001360317D002900D13775082401990C607268002A0CD0316892B202F08DFE71688A
:204A2000091A7160316809183160718A081A70822968164A8818164BCD1820262E62CD5856
:204A4000144E2E43CE50029B9B681B7E5B008D58114E2E40F3188B508B58BB438B504168D4
:204A600002220A4342604168A143416041683943416003B0F0BD116804230B43C0E7C04634
:204A80001412000048100000FFFF00F01012000028100000AAC6000001F8FFFF10B584B0F0
:204AA00003900398029000200190039800286FD0FFE7029838490968884203D0FFE772B666
:204AC000FFE7FEE70298006D002803D1FFE772B6FFE7FEE70299086D401E08650299C86A87
:204AE000C96C884252D0FFE70298006D00284BD1FFE70298001D03F0D1F9002801D1FFE72A
:204B000000E0FFE70299C86CC8620299CA6A0A20801A8861FFE7FFE70298C06A1F490968F1
:204B2000884205D9FFE70298C06A1C490860FFE7FFE7FFE70298C16A142210464843184967
:204B40000818406800900098029B986000988068029BD8600298001D009B9B6858600298D4
:204B6000001D009B9860029BDC6A10466043081858610298C06A42438858401C8850FFE78D
:204B8000FFE70120019000E0FFE700E0FFE700E0FFE7019804B010BD9C202020C0202020F5
:204BA000C018202080B58CB00B900A9109920B9806900698002803D1FFE772B6FFE7FEE7EF
:204BC0000A9900200029029006D1FFE70698006C411E88410290FFE70298C007002803D094
:204BE000FFE772B6FFE7FEE704F042FA07900698806B0590059800284ED0FFE7069844212B
:204C0000405C04A90191087006980A9903F01AFA01980599491E069A916300214056401CB4
:204C200000281AD1FFE706980069002813D0FFE706981030FEF718FB00280AD0FFE7099814
:204C4000002804D0FFE709990120086000E0FFE700E0FFE700E0FFE71BE0FFE704F0CAF95D
:204C60000390002104A84056039988420FD2FFE7002104A840567F2803D1FFE772B6FFE73F
:204C8000FEE70498401C069944228854FFE7FFE7FFE70120089002E000200890FFE70798CC
:204CA00004F0F0F908980CB080BD10B586B00B9C0A9C099C089C05900491039202930A98F7
:204CC000006B03998900A52204F062F90A98016B039880004018001F019001980721884371
:204CE000019001A800784007002803D0FFE772B6FFE7FEE70498002820D0FFE7002000909D
:204D0000FFE700980F2814D8FFE70498009A805C0A9989183422885404980099405C00288B
:204D200001D1FFE705E0FFE7FFE70098401C0090E7E70A9943220020885400E0FFE708984E
:204D40000A2803D3FFE772B6FFE7FEE708980A2803D3FFE70920089000E0FFE708980A991A
:204D6000C86208980A99C8640A98001D04F017F90A98183004F013F90A98006108990A201F
:204D8000401A0A9988610A98406201980599029AFFF75CFB0A9908600998002804D0FFE73B
:204DA0000A980999086000E0FFE706B010BD704780B586B0059004910392002000900598D0
:204DC000002803D0FFE772B6FFE7FEE737480068059989004018006E002837D1FFE703987A
:204DE000002833D0FFE704F0BBF803F0E9FF2F480068059989004018006E002809D1FFE76C
:204E00002A48006805994118642201208854009000E0FFE703F0A4FD0098012805D1FFE7D7
:204E20000398012100F08CFB00E0FFE7FCF766FF01900098012807D1FFE70198002803D17B
:204E4000FFE703F0C9FF00E0FFE7FFE703F0B8FF16480068059989004018006E029002987C
:204E6000002816D0FFE70498002808D0FFE70F4800680599890041180020086608E002986D
:204E8000401E0A490968059A920089180866FFE700E0FFE7054800680599411864220020B2
:204EA000885403F05DFD029806B080BD9C20202086B004F001F830490860304D284604F05D
:204EC00021F800242046294603F000F92C4E306000284CD02B4B2C482C492D4A1C6058607C
:204EE0009C60D9601C615A612E4D03E00020294603F0C0FEE24301212046FFF759FF04A800
:204F00000480039402943768002FEFD005A90C80384604F07BF80028E8D1354605AE32886B
:204F2000002001901B4903F0A5FE31882E461D4D384604F070F8074602A8009004AA03AB72
:204F400010483946FBF724FC0028CFD004A8019A805E11490880114B1968491C1960039B41
:204F6000009010460E493A4603F084FEC2E70E49002003F07FFEFEE78C202020F81D202049
:204F80001C1E2020101D2020502D4941805DE840004059402E990000FA2020207C20202048
:204FA0007392000004970000D0940000F0B585B036480068072867D80121049181408620A1
:204FC000014261D000200290C2433148014610390C68016801920260002C22D02D480078C0
:204FE00003902D48077802E0AE40B44319D0204602F05AFC1F2545400126BD42304600D88F
:20500000029803998D42049900D301460029EBD122484068A90041580029E5D0E8B2884754
:20502000E2E71F48014610390C68016801990160002C29D01748057817480778039704E07B
:205040001F2148408640B4431ED0204602F02CFC01263F214140B942324600D80022A942FD
:20506000049B00D31346002BEAD10C4A52688B00D258002AE4D0C9B22F460546084690477C
:2050800028463D46039FDBE705B0F0BD3011404048100A406B95000081960000E098000067
:2050A00048300A4080B586B00590059804900598002868D0FFE7049808380490049803907B
:2050C00003990020314A914202900FD3FFE703992E482F4A8218012000230093914201900C
:2050E00001D90098019001980290FFE70298C007002803D1FFE772B6FFE7FEE70398C07992
:20510000C009002803D1FFE772B6FFE7FEE703980068002803D0FFE772B6FFE7FEE703987F
:20512000C079C00900282CD0FFE703980068002825D1FFE7039948680122D2079043486099
:2051400003984068082808D3FFE70498083003994968083903F03CFFFFE703F001FF039817
:2051600042680C490868801808600398FFF706FB09490868401C0860FCF7C0FD00E0FFE732
:2051800000E0FFE7FFE706B080BDC04600002020FF0B0000C4202020DC202020F0B583B0E8
:2051A0000346DC331A7E002A01D003B0F0BD01221A760C682F4961182F4D641902948D6808
:2051C000ED0705D08D68ED0702D08D68ED07F6D12A4C072637024E6896434E601E68350ABD
:2051E00002D0FF26DE8010E0B5B2DE80072D0CD83502ED1900928A6A0192FE34019A144016
:20520000009A3D4025438D6202E08C6A3C438C624C681B4D2540340524092C194C601C687F
:20522000240A654265414C680426B443AD0064194C601C7A002C00D11A72029D2B68114C9A
:205240001C432C608068007E40000B680B4C234003430B6008681043086048680223034399
:205260004B60486808239843486048681043486003B0F0BD101200002810000001F8FFFFC9
:20528000FFFF00F095C60000F0B581B0ED21090407684668BB793068324A8218002B52D088
:2052A00035462035304C116213680B431360327F69460A70727F4A7003F0F6FB3068B988B1
:2052C0002A4A8358671C1F40294B0B40F918815002F0D8FF306803F017FA3068092149028A
:2052E00040182978C26E07239A4319405118C166F18BC26E1B029A4319405118C166697825
:20530000002903D0816D04220A438265A978002904D001680122120291430160816D08223E
:205320000A438265816D21408165816E022291438166816E04220A438266816D01220A438E
:20534000826501B0F0BD064BC01813688B43136003680124A3430360116201B0F0BDC04673
:205360005812000028100000FFFBFFFF50120000FF030000F0B585B0076803904068029019
:205380000068324942184658ED210904116130494458600706D50220B8713B6800210398A4
:2053A0000A4698470125204628402904314040181CD0019602980068932149014018816810
:2053C000490703D4816804220A438260006804AA10700226BE713B6803983146984702984D
:2053E00000681C494258B2434250019E0220044068053040201803D130021DD405B0F0BD4C
:205400003446029800681349425804239A434250B8790321B9713B68032800D1054604AE69
:2054200003982946324698470298006831780A4A815026463002E1D50120B8713B680421D5
:2054400000220398984705B0F0BDC046381000005C1200006812000064120000FCB50C00E5
:205460005C40E40FE40710B4DD02540D2543D6025F007F0D60D00124E4072543072424028A
:20548000FF34A74250D0CB02440D2343C2024800400D51D00124E407234307242402FF34D8
:2054A000A04241D0C01901B41800290002F044FF0F0001B41800310002F03EFF03000C00AA
:2054C0001000310002F038FF06001000290002F033FF05007618002202BC01BC55415141A7
:2054E000A419554151418024A4005B195141FF18514100D564003F19514102D47F004941CE
:2055000000E0401C03242402FF34001B14DD2419A04209D80305F80A4C0520434900090BA8
:20552000194310BC2143FCBD0020FF21C900C91D090510BC2143FCBD0021002001B0FCBD95
:2055400080B588B0079006913048006804903048006803902F48006802902F480068001D5C
:2055600002F09CFC002801D1FFE700E0FFE70798401C002820D1FFE7069800281CD0FFE769
:20558000FFE7274948680190019A234803689A60019A92680368DA600268121D019B9B6897
:2055A0005A600268121D019B9A60006841610868401C0860FFE726E00498079940180590AF
:2055C000059815490968486005980499884207D2FFE7029810490968091D01F013FF11E076
:2055E00003980D490968091D01F00CFF05980B490968884204D2FFE705980849086000E009
:20560000FFE7FFE7FFE708B080BDC046E82020200C1E2020101E20209C202020D020202091
:205620008C1D202080B586B00590049101200390059802900298002803D1FFE772B6FFE77F
:20564000FEE70298002852D0FFE70298C06B00284DD0FFE702980190C16B0020C04302F03F
:2056600095FD0199096C884241D3FFE703F0A8FB02990868CB6B0A6C5A43801888600299C0
:205680000020886302990868486002990868CA6B531E0A6C5A438018C86002994422FF20A8
:2056A00088540299452288540498002813D1FFE70298006900280CD0FFE702981030FDF7E7
:2056C000D3FD002803D0FFE703F086FB00E0FFE700E0FFE708E00298103003F02BF90298A6
:2056E000243003F027F9FFE703F03AF902E000200390FFE70398002803D1FFE772B6FFE731
:20570000FEE7039806B080BDF0B591B010A900240C700F942C490791012608962B4F099748
:205720000A942B490B68002B42D0069007A96D200876002403942748029040250195009708
:20574000214A18462B4600F06AFF002826D0204C206810A905917D21C90004911F4903915D
:205760001C49029101950097174A07A92B4600F037FB002815D020680FA900970195154A87
:2057800002920391104A07A92B4601F0CFFD002811D00F9906980160344609E00E493022ED
:2057A00003E010A802780E490024204603F062FA204611B0F0BD0B4900240622082320469F
:2057C00003F058FAF4E7C046D01C2020901C2020201E2020E41D2020FB950000B80B000079
:2057E00046950000E092000080B586B0059004910392002002900598806B01900598006C5E
:20580000002810D1FFE705980068002809D1FFE705988068FFF742F90290059900208860BE
:2058200000E0FFE743E00398002817D1FFE7059A50680499126C03F017FC05990A6C4868B2
:2058400080184860059948688968884204D3FFE705990868486000E0FFE727E0059AD068E8
:205860000499126C03F000FC05990A6CC868801AC8600599C8680968884206D2FFE70599B3
:2058800088680A6C801AC86000E0FFE7039802280AD1FFE70198002804D0FFE70198401E22
:2058A000019000E0FFE700E0FFE7FFE7FFE70198401C05998863029806B080BD10B590B0EF
:2058C00001200F9000200D900C900B900A9009900890FFE708980E2811D8FFE7089A2748AD
:2058E000815C0AA881540899405C002801D1FFE705E0FFE7FFE70898401C0890EAE7089A6F
:205900000AA9002088540E90FFE70E98002832DCFFE71B480990002004900790069007A806
:2059200006A905AA03F084F8049B0998059A0699079C0294019100930AA902F0F7F90146E2
:205940000E9882000F4881500E9989004058002803D0FFE701200F9002E000200F90FFE707
:205960000F98012801D0FFE705E0FFE7FFE70E98401C0E90C9E70F9810B010BD8F99000043
:2059800099770000181E2020F0B585B002462A480378002093424CD9002900D127490B687B
:2059A000002B46D08B887F2B43D807460191D00023490C1866680D5802F0D8FD7421695C3B
:2059C000002904D003F096F8384605B0F0BD29467431012200920A7003F08CF8707B317B18
:2059E000184FC9193269FBF75FFE707D317DC919B269FBF759FE0198016829608088A880D8
:205A00000020A8712046FFF73FFC02AF384603F05EF80294B06803902846083071680A4A2A
:205A20003B4600F013F824352846009902F08EFB204605B0F0BDC046829600004899000048
:205A40006899000000000B017553000080B588B007900691059204930798009007980028B2
:205A600048D0FFE70498002805D1FFE701A8049003F02DF8FFE704980079FF2804D1FFE776
:205A8000049902204860FFE706981C490968884208D0FFE704984068032803D1FFE7002074
:205AA000079026E0009806998A0015498850059800994860049800680099886006980099B8
:205AC000086006980F4900F0F3FD002106A840560499097901F018F80498007AC0070028FE
:205AE00006D0FFE7002106A8405602F0E1FEFFE7FFE7FFE7079808B080BDC0466C2020209C
:205B0000181F202055840000F0B589B003F0ACF901F078FAFDF728FDFEF74FFA00F0B8F964
:205B20002249002003F0A6F801AC204603F0FCF8012500956946204602F04CFD0646204692
:205B4000294602F070FE074637436902204603F0C7F9384300D0FEE7154A06A801A9002321
:205B6000FDF714FF002800D0FEE7124A07A801A90023FDF70BFF002800D0FEE70E4A08A886
:205B800001A90023FDF702FF002800D0FEE70B4A08A801A90023FDF7F9FE002800D0FEE7CC
:205BA00001F004FD002009B0F0BDC046A4960000B14E0000C1000000FD690000D522000010
:205BC00080B584B0039003F0FBF803984521405C02A90870FFE7002102A84056012817DBC1
:205BE000FFE70398406A00280CD0FFE703982430FDF73AFB002803D0FFE703F001FA00E0C9
:205C0000FFE700E004E00298401E02A90870E2E703994522FF20885402F0A2FE03F0D0F8AB
:205C200003984421405C01A90870FFE7002101A84056012817DBFFE703980069002810D053
:205C4000FFE703981030FDF70FFB002803D0FFE703F0D6F900E0FFE70198401E01A9087003
:205C600000E000E0E2E703994422FF20885402F077FE04B080BD7047F0B589B00D46014617
:205C8000244A0192244E3068002816D0009101A950230B7681231370012402941F4F0397D2
:205CA000049403F037F9002809D03A78AA420DD21D49002420462B4626E0002426E01849B9
:205CC00000248122204602F0D5FF1FE03068019903220A7002940397049501A903F01AF988
:205CE00006460098002807D0002D05D0002E03D00A492A4603F0B8F9002E07D1A81CC3B218
:205D0000084900240322204602F0B4FF204609B0F0BDC046D01C2020201E2020901C202076
:205D2000519400007B940000FA93000080B586B0059004910598002803D1FFE772B6FFE7C0
:205D4000FEE70498002803D1FFE772B6FFE7FEE703F036F820480068029002980599496881
:205D6000401A019004980068401C002803D1FFE7002003902BE01948006805990968884296
:205D80000CD0FFE7029805994968884206D3FFE70120039004990020086017E001980499C9
:205DA000096888420BD2FFE7019A04990868801A0860059802F04EFF0020039005E004992A
:205DC0000020086001200390FFE7FFE7FFE702F0C7FD039806B080BDE8202020D420202015
:205DE000F0B587B0059206900E9800283AD00A46119902910F9F007810760025002F01959F
:205E000033D000210698002836D0002A34D00598002831D004920C9A002A2DD0002B2BD015
:205E20000D98002828D003920091109E049902E07F1E049919D00220059A1070012414C1EC
:205E4000039D0D604C600698083903F063F8002815D02D78E80715D1002EE9D0304601F087
:205E600015FFE5E7002007B0F0BD02990029019800D00D7007B0F0BD084607B0F0BD009866
:205E800007B0F0BD029900292046F2D1F2E77047F0B583B002F06AFB044625480178002999
:205EA00040D1012101702348007801063AD00294C4B2601E032102F069F9481C0027032892
:205EC0003E4600D006460190032C14D3A41B0027194D286841692846884728460C30E968BD
:205EE0004969884728461830A96949698847FF1C2435BC42EDD101980328029C12D00C2038
:205F000078430D4945180C3528460C38016849698847012E06D0286841692846884718356D
:205F2000B61EF1D1204602F0E5FD03B0F0BDC04604212020A79400003C990000F0B581B0E0
:205F4000FF2845D004468008382202402148801845681F2626408800400F04D0102E16D36C
:205F60009D21490114E002F001FB1C490968A2008B580724E406A3438B500121B140184A91
:205F8000AB588B43AB50174902220A601EE0124969187200102E00D3203A90400A68024309
:205FA0000A600127B740812040012D18A86A3843A86202F0DBFA09490968A2008B58072460
:205FC000E4061C438C50A9683943A96002F092FD01B0F0BD8496000090130000E0980000F2
:205FE0002810000080E200E0F0B585B005460C9C0020002C47D00D9E002E44D024780C76EC
:20600000002D40D000293ED0002A3CD00A9F002F39D0002B37D00B9B002B34D00490062034
:2060200010700124029294C10C60039528460C390D4602F06FFF002827D0387801900720E1
:20604000029A1070294694C52C6003980C3D02F061FF002819D0387800900820029A107005
:2060600094C52C6003980C3D294602F053FF0028049808D0387801990904009A120251189A
:2060800008183060204605B0F0BD049805B0F0BDF8B507460E464800244A904208D138465D
:2060A00031463A463346FDF71AF804460D4639E0002919D438463146FDF70EFD04460D460D
:2060C0003A463346FDF706F80027194B3A4601F0B5FA0646174B02F0B6FF002E00D00D4684
:2060E000002E1FD004461DE00120C007009041403846FDF7F1FC04460D463A463346FCF75B
:20610000EEFF00270A4B3A4601F098FA0646094B02F099FF002E00D00446002E00D00D4650
:206120000098454020462946F8BDC0460000E0FF0000E0BF0000F03FF0B58B4200D18242FE
:2061400004D90B0002000021002040E0002B00D1002A0CD10B00020000210020002B00D1A7
:20616000002A01D0C943C043FFF785FD2FE01C0015000B0002000CB4002126002F00FF1902
:20618000764102D2491C4029F9D100201E001700FF19764102D2401C4028F9D10E1A21000D
:2061A0002800320002F076FD0C0005000CBC00200021A34200D1AA4201D3521BA3414041BE
:2061C00049416D08E7073D436408761EF1D5059F002F01D03A607B60F0BD0000F0B581B0F0
:2061E0000C46224D2978532933D0A82106462846174602F0EDFE30463A4603212961696193
:206200001B4BAB611B49E9610121890229620021A9626962E9622B66174B6B661023AB66DC
:206220002967E966696753232B7045236B704726AE70EE702B7152236B712026AE71EB71C4
:2062400054232B726B72A972E97229736973A973E973EFF31085012181F310882146FDF7E7
:2062600035FA85F3108801B0F0BDC0468819202054990000000C2020B41D202084B00320F9
:20628000800200902048029002A80078400700280ED0FFE70298C01D029002980721884307
:2062A0000290029A18490098891A40180090FFE7029916480160002141600298009A80185E
:2062C000019001980838019001980722D24310400190019A0E4802600268516002681160C2
:2062E000029903910199039A891A51600068039908600398406807490860039840680649EB
:20630000086004B07047C04600002020F01D2020A0202020CC202020C420202010B588B0CA
:2063200004460A98079406910592049303A90870002002900498002803D1FFE772B6FFE7AF
:20634000FEE7079800282ED0FFE7049800282AD0FFE70598002804D0FFE70698002822D0D2
:20636000FFE70598002804D1FFE7069800281AD1FFE7502001900198502803D0FFE772B62D
:20638000FFE7FEE7019804980290029946220120885407980699059A03AB1B78029C00941B
:2063A00001F0E8FD07E00298002803D1FFE772B6FFE7FEE7FFE7029808B010BDF0B581B0D6
:2063C0000446066840680068224A831885588D4385501962B16848690A3018D10920C743D1
:2063E0007368002520462A469847B0684761F068316988421ED0F068C069F060F0684761AD
:206400007368F168002220469847F068EEE7F0683269904213D0F068C069F06073684869AF
:206420004242424120469847F168204600F062FE01B0F0BDB560F560356101B0F0BD002025
:20644000F060306173684869424242412046984701B0F0BD28100000002A49D084468B074E
:206460001CD1830722D1102A08D370B4103A78C978C0103AFBD270BC103238D0042A2CD3FC
:20648000082A05D30C2A01D308C908C008C908C008C908C092072AD0920F22E00B780370F1
:2064A000491C401C521E22D08B07F7D1C30714D18307D8D0121F12D308C903801B0C43802A
:2064C000001D121FF8D20AE008C903701B0A43701B0A83701B0AC370001D121FF4D2121DEB
:2064E00005D00B780370491C401C521EF9D160467047F0B58BB0139C129C119C109C0A9049
:206500000991089207931198002803D1FFE772B6FFE7FEE71298002803D1FFE772B6FFE795
:20652000FEE7682005900598682803D0FFE772B6FFE7FEE705981298002820D0FFE7119892
:2065400000281CD0FFE7129806900698682102F03FFD1198069908630699652202208854D5
:206560000A980999089A079B109C139D069E00270397029601950094FEF797FB02E0002087
:206580000690FFE706980BB0F0BD10B588B00790069105A80270002004900798002833D0B1
:2065A000FFE707990020C04301F0F0FD069988422AD3FFE70799069848435021C9438842F8
:2065C00022D8FFE7079906984843039003985030FAF7EAFD04900498002813D0FFE70498CF
:2065E0000290029850300290049946220020885407980699029A05AB1B78049C009401F01A
:20660000B9FC00E0FFE707E00498002803D1FFE772B6FFE7FEE7FFE7049808B010BDF0B5FB
:2066200083B005460A9C0020002C39D024780C76002D35D0002933D0002A31D0022B2FD30B
:206640003027177009205070022014460A60486000200646C860029528460D4602F05AFCB1
:2066600000281FD00B9A0121002A1ED0089B002B18D00998002815D00092019127700120E4
:206680002C606860AB60E860029829461C4602F041FC0028304603D0207800990870019806
:2066A00003B0F0BD304603B0F0BD084603B0F0BDF0B5214B1C68214A944238D01C6800256F
:2066C000661963595719535173687B60B368BB60F368FB6033693B6173697B61B369BB61A1
:2066E000F369FB61336A3B62736A7B62B36ABB62F36AFB62336B3B63736B7B63B36BBB63C6
:20670000F36BFB63336C3B64736C7B64B36CBB64F36CFB64336D3B65736D7B65B36DBB6585
:20672000F36DFB656035C02DCAD1034B1A60800080180164F0BDC04608ED00E0002220204D
:2067400010B50C46002908D0022C08D11948002101701046FAF772FE0FE0204610BDFD2130
:2067600021400020012908D1124901230B70124909780129EDD1FF2111700F490A78042A2E
:2067800002D0042C04D010BD01220A70042CFAD10A4A1378002B09D000231370084A137060
:2067A000084A1370084A1370084A137001220A7010BDC046FE202020271E2020FC202020AB
:2067C000022120200121202000212020FF20202080B584B00390029102F0C2FB684601F057
:2067E0006FFD0190009800282ED1FFE7029800280CD1FFE703980199884207D8FFE7FBF7BC
:206800007DFA0398019901F019FA1CE00298002807D0FFE70F480068006841424841029088
:20682000FFE70D4800680399019A891A029A00F01FFEFBF763FA002803D1FFE702F0CCFA49
:2068400000E0FFE7FFE702E0FBF758FAFFE704B080BDC046141E2020EC20202080B586B060
:2068600005900598049002F07BFBFFE70498C06A002835D0FFE70498C06A039003980068CF
:206880000499C86203980069029002984068002805D0FFE70299086849680860FFE70298D2
:2068A0000068002805D0FFE70299486809684860FFE70398806801900198006800280BD02B
:2068C000FFE70398C068002806D0FFE7019801680398C0688847FFE70298FEF7E3FBC5E798
:2068E000FBF70CFA06B080BD80B58AB00890079101F022FF002807D0FFE7089800221146FE
:20690000FEF750F9069023E002F0B9FB049004987D21C900884212D0FFE70798049A002371
:206920000193194602F030F9019B03910290029803997D22D20002F0ABFA059002E0079833
