:2000000000802020BB8D0000532500002589000000000000000000000000000000000000B2
:20002000000000000000000000000000718800000000000000000000317D000099840000FC
:200040005325000053250000532500005325000053250000532500005325000053250000E0
:20006000000000005325000053250000000000000000000053250000532500005325000028
:20008000532500005325000053250000532500005325000053250000000000000000000090
:2000A0005325000053250000000000000000000053250000000000005325000053250000E8
:2000C000A0B01CAE304608F009FE0125357200242046314601F05EFF002826D00746CE49F3
:2000E000204608F05FFCCD49204608F05BFC08F07BFDCB490860CB4814901595CA49169175
:20010000179414A96D260E760570384608F09AFD002807970ED0C54801210170C449C54A7E
:2001200000206D2308F03EFC07E0C349002008F039FCFEE714A806F00BFBBC4F387800281D
:2001400000D141E1BD4900200A9008F02BFC39780029304600D1084614A9087611AC204600
:2001600008F010FD3878002800D106462670B44807F046FCAB4A079F11A82026AA4900919C
:200180000196029014A93846334603F047FD002800D021E100242046AA4908F003FC1423A6
:2001A0002046A9492A4608F0FDFBA84807F028FC11A89D4900910196029014A93846994A05
:2001C000334603F02BFD002800D005E1002738469C4908F0E7FB6C1C14233846079F9A4983
:2001E000224608F0DFFB994807F00AFC11A88E4900910196029014A938468A4A334603F022
:200200000DFD002800D0E7E0002528468D4908F0C9FB641C142328468B49224608F0C2FBDA
:200220008A4807F0EDFB11A87F4900910196029014A938467B4A334603F0F0FC002800D082
:20024000CAE0002528467F4908F0ACFB641C142328467D49224608F0A5FB7C4807F0D0FB89
:2002600011A8714900910196029014A938466D4A334603F0D3FC002800D0ADE0002528460C
:20028000704908F08FFB641C142328466E49224608F088FB6D4807F0B3FB11A86249009115
:2002A0000196029014A938465E4A334603F0B6FC002800D090E000252846624908F072FB09
:2002C000641C142328466049224608F06BFB5F4807F096FB11A8544900910196029014A98E
:2002E0003846504A334603F099FC002874D100252846544908F056FB641C1423284652493F
:20030000224608F04FFB514807F07AFB11A8464900910196029014A93846424A334603F0F9
:200320007DFC002858D100252846464908F03AFB641C14232846FC49224608F033FBF8486C
:2003400007F05EFB11A8F44900910196029014A93846F04A334603F061FC00283CD1002703
:200360003846F04908F01EFB651C14233846079FED492A4608F016FBE94807F041FB11A80D
:20038000E54900910196029014A93846E14A334603F044FC00281FD100242046E14908F09F
:2003A00001FB6A1C14232046DF4908F0FBFADC4807F026FBAD1C152DD64A00D0DCE6DB49EC
:2003C000002008F0EFFA10E0D449002008F0EAFA079807F0F7F8FEE711A842788378C07803
:2003E0000090D349002008F0DDFACB4CC94D099603E00020DF4908F0D5FA0A9EF2430121A5
:2004000030460B9104F032FC10A806700FA806700E960D96099E27E012950000109200000F
:20042000101F2020C01B2020A01B2020B21C202043900000A0950000B6940000A0910000A6
:20044000A0860100698F0000DA8F000050C300000020B44908F0A6FAAF4C2F46AD4D0B983F
:20046000401C0B900428C4D00CA80A990170039011A802900196009414A938462A463346D0
:2004800005F0BBFF002800D18AE03D460CAC22780020AA4908F086FA2278092A00D0A1E0CC
:2004A00010AC0594A748039011A80290099F0197994E00967D202E46C0000890049014A9A3
:2004C0002846944D2A463B4605F028FB2278002800D1ADE000209D4908F064FA0FA802216E
:2004E0008D4C009401970291039014A930462A463B4607F093F9002805D00FA802780020DC
:20050000934908F04FFA0EA8039011A80290099E0196009414A9079F38462A46334606F098
:20052000F3FD002800D1A2E00DA8039011A802900196009414A938462A46334605F0F2FB8C
:20054000002800D1A0E00E9A00242046834908F029FA0D9A2046824908F024FA0E9811A9BB
:20056000097A08F06BFA0646C117089A234608F0A3F97C4A234608F019FB0446129901297E
:2005800000DAA7E0304608F0C3F80746129800970190002075493246234608F003FAA0E07E
:2005A000254600203022644908F0FCF914AC204606F0CEF811A80095019602903D4638466A
:2005C0002146544A334603F029FB002800D13FE711A842788378C07800900020544908F07C
:2005E000E1F939E70020564908F0DCF911A84A4C0094099E0196029014A92F462846454D90
:200600002A46334603F00AFB002809D011A842788378C07800900020454908F0C3F903E07D
:200620000020404908F0BEF9424807F0E9F916E703200090002044490B9B08F0B3F911A89F
:20064000354C00940197029014A930462A463B4603F0E4FA0028374610D011A84278837873
:20066000C07800900020324908F09CF90AE0002006220823374908F095F909E000202949AC
:2006800008F090F9099EEAE60020334908F08AF914AC204606F05CF811A81F490091019692
:2006A0000290384621462A46334603F0B7FA00280AD011A842788378C078009000201C4979
:2006C00008F070F9144CCAE60020164908F06AF9114CC4E6002024493246234608F062F907
:2006E0003746099E384608F0DFF90E980D990143094C0DD1002003231D490B9A08F052F931
:2007000011A800940196029014A9079F384677E7079F72E6C01B2020A01B20201494000068
:2007200050C30000698F0000DA8F0000308E0000739000001027000079920000E8940000C6
:20074000CF900000B80B0000F38E0000EC910000BC920000109000003492000060930000D2
:2007600000930000FFFF7F00B58E00002F8F0000758E0000BC930000F0B595B0002800D133
:2007800012E2044602920393084608F083F82269636903F0CBFE2768666800250590049171
:2007A0002A462B4606F018FE1490FE4B13973846129631462A4602F0F0FB024614980028AF
:2007C00000D16BE20B46059E3046049F394606F0E5FD002800D161E2A268E3683046394611
:2007E00004F092FD04460D461398129932463B4602F0CEFB02460B462046294603F096FEDA
:2008000006460D460024E94B224606F0DBFD00281296019500D0E1E10120C00711904540A5
:20082000E34F002014900C240E9513970694149C2046394622463B4604F066FD05460E4637
:20084000204639462A46334604F05EFD10900F9120463946D74AD84B04F056FDD74AD84B87
:2008600002F09BFB07460D9100240C9528460B9631462246D34B04F047FD06460D461098B5
:200880000F992246D04B04F03FFD32462B4602F084FBCE4ACE4B04F037FD3A460D9B02F030
:2008A0007CFB2246C14B04F02FFD04460D46119881432046C74AC84B06F070FD002800D03E
:2008C000BCE10026149F384614970D95139D29463246F54B02F061FBBC4ABD4B04F014FD9F
:2008E0000890079138462946F54AF84B04F00CFD3246099434460A96EC4B02F04EFB06466F
:200900000F460C980B99EA4AF74B04F0FDFC32463B4602F042FB06460F4608980799109A24
:200920000F9B04F0F1FC32463B4602F036FB2246DC4B04F0E9FC129A0E9B02F02EFB099A95
:200940000D9B03F0F3FD02460B461498294602F01FFB05460C4602460B4604F0D5FC064605
:200960000F462846214632463B4604F0CDFC10900F911495284613942146CD4AD24B04F00A
:20098000C3FCCF4AD14B02F008FB0D900C910B963046099739460A9E3246CD4B04F0B4FC22
:2009A00005460C4610980F993246CA4B04F0ACFC2A46234602F0F1FAC74AC84B04F0A4FCB3
:2009C0000D9A0C9B02F0E9FA3246B64B04F09CFC04460D46119881432046C14AC14B06F072
:2009E000DDFC002800D029E10022149E3046139F39460D941446AC4B02F0CFFAB64AB74BF2
:200A000004F082FC0890079130463946AC4AAF4B04F07AFC22460A9525460C94A34B02F0F3
:200A2000BCFA04460F460B980999A14AAE4B04F06BFC22463B4602F0B0FA04460E4608981A
:200A40000799109A0F9B04F05FFC2246334602F0A4FA2A46934B04F057FC129A0E9B02F006
:200A60009CFA0D9A0A9B03F061FD02460B461498139902F08DFA04460F4602460B4604F0AD
:200A800043FC05460E46204639462A46334604F03BFC13901091149420463946844A8A4B0B
:200AA00004F032FC864A894B02F077FA0F900D910B9528460A9631460C9D2A46844B04F0CF
:200AC00023FC06460C46139810992A46814B04F01BFC3246234602F060FA7F4A7F4B04F00A
:200AE00013FC0F9A0D9B02F058FA2A466D4B04F00BFC05460E46119881432846784A794B2F
:200B000006F04CFC002800D096E000220F92149C20463946644B02F040FA6F4A6F4B04F08F
:200B2000F3FB0990089120463946654A674B04F0EBFB0F9A5D4B02F030FA0D9504463D4699
:200B40000C960E460B980A99594A674B04F0DCFB2246334602F021FA06460F460998089968
:200B6000139A109B04F0D0FB32463B4602F015FA0F9A4C4B04F0C8FB129E32460E9B02F0AA
:200B80000CFA0D9A0C9B03F0D1FC02460B461498294602F0FDF914900F460698C41E4FD00D
:200BA00043E6C0460000F0BF002577E000005940000034C088CE19EEAF60B3BE1C64ED4ABA
:200BC0002602703F00C072C000001040FA5FD7A9A36592BD11EA2D819997713D324B304652
:200BE0002946224603F0A2FC304B224602F0D5F92F4D304B2A4604F087FB2F4A2F4B02F028
:200C0000CCF907460E462246234606F0C7FB01460028204600D13846002900D134462146E6
:200C200002F048FB264A274B02F0B7F9264B2A4603F07CFC14900F46129E01E0129E139FC3
:200C400000222A4B1498394604F05EFB06F038FE029A002A039D08D02549884200DB0846BA
:200C60002449884200DC084610801A9C002D059F0AD00022204B3046019904F045FB06F05B
:200C80001FFEC117884328600125002C06D03846049906F015FEC11788432060284615B06A
:200CA000F0BDC04600005940000059C00000F03F88CE19EEAF60C33ED828C9DF4C04F03E0D
:200CC0001C64ED4A260270BFAF60B3BE2602703F00C072C000001040FA5FD7A9A36592BD3D
:200CE00011EA2D819997713DAF60A3BE00002440FF7F00000080FFFF00408F40F0B59FB09A
:200D000006920E460024E14304910AA91A9140211B911C9403901E901D9406E02B4600F0B6
:200D200025FE1D9C002C00D52AE23178761C25290BD0002900D113E21C9B581C1B9A9042C5
:200D400052D918469042ECD158E0002731780A46233A0D2A14D802207A441279520097440B
:200D6000090F0F0F0F0F0F0F0B0F0D0F0F060743761CEBE70820FAE70420F8E70120F6E7FE
:200D800009940A463A3A00250920C043824202D22C4632460CE00024721C0A235C43641839
:200DA000303C71780E463A3EDB439E421646F3D82E2907D1537819463A39814200D35CE04F
:200DC000561C00E016463078FB2102460A40682A1FD1707802460A40682A1CD1B07801402B
:200DE000F61C6829EFD017E01A9AD1541C901D99491C1D911B9A904200D092E71E981A9913
:200E000005F08AF81C99884200D0A7E100201C9087E7761C00E0B61C0146583920294DD8C0
:200E20007944097949008F4411101010101010101010101B6010101010101010101010107B
:200E40008210108E1056101011006AE7069A1068011D11600168009401971AA810225DE706
:200E600006990B68181D08601C99481C1B9A90422CD81A681A9B5A54B8E7961C00250A2199
:200E80004D43ED18303D327813463A3B834200D299E74D43AD18303D727813463A3B834282
:200EA00000D281E04D43AD18303DB3781A463A3AF61CC9438A42E2D8761E84E7252800D07E
:200EC0002FE71C99481C1B9A90427CD90846904200D026E792E7069A1068011D1160016881
:200EE000009401971AA80A2218E7069A1068011D11600168C81705914140081A0A2855DB4F
:200F00000323642800D2BBE0C1087D294FD37D21C9000893079006F0D1FF089BDB1C9B4944
:200F2000079A8A42EDD89B1EAB4242D942E0069A1068011D1160016800200823009301901D
:200F40001AA81022EBE6069A1068011D1160006800288D4C00D00446099D0EE01E981A99A5
:200F600004F0DAFF1C99884200D0F7E000201C901D9D641C002D00D5D3E62178002900D12A
:200F8000CFE61C9B581C1B9A904203D918469042EFD1E3E71A9AD1541C901D994D1C1D95FE
:200FA0001B9A9042E5D1D9E7761C0CE70123AB4200D82B46002C04D00598002807D4002095
:200FC00006E0002109E01A9A252353540EE701200421394089080143611A02243C4008933D
:200FE00014D0002D12D10998002800D599E6059800283DD4780776D507911C99481C1B9ADA
:2010000090425ED9084690424FD066E0F807EAD10029E8D0079411E01E981A9904F07CFF43
:201020001C99884200D099E000201C901D980990099800282146089B00D572E64C1E8C4296
:2010400022D28B4220D21C99481C1B9A904203D908469042ECD1DFE71A9A202353541C9074
:201060001D99491C09911D911B9A9042E0D1D3E707911C99481C1B9A904207D908460FE0C6
:201080005B1EAB4295D995E7079CACE71A9A2D235354089B1C901D99491C09911D911B9AB8
:2010A000059949420591904217D11E981A9904F033FF1C99884251D100201C901D98089B63
:2010C0000CE01A9A2B235354089B1C901D99491C09911D911B9A9042E7D0099807990990B1
:2010E000002800D51DE6002C05D1009101971AA80A22059912E6012038402843F5D100294E
:2011000011D1F2E71E981A9904F006FF1C99884224D100201C901D980990089B09980028B8
:20112000214600D5FDE54C1E8C42DED28B42DCD21C99481C1B9A904203D908469042EDD1D4
:20114000E0E71A9A30235354089B1C901D99491C09911D911B9A9042E0D1D3E7049C0FE0E7
:20116000002C09D01C9A002A08D00AA9039804F0D3FE1C981D9C02E0002401E000202418EF
:2011800020461FB0F0BDC046B09500000F270000F0B587B0B24D2A78012A08D10378B149F6
:2011A0000B7000244C70CC718C708C8101E0AD490B780024E1437F2B11DC5B1E032B00D9D5
:2011C0000AE1C0467B441B795B009F4401562649012A79D0032A00D0FDE0A34971E0822B8F
:2011E00010D0812B51D0802B00D0F5E0012A6BD0032A00D0EDE09F490978012900D0ABE0D4
:20120000A2495EE0032A61D0012A00D0E1E09B480470994804700326DCE00021032A6AD072
:20122000022A22D18F4EF3797278934200D3D3E000785C1CF471F318D870F079904200D04E
:20124000CAE0F77830790002747902198748884907F0A2FD8548C019B060B4700326B9E0F0
:201260000021032A68D0022A51D0012A00D0B3E07C48032141700226ACE0012A24D0032A74
:2012800000D0A8E000787849A2E0012A1CD0032A00D09EE077490978012900D096E07B4934
:2012A0000978D1290CD17A4B19687A4A1268914206D0794E3168794A1268914200D08EE0FB
:2012C00071490978017084E0032683E069490978032601297ED1684901220A7067490A781D
:2012E000674B1B789A4204D20A78531C0B7065498C5C04706EE05B4A938994780426A34257
:2013000068D294685F1C9781E35C03701FE0554AD47953789C425FD20078661CD67114191F
:20132000E070D079984257D1D07851794E4B18189060917003264DE04A4A9389947804260A
:20134000A34247D2007894685F1C9781E0549089927890423ED03FE000784C49087008782D
:2013600049490C7046490C700426D12832D1484800684849086048480068484A10600868D3
:201380004749086010684749086007F0B3FC00280BD0049404AA214601F0B4FA049800282C
:2013A00003D0012000074249086007F09DFC002810D0049404AA214601F0A4FA04980028A7
:2013C00008D0012000073A49086003E000782E49087004262E700021084607B0F0BD3049C4
:2013E00009681A68914204D12E4909683268914231D02D490E682D490F880494059404A925
:201400000E70320A02924A70320C01928A70320E0092CA700F713C0A4C710390084603F096
:2014200089FE014603980A0A164B1E70029E5E70019E9E70009EDE701F715C719971DA7187
:201440000F4908220A7012490968154A116012490968144A11600A490A780B4B1A7030E78D
:20146000B31C20207C1C2020A01B2020C01B2020D0940000891F2020881F20208B1F202052
:201480008A1F2020001420208D1F20208C1F2020081F2020141F2020001F20200C1F202094
:2014A000201F20201C1F2020041F2020861F202004ED00E080B592B0119000200D900B90A9
:2014C000119800282AD0FFE711980821C943884220D8FFE711980830119011A800784007DB
:2014E000002815D0FFE71199072001400820401A0C9011980C99C943884205D8FFE70C993D
:2015000011984018119002E000201190FFE700E0FFE702E000201190FFE700E0FFE707F094
:20152000B7FB82480068002803D1FFE704F094FD00E0FFE711A8C0780006002800D5E5E0E1
:201540001198002800D1DFE0119879490968884200D9D9E077480F900068109010990020C3
:20156000754A91420A900FD3FFE710997248734A82180120002308939142099001D90898F8
:20158000099009980A90FFE70A98C007002803D1FFE772B6FFE7FEE7FFE710984168119A71
:2015A00000209142079006D2FFE710980068411E88410790FFE70798C007002824D0FFE7C6
:2015C00010980F90109800681090109900205A4A914206900FD3FFE710995748574A8218F3
:2015E0000120002304939142059001D90498059005980690FFE70698C007002803D1FFE73D
:2016000072B6FFE7FEE7C8E7109848490968884278D0FFE70F98006808300D900D990020DC
:20162000454A914203900FD3FFE70D994248434A82180120002301939142029001D90198E6
:20164000029002980390FFE70398C007002803D1FFE772B6FFE7FEE7109800680F9908608E
:20166000109840681199884203D2FFE772B6FFE7FEE7109840681199401A11281ED3FFE794
:201680001098119940180E900EA800784007002803D0FFE772B6FFE7FEE7109840681199BF
:2016A000401A0E9948601198109948600F9800680E9908600E980F99086000E0FFE7109845
:2016C00042681B480168891A016000681C490968884205D2FFE7164800681949086000E05B
:2016E000FFE7109840680B90109948680122D2071043486010990020086012490868401C71
:20170000086000E0FFE700E0FFE700E0FFE700F045FB0DA800784007002803D0FFE772B662
:20172000FFE7FEE70D9812B080BDC0462C1F2020501F20208C1C202000002020FF0B0000C8
:20174000581F2020641F2020F0B591B005460020C343FF2D22D00C4676490978A9421DD828
:2017600075490978A94219D3002C00D5E0E0039301200C9080060A906F09F8006F490818D7
:2017800026016F4921406F4BC9188B0C089207970B9506D1890B6C4A515803E0184611B033
:2017A000F0BD0021069140680490E0B2059037460A9807400C9EF0040D90254634062C40AF
:2017C00006F06CFDE903099036D41F200B990840864060000321090529405D4A89184A425B
:2017E0004A4111050143089801433943069A114380220A4305998900544B5A5001282C46B6
:2018000002D1544804990E500A9606F047FD52490A680B9DAB00D118D25813460D9F3B4091
:201820003C42079F17D1002B0C9E02D00D9B9A430A609521490115E00194059B02977006CD
:2018400004902A090321480628400A9CA0422C460FD000210EE0002B0C9E02D10D9B1A4352
:201860000A603E49049A0A9B535006F0DBFF09982BE0C9060A911F46B1040D9B1A40F30696
:20188000049DA8421D4600D00A9D3007284080180D9A5040089A1043029A1043069A10439E
:2018A00080310143BA002948815001462B4080581843885001980028079F09980B9D04D0F6
:2018C0008A181168049B1943116006F0ABFFA000400F20D0BE4006F0E1FC21490A781642ED
:2018E00002D006F09FFF16E032430A7006F09AFF0EAE304606F083FF0E971748C0680F9099
:2019000018490120324606F0EEF9002803980FD01548022101602846214604F0ADF906F008
:20192000BDFC0D490968AA008C5006F07BFF002011B0F0BDDD920000DE920000E092000052
:201940000000FF070000FDFFF0920000048042400000E0FFD01200002495000090120000E1
:20196000901F20206D4D000000E100E0F0B587B01E46914205900391069202D203460124E7
:2019800018E003240846114606F098FA069A90420ED3114606F092FA069A904209D311462A
:2019A00006F08CFA069AE41C9042ECD2A41E00E0641E059B0D980C99B44200D834460127FD
:2019C00005463D400029019502943CD0002D3AD10D462021800703D40C46002E03D103E07D
:2019E0003024002E00D00C46294606E0002098602946D8680028069A25D4002923D00298B0
:201A0000884220D20D465A689968481C904201D9084606E01A6854549860D968491CD960AF
:201A20005A682946691E9042E3D10D461869196804F072FA059B99688842D7D00020C0437E
:201A4000D860069A2946D868049000286BD4039C009101E0761E5743022E01D3761E06E047
:201A60002046394606F02AFA069A904217D35743012E01D9761E06E02046394606F01EFAFB
:201A8000069A90420BD35743012EE3D82046394606F014FA069A90420598DCD200E005984F
:201AA0008468039D03952846394606F007FA0646621C059B5868824205D922460499824289
:201AC0000CD0144615E03048805D196808559A60D868411CD96058688242F2D1186919688F
:201AE00004F01AFA05998C68A04211D100248C60C9680491002906990ED47E43039DAD1BDF
:201B0000384606F0DBF906998F420746CAD203E00020C0430490C86001980028059B009968
:201B200001D0002906D107B0F0BD1446049100292946F8D44D1E8D42F5D202988842F2D2F4
:201B4000621C5868824204D9224604998242ECD109E01868202101559A60D868411CD96050
:201B600058688242E1D11869196804F0D5F9059B9968884203D100249C60D968D6E70020EE
:201B8000C043D86007B0F0BD3495000010B588B00020059076480068002800D0DFE076498F
:201BA0000868401C049004980860049800281AD1FFE7FFE7714800680068002803D0FFE7DC
:201BC00072B6FFE7FEE76D4A106803906C4908681060039808606B490868401C086006F0DA
:201BE00073FCFFE700E0FFE7049867490968884200D2AAE0FFE7614800680068002805D18A
:201C0000FFE761490020C04308609DE05B480068C068C06807900798406806900498069922
:201C2000884204D2FFE70698574908608CE0FFE7FFE70798406902900799C86889688860BD
:201C400007998868C9684860029840680799091D884205D1FFE70798C06802994860FFE79D
:201C600007990020486102990868401E0860FFE70798806A002821D0FFE7FFE70798806A4D
:201C800001900799086AC96988600799C869096A48600198406807991831884205D1FFE7EB
:201CA0000798006A01994860FFE707990020886201990868401E0860FFE700E0FFE7FFE7E7
:201CC000FFE70798C06A31490968884205D9FFE70798C06A2D490860FFE7FFE7FFE70798E4
:201CE000C16A14221046484329490818406800900098079B986000988068079BD8600798AD
:201D0000001D009B9B6858600798001D009B9860079BDC6A10466043081858610798C06A7E
:201D200042438858401C8850FFE7FFE70798C06A18490968C96A884203D9FFE7012005902E
:201D400000E0FFE7FFE756E7FFE713480068002803D0FFE70120059000E0FFE704E0054962
:201D60000868401C0860FFE7059808B010BDC046441F20206C1F2020741F2020A01C2020E4
:201D8000A41C2020601F20205C1F20204C1F2020D0172020281F2020801F202010B588B094
:201DA000002000900790069006F0A2FE0098059070480068002803D1FFE772B6FFE7FEE78E
:201DC0006C480168491E01600068002800D0CAE069480068002800D1C4E0FFE76748006861
:201DE000002800D188E06548C068C0680790FFE70798806A04900799086AC969886007991F
:201E0000C869096A48600498406807991831884205D1FFE70798006A04994860FFE70799EF
:201E20000020886204990868401E0860FFE7FFE70798406903900799C868896888600799D5
:201E40008868C9684860039840680799091D884205D1FFE70798C06803994860FFE7079999
:201E60000020486103990868401E0860FFE7FFE7FFE70798C06A45490968884205D9FFE7BF
:201E80000798C06A41490860FFE7FFE7FFE70798C16A1422104648433D4908184068029014
:201EA0000298079B986002988068079BD8600798001D029B9B6858600798001D029B98602D
:201EC000079BDC6A10466043081858610798C06A42438858401C8850FFE7FFE70798C06A51
:201EE00029490968C96A884204D9FFE725490120086000E0FFE771E70798002803D0FFE7AA
:201F000006F0E2FAFFE71E48006801900198002817D0FFE7FFE7FFF739FE002804D0FFE727
:201F200018490120086000E0FFE70198401E0190FFE701980028EED1FFE71149002008603B
:201F400000E0FFE70F480068002809D0FFE701200690FFE70C48006806F0D6FDFFE700E02D
:201F6000FFE7FFE700E0FFE706F092FB069808B010BDC046441F20203C1F2020301C202059
:201F80006C1F2020801F2020281F20204C1F2020D0172020F0B58BB0704A12780024824232
:201FA0000DD90691C0006E490F187D680E5806F075F9E021715C002904D006F033FC204601
:201FC0000BB0F0BD324605973146E031069E002E049200D1654E2F4601220C4603920A7018
:201FE00006F020FCF1680029069601D0084601E038460C305B4E002901D0491C01E039468F
:20200000143109780078254620736173787B397B574C09193A69FFF797FB787D397D09194C
:20202000BA69FFF791FB06990878049C207048686060087A0295A86038684E4D41194259EB
:20204000324042514848086207AE304606F0D7FB05980790B8680890204614307968464A87
:20206000334603F047FC20463030039905F006FF21462078002807D108468030002105F042
:20208000FDFE04993D4848603846203004907D20C00006900024CC600C618C603868411983
:2020A0004259304B1A4042512F4A0A62344D44513A7F0AA90A707A7F4A7006F08DFB3E6865
:2020C00070190190745102998868022805D0012806D104241920000104E00A24069801E0A4
:2020E0006420039C234D88600AA84078411C7A8C101805F0E3FE214605F0E0FE401EC0B290
:2021000001990861304605F037FF386806F07CF939681C4808184919049D2A7803690724AF
:20212000A34322409A180261FA8B03692402A34322409A1802616A78002A03D0026804235E
:20214000134303600A68069B9F3313430B60016801220A43026005980BB0F0BDD993000074
:20216000989500000000FFFFFFFF000044950000000001012810000055250000758C0000A8
:202180001412000028120000F0B589B01746089107900024E1437348019104F093FA002F2F
:2021A00063D001200290781E032105F087FE481C0328049400D004900090029800020690B8
:2021C000032F63D2009803284FD000200CE091005918674A8958039A5200089DA952A41CC7
:2021E000801C0499884240D0A100079A515889680B685D4A9F185D4D5A59069E32435A51FE
:202200005C2205928D5CAE4039680E4205D139680E4202D139680E42F6D0A9005918544AD8
:2022200089586500089E71530146029D2943049DA9421AD0611C03918900079B5958896848
:202240000B68494D5D19494A9E58069F3E439E50059A8A5C974029680F42B8D129680F42B9
:20226000B5D129680F42F6D0B1E73F495818595841250D4001D00021CD43019A81698261D2
:20228000384806F096F9284609B0F0BD0498381A039000240AE09000181835494058790087
:2022A000089A5052E41C039884428BD0A1000798415889680B682C481F182C481A58069EAC
:2022C00032431A505C2005900D5CAE4039680E4205D139680E4202D139680E42F6D0A900CC
:2022E00059182348095863000898C152631C99000798415889680F681B483D181B4ABE58A0
:2023000006980643BE50059A8E5C0146B1402868014205D12868014202D128680142F6D01F
:20232000B0003818124940585900089B5852A71CB80007990858806803680B495D180B4A18
:202340009958069E314399500599425C31469140286801429FD1286801429CD128680142B1
:20236000F6D098E7001B202030100000041100008062550080B58CB00A90099100200890D4
:202380000A99059104900598002803D1FFE772B6FFE7FEE70598006C002803D0FFE772B6EC
:2023A000FFE7FEE705F042FF014600200029019005D1FFE70998411E88410190FFE7019866
:2023C000C007002803D0FFE772B6FFE7FEE7FFE706F08EFB0598806B03900398002826D029
:2023E000FFE70398401E0599886305980068002805D1FFE706F072FA0599886000E0FFE7DE
:202400000598006900280CD0FFE70598103000F089FE002803D0FFE706F076FB00E0FFE76A
:2024200000E0FFE706F034F901200B908EE00998002805D1FFE706F02BF900200B9085E0CA
:202440000898002806D1FFE706A806F09BFA0120089000E0FFE7FFE7FFE706F019F906F075
:2024600017FC06F045FB059844214056401C002805D1FFE70599442200208854FFE70598B8
:2024800045214056401C002805D1FFE70599452200208854FFE706F0FBF806A809A903F0DD
:2024A000E3FA00282FD1FFE7059806F007F9002822D0FFE70598006800280AD1FFE706F0BA
:2024C00017FB0598806801F06BFD049006F0E0F800E0FFE705982430099905F047FF059879
:2024E00003F066FAFFF75AFC002803D1FFE706F00BFB00E0FFE705E0059803F059FAFFF7DB
:202500004DFCFFE721E0059803F052FAFFF746FC059806F0D3F8002815D0FFE70498002862
:202520000ED0FFE706F0E4FA059806F005F9029005988068029901F0CFFA06F0A9F8FFE789
:2025400000200B9002E0FFE7FFE741E70B980CB080BDFEE7F0B585B00668049045682B684D
:202560006D495A186D495C58B06847690A3705D1116804230B431360264699E02F46029697
:20258000D0360396664E34420DD025460623DB435468E6062AD422072E4601972DD462079E
:2025A00065D49A1D64E02646591828242642019725D003984268002A4CD00446408A002802
:2025C000029F7BD0216892B2184604F06FFF6168091A6160216809182160618A081A6082BB
:2025E000019800684F492022425043E04361116804230B4313602E465AE05A1C38E01424D2
:20260000264260D00C610398C468002C029F31D00398458A002D25D0916A09072AD001216D
:20262000039811E081684B1C83600A70C1684C1EC460418A491E0D46418201990B682146EE
:202640003A4A9A58120761D0374A9A580029E9D10021F5E70C61C1680029029F0AD000210C
:20266000039801753846019902F078FC02E09A1C4261029FB1051FD5B9684A69083203989C
:2026800016D1C268002A13D14268002A10D101980268264BD45824070AD1D21812680F232A
:2026A0001B0213400122D202934201D100224A61B1B2049803F070FD05B0F0BD3846019966
:2026C00002F0C6F8D6E7F207029F0AD1B207D1D50A220A6103994A684260C9680029BED149
:2026E000C8E73D46F43501220A61039CE2680021002A0A4607D038460091019905F0B8F848
:202700000099E268B868C2602970B3E7002CB1D02904A7D0AEE7C046141200003810000007
:2027200080C40000481000001C1200003C12000080B58EB00C900B910A92099300200890E6
:202740000C9804900498002803D1FFE772B6FFE7FEE70B9900200029039006D1FFE70498F7
:20276000006C411E88410390FFE70398C007002803D0FFE772B6FFE7FEE709990020022929
:20278000029007D1FFE70498C06B401E411E88410290FFE70298C007002803D0FFE772B6BA
:2027A000FFE7FEE705F042FD014600200029019005D1FFE70A98411E88410190FFE7019863
:2027C000C007002803D0FFE772B6FFE7FEE7FFE706F08EF90498806B0499C96B884204D302
:2027E000FFE70998022825D1FFE704980B99099A02F04EFF07900498406A00280CD0FFE763
:202800000498243000F08EFC002803D0FFE706F07BF900E0FFE708E00798002803D0FFE7D5
:2028200006F072F900E0FFE7FFE705F031FF01200D9063E00A98002805D1FFE705F028FFC3
:2028400000200D905AE00898002806D1FFE705A806F098F80120089000E0FFE7FFE7FFE77E
:2028600005F016FF06F014FA06F042F9049844214056401C002805D1FFE70499442200201F
:202880008854FFE7049845214056401C002805D1FFE70499452200208854FFE705F0F8FECD
:2028A00005A80AA903F0E0F800281ED1FFE7049805F03AFE002811D0FFE7049810300A99B9
:2028C00005F054FD049803F073F8FFF767FA002803D1FFE706F018F9FFE705E0049803F01E
:2028E00067F8FFF75BFAFFE707E0049803F060F8FFF754FA00200D9000E069E70D980EB0E6
:2029000080BD704710B58AB00990089107920998002803D1FFE772B6FFE7FEE708980028BB
:2029200003D0FFE772B6FFE7FEE70998069006F037FA04900698089940186423C15C05A811
:2029400001700699089A8A180221D1540699089A92008A18116E491C11660078012800D09A
:2029600097E00698806A002803D0FFE772B6FFE7FEE74A48006800285AD1FFE7FFE70698CD
:20298000406903900699C8688968886006998868C9684860039840680699091D884205D143
:2029A000FFE70698C06803994860FFE706990020486103990868401E0860FFE7FFE7FFE755
:2029C0000698C06A37490968884205D9FFE70698C06A34490860FFE7FFE7FFE70698C16A88
:2029E00014221046484330490818406802900298069B986002988068069BD8600698001DA4
:202A0000029B9B6858600698001D029B9860069BDC6A10466043081858610698C06A424308
:202A20008858401C8850FFE7FFE705F04DFD1AE0FFE71B49486801900198069AD0610198EF
:202A40008068069A106206981830019A9268506006981830019A9060069881620868401C93
:202A60000860FFE7FFE70698C06A10490968C96A88420CD9FFE70798002804D0FFE70799A7
:202A800001200860FFE70A490120086000E0FFE7FFE7049806F08BF90AB010BD441F2020FF
:202AA000301C20204C1F2020D0172020281F2020801F202080B58CB00A90099108920020F3
:202AC00007900A9804900498002803D1FFE772B6FFE7FEE7099900200029029006D1FFE77E
:202AE0000498006C411E88410290FFE70298C007002803D0FFE772B6FFE7FEE705F096FB73
:202B0000014600200029019005D1FFE70898411E88410190FFE70198C007002803D0FFE758
:202B200072B6FFE7FEE7FFE705F0E2FF0498806B0390039800281FD0FFE70498099905F001
:202B400019F90398401E049988630498006900280CD0FFE70498103000F0E4FA002803D04E
:202B6000FFE705F0D1FF00E0FFE700E0FFE705F08FFD01200B906CE00898002805D1FFE711
:202B800005F086FD00200B9063E00798002806D1FFE705A805F0F6FE0120079000E0FFE727
:202BA000FFE7FFE705F074FD06F072F805F0A0FF049844214056401C002805D1FFE704997B
:202BC000442200208854FFE7049845214056401C002805D1FFE70499452200208854FFE7EF
:202BE00005F056FD05A808A902F03EFF00281FD1FFE7049805F062FD002812D0FFE7049886
:202C00002430089905F0B2FB049802F0D1FEFFF7C5F8002803D1FFE705F076FF00E0FFE7FB
:202C200005E0049802F0C4FEFFF7B8F8FFE70FE0049802F0BDFEFFF7B1F8049805F03EFD30
:202C4000002803D0FFE700200B9002E0FFE7FFE76AE70B980CB080BD80B588B0079007989A
:202C60005E490968884204D9FFE75C4800680790FFE772B6BFF34F8FBFF36F8F03F0B8FF14
:202C8000002802D1FFE762B6A6E05549062008605448006803900398002804D1FFE75248DA
:202CA00000680390FFE703984F490A680799491E5143401806904D480068400100280AD5C0
:202CC000FFE70120400649490860474801680698401A0690FFE7069845490968884206D9FB
:202CE000FFE7434801680698401A0690FFE70698404908603B4900200860394908680122D6
:202D000010430860079802900298002806D0FFE7BFF34F8F30BFBFF36F8FFFE762B6BFF36A
:202D20004F8FBFF36F8F72B6BFF34F8FBFF36F8F2B48062101600068C003002821D5FFE773
:202D400029480068069A27490968891A4018401E0190019826490968884206D9FFE701988E
:202D600021490968884205D9FFE71F480068401E0190FFE701981F4908600798401E05904B
:202D80001AE0184800680390079A1749009108685043039A801A04900498096805F08EF8F6
:202DA0000146009805910599491C006848430499401A10490860FFE70A49002008600849DE
:202DC0000720086008480068401E0A490860059803F04EFE62B6FFE708B080BD541F202011
:202DE00010E000E018E000E0381F202004ED00E0341F202014E000E0F0B58BB00D460446DF
:202E00004668876805F04AFA3178002904D005F009FD00200BB0F0BD0497069001213170BF
:202E200028797070534D28880028089105D15248012105F023F80899288809040791401C0C
:202E400028800594A7683D464835384628300290388E09A90880F86A0A90386804F0EEFF3D
:202E60003E68112109027118287D01903B7FBC8C6888FA6C00923A6D1C4303900443A3B291
:202E800013430098034301988200B0182322D20183507B6B3A6C786C48243E5D002B1BD0A3
:202EA000BB6B0193FB6B029C247802946D78104330434A68314C2240324C0440144307982E
:202EC00004434C6001980343029803432B4388682B4A10402C4A10E0029B1C786B78104350
:202EE00030434A68254D2A40284D054015434D6023438868224A104007221A4002438A604E
:202F00000868079D28430860089B1803039A8242069804D0002A04D1FA8C4A6101E0FA8CA2
:202F20008A613A6D002A0AD07A6DBB6D13434A6877242406A2432340D218089B4A600A682E
:202F40001A430A6005F06EFC049C207961792943A268FEF7F9FB207B617B29432269FEF776
:202F6000F3FB207D617D2943A269FEF7EDFB05980BB0F0BD841F2020001B2020FEFFECFF69
:202F8000F8FFE0E00100120007001F1F01001300FCB40124E407634002E0FCB40124E40709
:202FA00008B41D03ED08D60D354356025F007F0D06D12C00344300D0AEE001B0FCBC7047AA
:202FC000A408254307242402FF34A74205D10020190D090501B0FCBC7047002B03D50024FF
:202FE000A61BAC4125000B03DB08C20D134342024800400D07D11C00144300D08CE00EBCBE
:203000001000F0BC704701246407234307242402FF34A04205D10020090D090501B0FCBC5E
:203020007047002903D50024A21A9C412300C11B08D51C002B002500140032002600002443
:20304000611A3800362925D502B4393949420C00203C03D22F008F40374301E03700A740FD
:20306000002F01D040210E4302BC20290BD500290ED04C42203420B4A5402C0020BC0D41BF
:20308000CE40361904E000292E000D4120390E4192196B411C0014433ED00024002B04D5A2
:2030A000012400218A1A99410B00401E52005B41FBD50121890215000D400CD052180027A9
:2030C0007B4101D3401C0BE00721C90115000D4001D189008A43072109028A4352005B41AF
:2030E000801C19DD07210902FF31884209D30EBC0020C90F0902FF31C900C91D0905F0BCCF
:203100007047190B00050143E40721431805120B104301B0FCBC70470021002001B0FCBCE5
:203120007047704710B588B007900798C068C06806900698002803D1FFE772B6FFE7FEE795
:20314000FFE70698806A04900699086AC96988600699C869096A486004984068069918312B
:20316000884205D1FFE70698006A04994860FFE706990020886204990868401E0860FFE734
:203180004648006800285AD1FFE7FFE70698406903900699C8688968886006998868C968D8
:2031A0004860039840680699091D884205D1FFE70698C06803994860FFE706990020486181
:2031C00003990868401E0860FFE7FFE7FFE70698C06A34490968884205D9FFE70698C06A5F
:2031E00030490860FFE7FFE7FFE70698C16A1422104648432C490818406802900298069B52
:20320000986002988068069BD8600698001D029B9B6858600698001D029B9860069BDC6A11
:2032200010466043081858610698C06A42438858401C8850FFE7FFE705F046F91AE0FFE77B
:203240001749486801900198069AD06101988068069A106206981830019A92685060069807
:203260001830019A9060069881620868401C0860FFE7FFE70698C06A0C490968C96A88426F
:2032800005D9FFE7012005900949086002E000200590FFE7059808B010BDC046441F2020B2
:2032A000301C20204C1F2020D0172020281F2020801F2020F0B585B00D46044654480140F6
:2032C00081420CD12046294622462B4602F01CF822462B46FFF761FE04460D4693E04D4BC4
:2032E000002D75DD012004900105280D06D10020002D05D11538E50A6405F9E72E460DE07F
:2033000000220D4202D16D00521CFAE7801A401C2026B71A2646FE402E4394403E4A82188F
:20332000481E304008430092D10703D0E10F400040186400E10F40004618002504984105AE
:2033400001956400002911D04A19B71A304600DB3846B24200DC5518B24202DC019A521852
:2033600001924000E20F86184908EAE75F1C00221346002F23D0D019AE4216DD039300232C
:203380000028049A00D41A46C11902910029049900DA1946761B844200D2761E039B0A4022
:2033A000AD18241ADB19029A03E002D18442E5D23546E00F71000E1864007F08D9E7344324
:2033C00013D0581C019A12D001201840C31810E028461840204316D0002D83D504F0CAF98A
:2033E000212101600E4D00240DE0019A01E0521C002350105908D2075418009949080905B3
:203400000818064945182046294605B0F0BDC0460000F07FFFFFFF7F01FCFFFF0000E03F9E
:203420000000F87FF0B583B00124204604F0C6FE002864D0054604F031FF4E4E31680029D1
:2034400005D005F0EFF9284605F004FC02E0356005F0E8F930680025E94303F033F9464874
:203460000078002848D101944448077844480078029087423CD20298C01B401E03210090FF
:2034800004F01CFD481C032800D0054603282CD0BC0003E0BF1C0834AD1E26D039480068EE
:2034A0000159FEB201223046FEF74EF9354840680159002902D0304605F0B2FA781C012DDA
:2034C00012D03049096809194968C6B201223046FEF73AF92B484068001941680029D9D065
:2034E000304605F09DFAD5E707460098022808D20198214908701F4E306805F05AF803B0AB
:20350000F0BDBE001F4C04E0FF1C0C360298B842EED020688159FDB201222846FEF714F99E
:2035200060688159002902D0284605F079FA781C216889194968C5B201222846FEF704F9AE
:20354000606880194168002902D0284605F068FAB81C216889198968C5B201222846FEF7B4
:20356000F3F86068801981680029CDD0284605F057FAC9E7941C20208E1F2020DD920000A0
:20358000DE92000024950000F0B585B015461822424355488618F26A022A15D0012A09D062
:2035A0000020002A7DD1B76A746AA74270D9E243BB1873E0B36A746AA3423FD9E0431B18A9
:2035C000306AAB4240D240E0304624300190746A3046283000903046203003901C360020D0
:2035E000029608E0049838183146F119ED1B019B1C60029E55D0049000980368A34204D9A0
:20360000E0431F180398006804E003980068E2439A181718001B874200D30746AF4200D398
:203620002F46306800190E463A4605F0B5FB3C19039800688442D5D10024D3E7306AE2438A
:203640009A181318AB4200D32B4637462437051BF0690019AB4208D21A461D4605F09CFBDC
:2036600028462919396005B0F0BD1C3602962A4604911E4605F090FB741B0298006804999E
:203680004919224605F088FB30463C6005B0F0BD0490336AE243B818C31804982A46AB427A
:2036A00001D205B0F0BD37462437F069326A3346161B0019B54205D22A4605F06DFB601931
:2036C00038600EE01C3302933246049105F064FBAC1B0298006804998919224605F05CFB63
:2036E0003C60284605B0F0BD9818202080B588B00020079006900590FFE75248006805A989
:203700000022FFF7D7F9002800D199E00598002800D594E0079804900498002800D18CE00D
:2037200004984069002805D0FFE70498001D04F04BFA00E0FFE703A804F05AFC0290059885
:20374000401E0190082876D80198810001A040588746C0467937000079370000D13700006E
:20376000DF370000113800007937000079370000D1370000DF37000004992822885C01237D
:20378000184388540498069B81695918029A03F02DF900281AD0FFE704982821405C4007E5
:2037A000002808D5FFE70498069982698918029A04F058FD06E004992822885CFE23184048
:2037C0008854FFE70498016A884700E0FFE733E004992822885CFE23184088542CE00499AF
:2037E0002822885C01231843885406980499886104988069002803D1FFE772B6FFE7FEE7C2
:203800000498029B816959181A4603F0EFF813E004982821405C8007002804D4FFE704985D
:2038200001F020FB06E004992822885CFE2318408854FFE700E0FFE700E0FFE7FFE75CE7DB
:2038400008B080BD781F202080B58EB00C900B910A9209930020079005900B98002803D1CE
:20386000FFE74948039002E00B980390FFE7039806903420FDF71EFE07900798002803D179
:20388000FFE70C200D907BE006980069411E8841079908740A9807994861099807998861BE
:2038A00007990020C860079988600799C8610799086206990968079A516007998862079939
:2038C00008630799C86206980069002813D1FFE701200021032202F046FD079988600798F7
:2038E0008068002806D1FFE7079801F0BBFA0C200D9045E0FFE704F099FC411E481E8141D2
:2039000004A801700078C007002803D0FFE705F0BFF9FFE7069801898A08079B006801937F
:2039200000901A481A4904F073F908900898012805D1FFE70799086804F032FD11E00798F2
:203940008068002805D0FFE70798806804F042FDFFE7079801F086FA002007900C20059074
:20396000FFE707980C99086004A80078C007002803D0FFE7FEF712FAFFE705980D90FFE7E2
:203980000D980EB080BDC046E41E2020E3890000C6910000F0B585B00E4602460B46474826
:2039A000474C49004D0D28180746143721461431A94214D9A54220D21046424A1946424BCE
:2039C00005460C46FFF7E9FA00273A463B4603F003FD002843D0002E4AD43B4650E02146B7
:2039E00033318D4221D9601C874263D110461946FFF7D3FA02460B465CE03448F8403040B0
:203A0000104357D010462F4A19462F4B04460D46FFF7C3FA00220492134603F0DDFC00282F
:203A200020D0002E2ED4284630E00021C943C14011423FD002911046224A1946224B0390A4
:203A40000491FFF7AAFA00220192134603F0C4FC00280AD0002E1ED4049B039A28E02346A7
:203A60002A4627E02B46224624E0049B039A21E00120C00786432A462E4323461AD0154B70
:203A80003A4617E01148401CF8403018104B3B410340049A0EE0142F049B039A01D1731CF4
:203AA00006E0601B3430012181408A1801984341029882431046194605B0F0BDEDFBFFFF43
:203AC000FF0300009C7500883CE4377EFFFF0F000000F0FF0000F0BF10B588B007900691A0
:203AE00007980590012002900798002800D18CE00598006D002803D1FFE772B6FFE7FEE7FC
:203B00000598C06C0699884203D2FFE70698039003E00598C06C0390FFE70598C06A0399FF
:203B2000884270D0FFE70598006D012869D1FFE7059837490968884203D1FFE772B6FFE722
:203B4000FEE70598C06A049003980599C8620598C07E0006002806D4FFE703990A20401AD9
:203B60000599886100E0FFE705984069049914224A4328498918884241D1FFE70598001DC4
:203B800004F022F8002801D1FFE700E0FFE7FFE7FFE70598C06A20490968884205D9FFE776
:203BA0000598C06A1C490860FFE7FFE7FFE70598C16A142210464843164908184068019028
:203BC0000198059B986001988068059BD8600598001D019B9B6858600598001D019B9860FC
:203BE000059BDC6A10466043081858610598C06A42438858401C8850FFE7FFE700E0FFE71B
:203C000000E0FFE700E0FFE700E0FFE708B010BD281F2020D01720204C1F2020F0B58DB092
:203C2000149F002F00D18CE00E46397831760CA900240C70002800D184E0002E00D181E0A7
:203C40001546002A7ED00993022B7BD37978A52208922A706970022135600A91716000246D
:203C6000F4600B90314604F0EDFF0B99002869D0B878A62207922A70687035600A987060EF
:203C80000024F4600846314604F0DCFF0B99002858D013980690F878A72205922A706870A1
:203CA00035600A9870600024F4600846314604F0C9FF0699002945D01299002942D0002819
:203CC00040D008982870012035607060B1600890F0600B980A91314604F0B4FF002831D098
:203CE0000A990878049007982870356008987060B160F0600B98314604F0A4FF002821D0A6
:203D00000A99087808900CA80091069901910599029103900B9831462A46099B03F07EFD12
:203D200000280FD07878049981420BD1B8780899814207D10CA80078F978401A44424441E2
:203D400000E0002420460DB0F0BDF0B583B000920291019007684468029D6968002902D17A
:203D6000E968002968D004F099FA3978012902D1F968002954D1FD603D610121696104F0D2
:203D800051FD3E46303600253046294602F09AFC401C09D1387801280198DBD030460099F7
:203DA00002F090FC401C4DD03878002804D138468030002102F086FCFFF7B3F9606804F03E
:203DC000B9FE0198029903F083F8014660680C4604F0BAFE002C03D0FEF793FD254644E06A
:203DE0003878002841D13D4680352846009902F069FC401C37D104F051FA0446F8680028CE
:203E00002ED0019804F06FFC204604F00BFD0220C743B91C284602F055FC0298476122E054
:203E2000F96849690A3112D10221C943083969616D6904F0F7FC1BE00220C0430838686131
:203E40006D6915E00220C5430298456110E03969CD613D6101216961002504F0E3FC07E004
:203E6000204604F0DFFC02984569304604F0A1FB284603B0F0BD704710B582B0019004F0BE
:203E800037FE41490868401C08604048006800280DD1FFE701983D4908603B4800680128B8
:203EA00003D1FFE702F0E2FE00E0FFE714E03848006800280ED1FFE734480068C06A01993F
:203EC000C96A884204D8FFE701983049086000E0FFE700E0FFE7FFE72E480168491C016092
:203EE000006801994864FFE7FFE70198C06A2A490968884205D9FFE70198C06A2649086079
:203F0000FFE7FFE7FFE70198C16A14221046484322490818406800900098019B986000988D
:203F20008068019BD8600198001D009B9B6858600198001D009B9860019BDC6A1046604395
:203F4000081858610198C06A42438858401C8850FFE7FFE704F09CFB0D48006800280FD011
:203F6000FFE7FFE709480068C06A0199C96A884203D2FFE704F0C8FD00E0FFE7FFE700E0FB
:203F8000FFE702B010BDC0463C1F2020281F2020701F2020481F20204C1F2020D01720204C
:203FA00010B584B003900398029000200190039800287ED0FFE70298C06A40490968C96AAF
:203FC000884268D2FFE70298C07E0006002808D4FFE73A480068C16A0A20401A0299886112
:203FE00000E0FFE702994869C96A14224A4334498918884246D1FFE70298001D03F0E4FD49
:20400000002801D1FFE700E0FFE72C480068C06A0299C862FFE7FFE70298C06A29490968BC
:20402000884205D9FFE70298C06A26490860FFE7FFE7FFE70298C16A142210464843204960
:204040000818406800900098029B986000988068029BD8600298001D009B9B6858600298DF
:20406000001D009B9860029BDC6A10466043081858610298C06A42438858401C8850FFE798
:20408000FFE705E00D480068C06A0299C862FFE7012001900CE00298C06C08490968C96A6A
:2040A000884203D2FFE70120019000E0FFE7FFE700E0FFE7019804B010BDC046281F2020B0
:2040C000D01720204C1F202080B586B0059004F00FFD0598002804D1FFE73F48006801900E
:2040E00002E005980190FFE7019804900498002803D1FFE772B6FFE7FEE70498001D03F080
:2041000063FD002801D1FFE700E0FFE70498806A002805D0FFE70498183003F055FD00E027
:20412000FFE70498011D2D4803F0BBFF00200390FFE70398002814DCFFE7049803994018FB
:204140006421405C012807D1FFE7049803994118642200208854FFE7FFE70398401C0390EE
:20416000E7E704F095FA1E480068002807D0FFE704F0BEFC04F0A8F904F08AFA00E0FFE7BA
:20418000049815490968884222D1FFE71448006800280BD0FFE714480068002803D0FFE7BF
:2041A00072B6FFE7FEE704F0AFFC10E00B480068029002980B490968884204D1FFE70649FD
:2041C0000020086002E000F0BDFAFFE7FFE700E0FFE706B080BDC046281F2020441C20201C
:2041E000701F20203C1F2020441F202080B586B005900020039004F07BFC0598002804D1FA
:20420000FFE73A480068019002E005980190FFE7019804900498002803D1FFE772B6FFE78E
:20422000FEE70498001D03F0CFFC002801D1FFE700E0FFE70498806A002805D0FFE7049877
:20424000183003F0C1FC00E0FFE729490868401C0860049825490968401A41424841029087
:2042600024480068002813D0FFE7029800280FD0FFE70498011D214803F013FF20490868F1
:20428000401C0860049804F0DFFA0120039009E019490868401E0860049804F0D5FA04F069
:2042A00013F9FFE704F0F4F90398012804D0FFE7049803F055FBFFE70E480068002813D01F
:2042C000FFE704980949096888420BD1FFE70D480068002803D0FFE772B6FFE7FEE704F088
:2042E00013FC00E0FFE7FFE706B080BD281F2020481F2020701F20203C1F2020581C2020C4
:20430000401F2020441F202083B00290019100920298001F02900299012000060860029863
:20432000001F02900198029908600298001F029002992D4808600298001F029002992B4814
:2043400008600298001F02900299294808600298001F02900299274808600298001F02902E
:204360000299254808600298001F02900098029908600298001F0290029920480860029897
:20438000001F029002991E4808600298001F029002991C4808600298001F029002991A4809
:2043A00008600298001F02900299184808600298001F02900299164808600298001F0290F0
:2043C0000299144808600298001F02900299124808600298001F029002990220C043086063
:2043E000029803B07047C046F9840000121212120303030302020202010101011111111192
:204400001010101009090909080808080707070706060606050505050404040480B58AB051
:2044200009900891099805900598002803D1FFE772B6FFE7FEE70598006C002803D0FFE7B8
:2044400072B6FFE7FEE70598016800200029019006D1FFE705988068411E88410190FFE7A8
:204460000198C007002803D0FFE772B6FFE7FEE704F096FC06900598806B04900498059996
:20448000C96B884248D2FFE705984521415C03A801700499491C059A916300214056401CBA
:2044A00000281AD1FFE70598406A002813D0FFE705982430FEF736FE00280AD0FFE7089829
:2044C000002804D0FFE708990120086000E0FFE700E0FFE700E0FFE71BE0FFE704F022FC8B
:2044E0000290002103A84056029988420FD2FFE7002103A840567F2803D1FFE772B6FFE7CB
:20450000FEE70398401C059945228854FFE7FFE7FFE70120079002E000200790FFE7069857
:2045200004F045FC07980AB080BD7047FCB40C005C40E40FE40710B41D032D0B56006D41A3
:204540005F007F0D73D001246405254307242402FF34A74261D00B031B0B42005B4148003F
:20456000400D64D001246405234307242402FF34A04252D0C01B002100273624AB4200D103
:20458000B24204D37F414941921BAB4101E07F414941641E06D0002B01D1002A02D052009F
:2045A0005B41EBE7202C07D2162C0AD33900A7402026361BF1400BE0203C3900A1400027D9
:2045C00006E0A1402026361B3D00F5402943A74001246405214202D17F004941401E002469
:2045E0007F1C61410124A405214202D0401CA14301E06408A14303242402FF34001916DD7E
:204600002419A04209D8CC074908000501437808204310BC2143FCBC704702BC0020C90FF5
:204620000902FF21C900C91D0905FCBC70470021002001B0FCBC704786B005903D480490DE
:20464000FFE7049800680599884205D2FFE7FFE7049800680490F4E70498364988421FD01E
:20466000FFE704990020344A914202900FD3FFE704993148314A8218012000230093914217
:20468000019001D90098019001980290FFE70298C007002803D1FFE772B6FFE7FEE7FFE759
:2046A0000498039003980499496840180599884209D1FFE70598426804994868801848608E
:2046C0000498059000E0FFE70598039003980599496840180499096888421AD1FFE704982C
:2046E00000681749096888420DD0FFE704980068426805994868801848600498006800684C
:204700000599086004E00E48006805990860FFE704E00498006805990860FFE704980599F7
:20472000884204D0FFE705980499086000E0FFE706B070478C1C202000002020FF0B0000EE
:204740002C1F202080B586B03B480068002804D0FFE73A49012008606CE038490020086035
:20476000FFE737490868006B059036480490086800680968096B884218D9FFE705980068EE
:204780003049884212D1FFE7059840682D4988420CD1FFE7059880682A49884206D1FFE746
:2047A0000598C0682749884209D0FFE724480168343103910068039904F003FBFFE7FFE7AB
:2047C000FFE7214800680290FFE70298142141431E48405800280BD1FFE70298002803D1D9
:2047E000FFE772B6FFE7FEE70298401E0290ECE7FFE702981421414314484018019001996B
:20480000486840684860019948680831884204D1FFE70199C8684860FFE701984068C068CF
:2048200007490860FFE7029807490860FFE704480068FFE706B080BD441F2020801F202093
:20484000281F2020A5A5A5A54C1F2020D0172020F0B583B00D4602900646D036086837496C
:2048600042183749411801915368DB070ED053689B060BD45368DB0708D053689B0605D413
:204880005368DB0702D053689B06EDD513680127BB4313607368FF2B00D3FF2373821B0469
:2048A00014682849214019431160F168002902D17168090A3DD0136804218B431360317D00
:2048C000002900D13775082401990C607268002A0CD0316892B202F0E9FD7168091A71609E
:2048E000316809183160718A081A70822968164A8818164BCD1820262E62CD58144E2E43B9
:20490000CE50029B9B681B7E5B008D58114E2E40F3188B508B58BB438B50416802220A4377
:2049200042604168A143416041683943416003B0F0BD116804230B43C0E7C04614120000C0
:2049400048100000FFFF00F01012000028100000AAC6000001F8FFFF10B584B00390039829
:20496000029000200190039800286FD0FFE7029838490968884203D0FFE772B6FFE7FEE70A
:204980000298006D002803D1FFE772B6FFE7FEE70299086D401E08650299C86AC96C884294
:2049A00052D0FFE70298006D00284BD1FFE70298001D03F009F9002801D1FFE700E0FFE76C
:2049C0000299C86CC8620299CA6A0A20801A8861FFE7FFE70298C06A1F490968884205D951
:2049E000FFE70298C06A1C490860FFE7FFE7FFE70298C16A14221046484318490818406889
:204A000000900098029B986000988068029BD8600298001D009B9B6858600298001D009B25
:204A20009860029BDC6A10466043081858610298C06A42438858401C8850FFE7FFE701207F
:204A4000019000E0FFE700E0FFE700E0FFE7019804B010BD281F20204C1F2020D017202000
:204A600080B58CB00B900A9109920B9806900698002803D1FFE772B6FFE7FEE70A99002085
:204A80000029029006D1FFE70698006C411E88410290FFE70298C007002803D0FFE772B68A
:204AA000FFE7FEE704F07CF907900698806B0590059800284ED0FFE706984421405C04A9F8
:204AC0000191087006980A9903F054F901980599491E069A916300214056401C00281AD1F3
:204AE000FFE706980069002813D0FFE706981030FEF718FB00280AD0FFE70998002804D06D
:204B0000FFE709990120086000E0FFE700E0FFE700E0FFE71BE0FFE704F004F903900021AC
:204B200004A84056039988420FD2FFE7002104A840567F2803D1FFE772B6FFE7FEE70498B3
:204B4000401C069944228854FFE7FFE7FFE70120089002E000200890FFE7079804F027F97A
:204B600008980CB080BD10B586B00B9C0A9C099C089C05900491039202930A98006B03990E
:204B80008900A52204F09CF80A98016B039880004018001F0190019807218843019001A846
:204BA00000784007002803D0FFE772B6FFE7FEE70498002820D0FFE700200090FFE700989A
:204BC0000F2814D8FFE70498009A805C0A9989183422885404980099405C002801D1FFE793
:204BE00005E0FFE7FFE70098401C0090E7E70A9943220020885400E0FFE708980A2803D340
:204C0000FFE772B6FFE7FEE708980A2803D3FFE70920089000E0FFE708980A99C862089899
:204C20000A99C8640A98001D04F051F80A98183004F04DF80A98006108990A20401A0A99BB
:204C400088610A98406201980599029AFFF75CFB0A9908600998002804D0FFE70A98099935
:204C6000086000E0FFE706B010BD704780B586B0059004910392002000900598002803D05A
:204C8000FFE772B6FFE7FEE737480068059989004018006E002837D1FFE70398002833D08B
:204CA000FFE703F0F5FF03F023FF2F480068059989004018006E002809D1FFE72A48006884
:204CC00005994118642201208854009000E0FFE703F0DEFC0098012805D1FFE703980121FD
:204CE00000F084FB00E0FFE7FDF758F801900098012807D1FFE70198002803D1FFE703F0BD
:204D000003FF00E0FFE7FFE703F0F2FE16480068059989004018006E02900298002816D015
:204D2000FFE70498002808D0FFE70F4800680599890041180020086608E00298401E0A490B
:204D40000968059A920089180866FFE700E0FFE7054800680599411864220020885403F0D5
:204D600097FC029806B080BD281F2020F0B585B036480068072867D8012104918140862040
:204D8000014261D000200290C2433148014610390C68016801920260002C22D02D48007802
:204DA00003902D48077802E0AE40B44319D0204602F034FC1F2545400126BD42304600D8F7
:204DC000029803998D42049900D301460029EBD122484068A90041580029E5D0E8B2884797
:204DE000E2E71F48014610390C68016801990160002C29D01748057817480778039704E0BE
:204E00001F2148408640B4431ED0204602F006FC01263F214140B942324600D80022A94265
:204E2000049B00D31346002BEAD10C4A52688B00D258002AE4D0C9B22F46054608469047BE
:204E400028463D46039FDBE705B0F0BD3011404048100A40DD920000DE92000024950000A0
:204E600048300A4080B586B00590059804900598002868D0FFE704980838049004980390BD
:204E800003990020314A914202900FD3FFE703992E482F4A8218012000230093914201904E
:204EA00001D90098019001980290FFE70298C007002803D1FFE772B6FFE7FEE70398C079D4
:204EC000C009002803D1FFE772B6FFE7FEE703980068002803D0FFE772B6FFE7FEE70398C2
:204EE000C079C00900282CD0FFE703980068002825D1FFE7039948680122D20790434860DC
:204F000003984068082808D3FFE70498083003994968083903F0F4FEFFE703F0B9FE0398EB
:204F200042680C490868801808600398FFF784FB09490868401C0860FCF730FF00E0FFE784
:204F400000E0FFE7FFE706B080BDC04600002020FF0B0000501F2020681F2020F0B583B014
:204F60000346DC331A7E002A01D003B0F0BD01221A760C682F4961182F4D641902948D684A
:204F8000ED0705D08D68ED0702D08D68ED07F6D12A4C072637024E6896434E601E68350AFF
:204FA00002D0FF26DE8010E0B5B2DE80072D0CD83502ED1900928A6A0192FE34019A144058
:204FC000009A3D4025438D6202E08C6A3C438C624C681B4D2540340524092C194C601C68C2
:204FE000240A654265414C680426B443AD0064194C601C7A002C00D11A72029D2B68114CDD
:205000001C432C608068007E40000B680B4C234003430B60086810430860486802230343DB
:205020004B60486808239843486048681043486003B0F0BD101200002810000001F8FFFF0B
:20504000FFFF00F095C60000F0B581B0ED21090407684668BB793068324A8218002B52D0CA
:2050600035462035304C116213680B431360327F69460A70727F4A7003F0AEFB3068B9883B
:205080002A4A8358671C1F40294B0B40F918815002F090FF306803F0CFF93068092149025D
:2050A00040182978C26E07239A4319405118C166F18BC26E1B029A4319405118C166697867
:2050C000002903D0816D04220A438265A978002904D001680122120291430160816D082281
:2050E0000A438265816D21408165816E022291438166816E04220A438266816D01220A43D1
:20510000826501B0F0BD064BC01813688B43136003680124A3430360116201B0F0BDC046B5
:205120005812000028100000FFFBFFFF50120000FF03000070B5384B0021384A02E0C91C5F
:20514000062967D0445C5C406308E40700D053405C08DB0700D054406308E40700D0534091
:205160005C08DB0700D054406308E40700D053405C08DB0700D054406308E40700D0534069
:205180005C08DB0700D0544043185D7865406C08ED0700D054406508E40700D055406C0893
:2051A000ED0700D054406508E40700D055406C08ED0700D054406508E40700D055406E08DB
:2051C000EC0700D056407408F50700D054409D7865406B08EC0700D053405C08DB0700D001
:2051E00054406308E40700D053405C08DB0700D054406308E40700D053405C08DB0700D0E9
:2052000054406508E30700D055406B08EC0796D0534094E798B270BDFFFF000001A000004E
:20522000F0B585B007680390406802900068324942184658ED210904116130494458600774
:2052400006D50220B8713B68002103980A4698470125204628402904314040181CD001962D
:20526000029800689321490140188168490703D4816804220A438260006804AA10700226CA
:20528000BE713B68039831469847029800681C494258B2434250019E0220044068053040E1
:2052A000201803D130021DD405B0F0BD3446029800681349425804239A434250B879032100
:2052C000B9713B68032800D1054604AE03982946324698470298006831780A4A815026466B
:2052E0003002E1D50120B8713B68042100220398984705B0F0BDC046381000005C120000FA
:205300006812000064120000FCB50C005C40E40FE40710B4DD02540D2543D6025F007F0D37
:2053200060D00124E407254307242402FF34A74250D0CB02440D2343C2024800400D51D03A
:205340000124E407234307242402FF34A04241D0C01901B41800290002F086FE0F0001B457
:205360001800310002F080FE03000C001000310002F07AFE06001000290002F075FE050011
:205380007618002202BC01BC55415141A419554151418024A4005B195141FF18514100D509
:2053A00064003F19514102D47F00494100E0401C03242402FF34001B14DD2419A04209D8F8
:2053C0000305F80A4C0520434900090B194310BC2143FCBD0020FF21C900C91D090510BCA4
:2053E0002143FCBD0021002001B0FCBD80B588B00790069130480068049030480068039063
:205400002F48006802902F480068001D02F0DCFB002801D1FFE700E0FFE70798401C00288D
:2054200020D1FFE7069800281CD0FFE7FFE7274948680190019A234803689A60019A926866
:205440000368DA600268121D019B9B685A600268121D019B9A60006841610868401C086048
:20546000FFE726E00498079940180590059815490968486005980499884207D2FFE70298A6
:2054800010490968091D01F0ABFE11E003980D490968091D01F0A4FE05980B49096888424A
:2054A00004D2FFE705980849086000E0FFE7FFE7FFE708B080BDC046741F2020A01C20207E
:2054C000A41C2020281F20205C1F2020441C202080B586B005900491012003900598029072
:2054E0000298002803D1FFE772B6FFE7FEE70298002852D0FFE70298C06B00284DD0FFE783
:2055000002980190C16B0020C04302F0D7FC0199096C884241D3FFE703F0EAFA0299086897
:20552000CB6B0A6C5A438018886002990020886302990868486002990868CA6B531E0A6C22
:205540005A438018C86002994422FF2088540299452288540498002813D1FFE70298006983
:2055600000280CD0FFE702981030FDF7DBFD002803D0FFE703F0C8FA00E0FFE700E0FFE779
:2055800008E00298103003F06DF80298243003F069F8FFE703F07CF802E000200390FFE7E7
:2055A0000398002803D1FFE772B6FFE7FEE7039806B080BD8EB003F017FB2B4908600BAD16
:2055C000284603F037FB00242046294602F016FC002844D005462548059004942448079017
:2055E000069424480990089403E00020234903F0D9F9E24301212046FFF738FB03A8048037
:20560000029401940DA90C80284603F097FB0028EBD10DAF3A8800263046174903F0C2F91E
:205620003988284603F08FFB074601A8009004A803AA02AB3946FBF79FF80028D5D003A8B2
:20564000805F0F4908800F4A1168491C1160029B009030460C493A4603F0A4F9C9E70B49D7
:20566000002003F09FF9FEE7181F2020502D4941805DE84000405940549500007F93000043
:20568000861F2020081F2020A38F00005091000080B586B005900491039200200290059832
:2056A000806B01900598006C002810D1FFE705980068002809D1FFE705988068FFF74CF9C9
:2056C000029005990020886000E0FFE743E00398002817D1FFE7059A50680499126C03F0B3
:2056E0005BFB05990A6C486880184860059948688968884204D3FFE705990868486000E0F4
:20570000FFE727E0059AD0680499126C03F044FB05990A6CC868801AC8600599C868096833
:20572000884206D2FFE7059988680A6C801AC86000E0FFE7039802280AD1FFE7019800280E
:2057400004D0FFE70198401E019000E0FFE700E0FFE7FFE7FFE70198401C05998863029897
:2057600006B080BD10B590B001200F9000200D900C900B900A9009900890FFE708980E28F6
:2057800011D8FFE7089A2748815C0AA881540899405C002801D1FFE705E0FFE7FFE7089857
:2057A000401C0890EAE7089A0AA9002088540E90FFE70E98002832DCFFE71B480990002071
:2057C00004900790069007A806A905AA02F0C8FF049B0998059A0699079C02940191009366
:2057E0000AA902F05DF901460E9882000F4881500E9989004058002803D0FFE701200F90AE
:2058000002E000200F90FFE70F98012801D0FFE705E0FFE7FFE70E98401C0E90C9E70F98D2
:2058200010B010BDB79500000D750000AC1C2020F0B585B002462A480378002093424CD9DC
:20584000002900D127490B68002B46D08B887F2B43D807460191D00023490C1866680D58E0
:2058600002F01CFD7421695C002904D002F0DAFF384605B0F0BD29467431012200920A70D8
:2058800002F0D0FF707B317B184FC9193269FBF75BFF707D317DC919B269FBF755FF019809
:2058A000016829608088A8800020A8712046FFF7CBFB02AF384602F0A2FF0294B068039068
:2058C0002846083071680A4A3B4600F013F824352846009902F0D2FA204605B0F0BDC0468D
:2058E000DF920000709500009095000000000B012152000080B588B00790069105920493C5
:20590000079800900798002848D0FFE70498002805D1FFE701A8049002F071FFFFE70498F2
:205920000079FF2804D1FFE7049902204860FFE706981C490968884208D0FFE7049840687F
:20594000032803D1FFE70020079026E0009806998A001549885005980099486004980068CC
:205960000099886006980099086006980F4900F08DFD002106A840560499097900F0B2FF72
:205980000498007AC007002806D0FFE7002106A8405602F025FEFFE7FFE7FFE7079808B0C3
:2059A00080BDC046F81E2020A41D20208581000080B584B0039003F09BF803984521405C28
:2059C00002A90870FFE7002102A84056012817DBFFE70398406A00280CD0FFE7039824303E
:2059E000FDF7A0FB002803D0FFE703F0A1F900E0FFE700E004E00298401E02A90870E2E73C
:205A000003994522FF20885402F042FE03F070F803984421405C01A90870FFE7002101A88D
:205A20004056012817DBFFE703980069002810D0FFE703981030FDF775FB002803D0FFE7BD
:205A400003F076F900E0FFE70198401E01A9087000E000E0E2E703994422FF20885402F08D
:205A600017FE04B080BD704780B586B0059004910598002803D1FFE772B6FFE7FEE70498C6
:205A8000002803D1FFE772B6FFE7FEE703F030F8204800680290029805994968401A0190E0
:205AA00004980068401C002803D1FFE7002003902BE0194800680599096888420CD0FFE782
:205AC000029805994968884206D3FFE70120039004990020086017E0019804990968884213
:205AE0000BD2FFE7019A04990868801A0860059802F048FF0020039005E0049900200860A6
:205B000001200390FFE7FFE7FFE702F0C1FD039806B080BD741F2020601F2020F0B587B073
:205B2000059206900E9800283AD00A46119902910F9F007810760025002F019533D0002119
:205B40000698002836D0002A34D00598002831D004920C9A002A2DD0002B2BD00D9800282F
:205B600028D003920091109E049902E07F1E049919D00220059A1070012414C1039D0D606F
:205B80004C600698083903F05DF8002815D02D78E80715D1002EE9D0304601F031FFE5E761
:205BA000002007B0F0BD02990029019800D00D7007B0F0BD084607B0F0BD009807B0F0BDA5
:205BC000029900292046F2D1F2E77047F0B583B002F064FB044625480178002940D1012193
:205BE00001702348007801063AD00294C4B2601E032102F063F9481C002703283E4600D03A
:205C000006460190032C14D3A41B0027194D286841692846884728460C30E9684969884752
:205C200028461830A96949698847FF1C2435BC42EDD101980328029C12D00C2078430D496A
:205C400045180C3528460C38016849698847012E06D028684169284688471835B61EF1D1AB
:205C6000204602F0DFFD03B0F0BDC0468F1F20202791000064950000F0B581B0FF2845D0D9
:205C800004468008382202402148801845681F2626408800400F04D0102E16D39D21490163
:205CA00014E002F0FBFA1C490968A2008B580724E406A3438B500121B140184AAB588B4392
:205CC000AB50174902220A601EE0124969187200102E00D3203A90400A6802430A6001270B
:205CE000B740812040012D18A86A3843A86202F0D5FA09490968A2008B580724E4061C4372
:205D00008C50A9683943A96002F08CFD01B0F0BDE092000090130000249500002810000032
:205D200080E200E0F0B585B005460C9C0020002C47D00D9E002E44D024780C76002D40D0A9
:205D400000293ED0002A3CD00A9F002F39D0002B37D00B9B002B34D004900620107001248F
:205D6000029294C10C60039528460C390D4602F069FF002827D0387801900720029A107033
:205D8000294694C52C6003980C3D02F05BFF002819D0387800900820029A107094C52C6005
:205DA00003980C3D294602F04DFF0028049808D0387801990904009A120251180818306098
:205DC000204605B0F0BD049805B0F0BDF8B507460E464800244A904208D1384631463A46D9
:205DE0003346FDF7DAF804460D4639E0002919D438463146FDF7CEFD04460D463A4633464E
:205E0000FDF7C6F80027194B3A4601F0D1FA0646174B02F0B0FF002E00D00D46002E1FD04C
:205E200004461DE00120C007009041403846FDF7B1FD04460D463A463346FDF7AEF80027AB
:205E40000A4B3A4601F0B4FA0646094B02F093FF002E00D00446002E00D00D4600984540F4
:205E600020462946F8BDC0460000E0FF0000E0BF0000F03FF0B58B4200D1824204D90B00F6
:205E800002000021002040E0002B00D1002A0CD10B00020000210020002B00D1002A01D057
:205EA000C943C043FFF7DFFD2FE01C0015000B0002000CB4002126002F00FF19764102D2DB
:205EC000491C4029F9D100201E001700FF19764102D2401C4028F9D10E1A21002800320001
:205EE00002F070FD0C0005000CBC00200021A34200D1AA4201D3521BA341404149416D08E2
:205F0000E7073D436408761EF1D5059F002F01D03A607B60F0BD0000F0B581B00C46224DF0
:205F20002978532933D0A82106462846174602F0E7FE30463A460321296169611B4BAB61AA
:205F40001B49E9610121890229620021A9626962E9622B66174B6B661023AB662967E96632
:205F6000696753232B7045236B704726AE70EE702B7152236B712026AE71EB7154232B7252
:205F80006B72A972E97229736973A973E973EFF31085012181F310882146FDF7F5FA85F357
:205FA000108801B0F0BDC046981820207C950000000C20206C1C2020F0B589B002F0ECFD17
:205FC00000F00EFFFDF72EFAFDF755FFFFF7FEFD1D49002002F0E6FC01AC204602F03CFDD7
:205FE000012500956946204602F08CF906462046294602F0B0FA074637436902204602F013
:2060000007FE384300D0FEE7104A06A801A90023FDF71AFC002800D0FEE70D4A07A801A9DF
:206020000023FDF711FC002800D0FEE7094A08A801A90023FDF708FC002800D0FEE701F0C9
:206040006FF9002009B0F0BD20930000B5550000C1000000D967000084B00320800200902B
:206060002048029002A80078400700280ED0FFE70298C01D02900298072188430290029A0D
:2060800018490098891A40180090FFE7029916480160002141600298009A80180190019884
:2060A0000838019001980722D24310400190019A0E480260026851600268116002990391DF
:2060C0000199039A891A51600068039908600398406807490860039840680649086004B020
:2060E0007047C046000020208C1C20202C1F2020581F2020501F202010B588B004460A98E1
:20610000079406910592049303A90870002002900498002803D1FFE772B6FFE7FEE7079839
:2061200000282ED0FFE7049800282AD0FFE70598002804D0FFE70698002822D0FFE70598F5
:20614000002804D1FFE7069800281AD1FFE7502001900198502803D0FFE772B6FFE7FEE707
:20616000019804980290029946220120885407980699059A03AB1B78029C009401F090FD8A
:2061800007E00298002803D1FFE772B6FFE7FEE7FFE7029808B010BDF0B581B00446066816
:2061A00040680068224A831885588D4385501962B16848690A3018D10920C74373680025AB
:2061C00020462A469847B0684761F068316988421ED0F068C069F060F06847617368F1689B
:2061E000002220469847F068EEE7F0683269904213D0F068C069F0607368486942424241FF
:2062000020469847F168204600F062FE01B0F0BDB560F560356101B0F0BD0020F06030616D
:2062200073684869424242412046984701B0F0BD28100000002A49D084468B071CD18307DA
:2062400022D1102A08D370B4103A78C978C0103AFBD270BC103238D0042A2CD3082A05D38B
:206260000C2A01D308C908C008C908C008C908C092072AD0920F22E00B780370491C401C5C
:20628000521E22D08B07F7D1C30714D18307D8D0121F12D308C903801B0C4380001D121FBF
:2062A000F8D20AE008C903701B0A43701B0A83701B0AC370001D121FF4D2121D05D00B7803
:2062C0000370491C401C521EF9D160467047F0B58BB0139C129C119C109C0A90099108928F
:2062E00007931198002803D1FFE772B6FFE7FEE71298002803D1FFE772B6FFE7FEE768207F
:2063000005900598682803D0FFE772B6FFE7FEE705981298002820D0FFE7119800281CD00D
:20632000FFE7129806900698682102F0E9FC11980699086306996522022088540A9809991E
:20634000089A079B109C139D069E00270397029601950094FEF707FC02E000200690FFE700
:2063600006980BB0F0BD10B588B00790069105A80270002004900798002833D0FFE70799C9
:206380000020C04301F09AFD069988422AD3FFE70799069848435021C943884222D8FFE716
:2063A000079906984843039003985030FBF782F804900498002813D0FFE704980290029811
:2063C00050300290049946220020885407980699029A05AB1B78049C009401F061FC00E02B
:2063E000FFE707E00498002803D1FFE772B6FFE7FEE7FFE7049808B010BDF0B583B0054635
:206400000A9C0020002C39D024780C76002D35D0002933D0002A31D0022B2FD330271770CD
:2064200009205070022014460A60486000200646C860029528460D4602F004FC00281FD0F0
:206440000B9A0121002A1ED0089B002B18D00998002815D000920191277001202C606860C9
:20646000AB60E860029829461C4602F0EBFB0028304603D0207800990870019803B0F0BD73
:20648000304603B0F0BD084603B0F0BDF0B5214B1C68214A944238D01C68002566196359B6
:2064A0005719535173687B60B368BB60F368FB6033693B6173697B61B369BB61F369FB6146
:2064C000336A3B62736A7B62B36ABB62F36AFB62336B3B63736B7B63B36BBB63F36BFB63E4
:2064E000336C3B64736C7B64B36CBB64F36CFB64336D3B65736D7B65B36DBB65F36DFB65A4
:206500006035C02DCAD1034B1A60800080180164F0BDC04608ED00E00020202010B50C461A
:20652000002908D0022C08D11948002101701046FAF72EFE0FE0204610BDFD21214000202C
:20654000012908D1124901230B70124909780129EDD1FF2111700F490A78042A02D0042CCF
:2065600004D010BD01220A70042CFAD10A4A1378002B09D000231370084A1370084A1370AF
:20658000084A1370084A137001220A7010BDC046891F2020B31C2020881F20208D1F202017
:2065A0008C1F20208B1F20208A1F202080B584B00390029102F06CFB684601F019FD0190EF
:2065C000009800282ED1FFE7029800280CD1FFE703980199884207D8FFE7FBF7DFFB039866
:2065E000019901F0E5F91CE00298002807D0FFE70F4800680068414248410290FFE70D48B7
:2066000000680399019A891A029A00F01FFEFBF7C5FB002803D1FFE702F076FA00E0FFE7D3
:20662000FFE702E0FBF7BAFBFFE704B080BDC046A81C2020781F202080B586B00590059896
:20664000049002F025FBFFE70498C06A002835D0FFE70498C06A0390039800680499C862B2
:2066600003980069029002984068002805D0FFE70299086849680860FFE70298006800282B
:2066800005D0FFE70299486809684860FFE70398806801900198006800280BD0FFE703985C
:2066A000C068002806D0FFE7019801680398C0688847FFE70298FEF7D5FBC5E7FBF76EFBEE
:2066C00006B080BD80B58AB00890079101F0CCFE002807D0FFE7089800221146FEF7C0F9C1
:2066E000069023E002F060FB049004987D21C900884212D0FFE70798049A00230193194638
:2067000002F0DAF8019B03910290029803997D22D20002F055FA059002E007980590FFE77A
:2067200008980599FBF726FE0690FFE70698012804D1FFE709A90020087003E009A9FF2009
:206740000870FFE7002109A840560AB080BD000080B541690B310A291AD8C04679440979F7
:2067600049008F44050B071719090D131D151B000F4916E0104914E0124912E00D4910E012
:20678000027E1149002002F00DF980BD0F4908E0104906E0094904E0094902E0034900E0B5
:2067A0000B49002002F0FEF880BDC046FE94000083940000309400004C940000A2900000BB
:2067C000789100009B920000FC90000057920000F89300006894000084B001242046214661
:2067E00002F0BBFA19490025284602F0DBF801AE304602F0BDF9164801905020B08028466E
:206800003146FFF715F800281AD006467D20C50010490027384602F0C5F82046394600F0BC
:206820003DFC0D480470304602F042FA284601F0E7F8284601F0E4F8284601F0E1F8F5E725
:206840000649002002F0AEF8FEE7C046409300001D6500009D940000B31C20209E93000080
:20686000F0B581B000910021CC43466887687078002803D017482146FFF724FF3968164823
:206880000818164BCD58012212021543CD505C23FB5C9A4005682A4205D105682A4202D19B
:2068A00005682A42F6D09A0089180D4A8F580568816984617078002802D0064801F079FEEC
:2068C0004120054000D12C4600980780204601B0F0BDC046001B2020301000000411000036
:2068E0008062550070B582B0024601A80270009100214056002816D4FFE7002401A908573A
:206900000322D3431840174A805809578C07E50EFF24AC40A043009CA401E4B2AC402043AD
:20692000194088501AE001A908780F24204008380322D34318400A4A8058002549578D0717
